{
  "_format": "hh-sol-artifact-1",
  "contractName": "AuthToken",
  "sourceName": "contracts/AuthToken.sol",
  "abi": [
    {
      "inputs": [],
      "stateMutability": "nonpayable",
      "type": "constructor"
    },
    {
      "inputs": [],
      "name": "AccessControlBadConfirmation",
      "type": "error"
    },
    {
      "inputs": [
        {
          "internalType": "address",
          "name": "account",
          "type": "address"
        },
        {
          "internalType": "bytes32",
          "name": "neededRole",
          "type": "bytes32"
        }
      ],
      "name": "AccessControlUnauthorizedAccount",
      "type": "error"
    },
    {
      "inputs": [
        {
          "internalType": "address",
          "name": "spender",
          "type": "address"
        },
        {
          "internalType": "uint256",
          "name": "allowance",
          "type": "uint256"
        },
        {
          "internalType": "uint256",
          "name": "needed",
          "type": "uint256"
        }
      ],
      "name": "ERC20InsufficientAllowance",
      "type": "error"
    },
    {
      "inputs": [
        {
          "internalType": "address",
          "name": "sender",
          "type": "address"
        },
        {
          "internalType": "uint256",
          "name": "balance",
          "type": "uint256"
        },
        {
          "internalType": "uint256",
          "name": "needed",
          "type": "uint256"
        }
      ],
      "name": "ERC20InsufficientBalance",
      "type": "error"
    },
    {
      "inputs": [
        {
          "internalType": "address",
          "name": "approver",
          "type": "address"
        }
      ],
      "name": "ERC20InvalidApprover",
      "type": "error"
    },
    {
      "inputs": [
        {
          "internalType": "address",
          "name": "receiver",
          "type": "address"
        }
      ],
      "name": "ERC20InvalidReceiver",
      "type": "error"
    },
    {
      "inputs": [
        {
          "internalType": "address",
          "name": "sender",
          "type": "address"
        }
      ],
      "name": "ERC20InvalidSender",
      "type": "error"
    },
    {
      "inputs": [
        {
          "internalType": "address",
          "name": "spender",
          "type": "address"
        }
      ],
      "name": "ERC20InvalidSpender",
      "type": "error"
    },
    {
      "inputs": [],
      "name": "EnforcedPause",
      "type": "error"
    },
    {
      "inputs": [],
      "name": "ExpectedPause",
      "type": "error"
    },
    {
      "inputs": [],
      "name": "ReentrancyGuardReentrantCall",
      "type": "error"
    },
    {
      "anonymous": false,
      "inputs": [
        {
          "indexed": true,
          "internalType": "address",
          "name": "owner",
          "type": "address"
        },
        {
          "indexed": true,
          "internalType": "address",
          "name": "spender",
          "type": "address"
        },
        {
          "indexed": false,
          "internalType": "uint256",
          "name": "value",
          "type": "uint256"
        }
      ],
      "name": "Approval",
      "type": "event"
    },
    {
      "anonymous": false,
      "inputs": [
        {
          "indexed": true,
          "internalType": "address",
          "name": "buyer",
          "type": "address"
        },
        {
          "indexed": false,
          "internalType": "uint256",
          "name": "ethAmount",
          "type": "uint256"
        },
        {
          "indexed": false,
          "internalType": "uint256",
          "name": "authAmount",
          "type": "uint256"
        }
      ],
      "name": "AuthPurchased",
      "type": "event"
    },
    {
      "anonymous": false,
      "inputs": [
        {
          "indexed": true,
          "internalType": "address",
          "name": "recipient",
          "type": "address"
        },
        {
          "indexed": false,
          "internalType": "uint256",
          "name": "amount",
          "type": "uint256"
        }
      ],
      "name": "ETHWithdrawn",
      "type": "event"
    },
    {
      "anonymous": false,
      "inputs": [
        {
          "indexed": false,
          "internalType": "address",
          "name": "account",
          "type": "address"
        }
      ],
      "name": "Paused",
      "type": "event"
    },
    {
      "anonymous": false,
      "inputs": [
        {
          "indexed": true,
          "internalType": "address",
          "name": "user",
          "type": "address"
        },
        {
          "indexed": false,
          "internalType": "uint256",
          "name": "reward",
          "type": "uint256"
        }
      ],
      "name": "RewardClaimed",
      "type": "event"
    },
    {
      "anonymous": false,
      "inputs": [
        {
          "indexed": true,
          "internalType": "bytes32",
          "name": "role",
          "type": "bytes32"
        },
        {
          "indexed": true,
          "internalType": "bytes32",
          "name": "previousAdminRole",
          "type": "bytes32"
        },
        {
          "indexed": true,
          "internalType": "bytes32",
          "name": "newAdminRole",
          "type": "bytes32"
        }
      ],
      "name": "RoleAdminChanged",
      "type": "event"
    },
    {
      "anonymous": false,
      "inputs": [
        {
          "indexed": true,
          "internalType": "bytes32",
          "name": "role",
          "type": "bytes32"
        },
        {
          "indexed": true,
          "internalType": "address",
          "name": "account",
          "type": "address"
        },
        {
          "indexed": true,
          "internalType": "address",
          "name": "sender",
          "type": "address"
        }
      ],
      "name": "RoleGranted",
      "type": "event"
    },
    {
      "anonymous": false,
      "inputs": [
        {
          "indexed": true,
          "internalType": "bytes32",
          "name": "role",
          "type": "bytes32"
        },
        {
          "indexed": true,
          "internalType": "address",
          "name": "account",
          "type": "address"
        },
        {
          "indexed": true,
          "internalType": "address",
          "name": "sender",
          "type": "address"
        }
      ],
      "name": "RoleRevoked",
      "type": "event"
    },
    {
      "anonymous": false,
      "inputs": [
        {
          "indexed": true,
          "internalType": "address",
          "name": "user",
          "type": "address"
        },
        {
          "indexed": false,
          "internalType": "uint256",
          "name": "amount",
          "type": "uint256"
        },
        {
          "indexed": false,
          "internalType": "uint256",
          "name": "unlockAt",
          "type": "uint256"
        }
      ],
      "name": "Staked",
      "type": "event"
    },
    {
      "anonymous": false,
      "inputs": [
        {
          "indexed": true,
          "internalType": "address",
          "name": "from",
          "type": "address"
        },
        {
          "indexed": true,
          "internalType": "address",
          "name": "to",
          "type": "address"
        },
        {
          "indexed": false,
          "internalType": "uint256",
          "name": "value",
          "type": "uint256"
        }
      ],
      "name": "Transfer",
      "type": "event"
    },
    {
      "anonymous": false,
      "inputs": [
        {
          "indexed": false,
          "internalType": "address",
          "name": "account",
          "type": "address"
        }
      ],
      "name": "Unpaused",
      "type": "event"
    },
    {
      "anonymous": false,
      "inputs": [
        {
          "indexed": true,
          "internalType": "address",
          "name": "user",
          "type": "address"
        },
        {
          "indexed": false,
          "internalType": "uint256",
          "name": "amount",
          "type": "uint256"
        },
        {
          "indexed": false,
          "internalType": "uint256",
          "name": "reward",
          "type": "uint256"
        }
      ],
      "name": "Unstaked",
      "type": "event"
    },
    {
      "inputs": [],
      "name": "AUTH_PER_ETH",
      "outputs": [
        {
          "internalType": "uint256",
          "name": "",
          "type": "uint256"
        }
      ],
      "stateMutability": "view",
      "type": "function"
    },
    {
      "inputs": [],
      "name": "DEFAULT_ADMIN_ROLE",
      "outputs": [
        {
          "internalType": "bytes32",
          "name": "",
          "type": "bytes32"
        }
      ],
      "stateMutability": "view",
      "type": "function"
    },
    {
      "inputs": [],
      "name": "MAX_APY_PERCENT",
      "outputs": [
        {
          "internalType": "uint256",
          "name": "",
          "type": "uint256"
        }
      ],
      "stateMutability": "view",
      "type": "function"
    },
    {
      "inputs": [],
      "name": "MAX_SUPPLY",
      "outputs": [
        {
          "internalType": "uint256",
          "name": "",
          "type": "uint256"
        }
      ],
      "stateMutability": "view",
      "type": "function"
    },
    {
      "inputs": [],
      "name": "MINTER_ROLE",
      "outputs": [
        {
          "internalType": "bytes32",
          "name": "",
          "type": "bytes32"
        }
      ],
      "stateMutability": "view",
      "type": "function"
    },
    {
      "inputs": [],
      "name": "SECONDS_PER_YEAR",
      "outputs": [
        {
          "internalType": "uint256",
          "name": "",
          "type": "uint256"
        }
      ],
      "stateMutability": "view",
      "type": "function"
    },
    {
      "inputs": [
        {
          "internalType": "address",
          "name": "owner",
          "type": "address"
        },
        {
          "internalType": "address",
          "name": "spender",
          "type": "address"
        }
      ],
      "name": "allowance",
      "outputs": [
        {
          "internalType": "uint256",
          "name": "",
          "type": "uint256"
        }
      ],
      "stateMutability": "view",
      "type": "function"
    },
    {
      "inputs": [
        {
          "internalType": "address",
          "name": "spender",
          "type": "address"
        },
        {
          "internalType": "uint256",
          "name": "value",
          "type": "uint256"
        }
      ],
      "name": "approve",
      "outputs": [
        {
          "internalType": "bool",
          "name": "",
          "type": "bool"
        }
      ],
      "stateMutability": "nonpayable",
      "type": "function"
    },
    {
      "inputs": [],
      "name": "availableRewardPool",
      "outputs": [
        {
          "internalType": "uint256",
          "name": "",
          "type": "uint256"
        }
      ],
      "stateMutability": "view",
      "type": "function"
    },
    {
      "inputs": [
        {
          "internalType": "address",
          "name": "account",
          "type": "address"
        }
      ],
      "name": "balanceOf",
      "outputs": [
        {
          "internalType": "uint256",
          "name": "",
          "type": "uint256"
        }
      ],
      "stateMutability": "view",
      "type": "function"
    },
    {
      "inputs": [],
      "name": "buyAuthWithETH",
      "outputs": [],
      "stateMutability": "payable",
      "type": "function"
    },
    {
      "inputs": [],
      "name": "claimRewards",
      "outputs": [],
      "stateMutability": "nonpayable",
      "type": "function"
    },
    {
      "inputs": [],
      "name": "decimals",
      "outputs": [
        {
          "internalType": "uint8",
          "name": "",
          "type": "uint8"
        }
      ],
      "stateMutability": "view",
      "type": "function"
    },
    {
      "inputs": [
        {
          "internalType": "address",
          "name": "account",
          "type": "address"
        }
      ],
      "name": "earned",
      "outputs": [
        {
          "internalType": "uint256",
          "name": "",
          "type": "uint256"
        }
      ],
      "stateMutability": "view",
      "type": "function"
    },
    {
      "inputs": [
        {
          "internalType": "bytes32",
          "name": "role",
          "type": "bytes32"
        }
      ],
      "name": "getRoleAdmin",
      "outputs": [
        {
          "internalType": "bytes32",
          "name": "",
          "type": "bytes32"
        }
      ],
      "stateMutability": "view",
      "type": "function"
    },
    {
      "inputs": [
        {
          "internalType": "bytes32",
          "name": "role",
          "type": "bytes32"
        },
        {
          "internalType": "address",
          "name": "account",
          "type": "address"
        }
      ],
      "name": "grantRole",
      "outputs": [],
      "stateMutability": "nonpayable",
      "type": "function"
    },
    {
      "inputs": [
        {
          "internalType": "bytes32",
          "name": "role",
          "type": "bytes32"
        },
        {
          "internalType": "address",
          "name": "account",
          "type": "address"
        }
      ],
      "name": "hasRole",
      "outputs": [
        {
          "internalType": "bool",
          "name": "",
          "type": "bool"
        }
      ],
      "stateMutability": "view",
      "type": "function"
    },
    {
      "inputs": [],
      "name": "lastUpdateTime",
      "outputs": [
        {
          "internalType": "uint256",
          "name": "",
          "type": "uint256"
        }
      ],
      "stateMutability": "view",
      "type": "function"
    },
    {
      "inputs": [],
      "name": "lockPeriod",
      "outputs": [
        {
          "internalType": "uint256",
          "name": "",
          "type": "uint256"
        }
      ],
      "stateMutability": "view",
      "type": "function"
    },
    {
      "inputs": [],
      "name": "name",
      "outputs": [
        {
          "internalType": "string",
          "name": "",
          "type": "string"
        }
      ],
      "stateMutability": "view",
      "type": "function"
    },
    {
      "inputs": [],
      "name": "pause",
      "outputs": [],
      "stateMutability": "nonpayable",
      "type": "function"
    },
    {
      "inputs": [],
      "name": "paused",
      "outputs": [
        {
          "internalType": "bool",
          "name": "",
          "type": "bool"
        }
      ],
      "stateMutability": "view",
      "type": "function"
    },
    {
      "inputs": [
        {
          "internalType": "address",
          "name": "user",
          "type": "address"
        }
      ],
      "name": "pendingReward",
      "outputs": [
        {
          "internalType": "uint256",
          "name": "",
          "type": "uint256"
        }
      ],
      "stateMutability": "view",
      "type": "function"
    },
    {
      "inputs": [
        {
          "internalType": "bytes32",
          "name": "role",
          "type": "bytes32"
        },
        {
          "internalType": "address",
          "name": "callerConfirmation",
          "type": "address"
        }
      ],
      "name": "renounceRole",
      "outputs": [],
      "stateMutability": "nonpayable",
      "type": "function"
    },
    {
      "inputs": [
        {
          "internalType": "bytes32",
          "name": "role",
          "type": "bytes32"
        },
        {
          "internalType": "address",
          "name": "account",
          "type": "address"
        }
      ],
      "name": "revokeRole",
      "outputs": [],
      "stateMutability": "nonpayable",
      "type": "function"
    },
    {
      "inputs": [],
      "name": "rewardPerToken",
      "outputs": [
        {
          "internalType": "uint256",
          "name": "",
          "type": "uint256"
        }
      ],
      "stateMutability": "view",
      "type": "function"
    },
    {
      "inputs": [],
      "name": "rewardPerTokenStored",
      "outputs": [
        {
          "internalType": "uint256",
          "name": "",
          "type": "uint256"
        }
      ],
      "stateMutability": "view",
      "type": "function"
    },
    {
      "inputs": [],
      "name": "rewardRate",
      "outputs": [
        {
          "internalType": "uint256",
          "name": "",
          "type": "uint256"
        }
      ],
      "stateMutability": "view",
      "type": "function"
    },
    {
      "inputs": [
        {
          "internalType": "uint256",
          "name": "authAmount",
          "type": "uint256"
        }
      ],
      "name": "sellAuthForETH",
      "outputs": [],
      "stateMutability": "nonpayable",
      "type": "function"
    },
    {
      "anonymous": false,
      "inputs": [
        {
          "indexed": true,
          "internalType": "address",
          "name": "seller",
          "type": "address"
        },
        {
          "indexed": false,
          "internalType": "uint256",
          "name": "authAmount",
          "type": "uint256"
        },
        {
          "indexed": false,
          "internalType": "uint256",
          "name": "ethAmount",
          "type": "uint256"
        }
      ],
      "name": "AuthSold",
      "type": "event"
    },
    {
      "inputs": [
        {
          "internalType": "uint256",
          "name": "newLockPeriod",
          "type": "uint256"
        }
      ],
      "name": "setLockPeriod",
      "outputs": [],
      "stateMutability": "nonpayable",
      "type": "function"
    },
    {
      "inputs": [
        {
          "internalType": "uint256",
          "name": "newRatePercent",
          "type": "uint256"
        }
      ],
      "name": "setRewardRate",
      "outputs": [],
      "stateMutability": "nonpayable",
      "type": "function"
    },
    {
      "inputs": [
        {
          "internalType": "uint256",
          "name": "amount",
          "type": "uint256"
        }
      ],
      "name": "stake",
      "outputs": [],
      "stateMutability": "nonpayable",
      "type": "function"
    },
    {
      "inputs": [
        {
          "internalType": "address",
          "name": "",
          "type": "address"
        }
      ],
      "name": "stakes",
      "outputs": [
        {
          "internalType": "uint256",
          "name": "amount",
          "type": "uint256"
        },
        {
          "internalType": "uint256",
          "name": "unlockAt",
          "type": "uint256"
        },
        {
          "internalType": "uint256",
          "name": "userRewardPerTokenPaid",
          "type": "uint256"
        },
        {
          "internalType": "uint256",
          "name": "rewards",
          "type": "uint256"
        }
      ],
      "stateMutability": "view",
      "type": "function"
    },
    {
      "inputs": [
        {
          "internalType": "bytes4",
          "name": "interfaceId",
          "type": "bytes4"
        }
      ],
      "name": "supportsInterface",
      "outputs": [
        {
          "internalType": "bool",
          "name": "",
          "type": "bool"
        }
      ],
      "stateMutability": "view",
      "type": "function"
    },
    {
      "inputs": [],
      "name": "symbol",
      "outputs": [
        {
          "internalType": "string",
          "name": "",
          "type": "string"
        }
      ],
      "stateMutability": "view",
      "type": "function"
    },
    {
      "inputs": [
        {
          "internalType": "uint256",
          "name": "amount",
          "type": "uint256"
        }
      ],
      "name": "topUpRewards",
      "outputs": [],
      "stateMutability": "nonpayable",
      "type": "function"
    },
    {
      "inputs": [],
      "name": "totalStaked",
      "outputs": [
        {
          "internalType": "uint256",
          "name": "",
          "type": "uint256"
        }
      ],
      "stateMutability": "view",
      "type": "function"
    },
    {
      "inputs": [],
      "name": "totalSupply",
      "outputs": [
        {
          "internalType": "uint256",
          "name": "",
          "type": "uint256"
        }
      ],
      "stateMutability": "view",
      "type": "function"
    },
    {
      "inputs": [
        {
          "internalType": "address",
          "name": "to",
          "type": "address"
        },
        {
          "internalType": "uint256",
          "name": "value",
          "type": "uint256"
        }
      ],
      "name": "transfer",
      "outputs": [
        {
          "internalType": "bool",
          "name": "",
          "type": "bool"
        }
      ],
      "stateMutability": "nonpayable",
      "type": "function"
    },
    {
      "inputs": [
        {
          "internalType": "address",
          "name": "from",
          "type": "address"
        },
        {
          "internalType": "address",
          "name": "to",
          "type": "address"
        },
        {
          "internalType": "uint256",
          "name": "value",
          "type": "uint256"
        }
      ],
      "name": "transferFrom",
      "outputs": [
        {
          "internalType": "bool",
          "name": "",
          "type": "bool"
        }
      ],
      "stateMutability": "nonpayable",
      "type": "function"
    },
    {
      "inputs": [],
      "name": "unpause",
      "outputs": [],
      "stateMutability": "nonpayable",
      "type": "function"
    },
    {
      "inputs": [],
      "name": "unstake",
      "outputs": [],
      "stateMutability": "nonpayable",
      "type": "function"
    },
    {
      "inputs": [
        {
          "internalType": "uint256",
          "name": "amount",
          "type": "uint256"
        }
      ],
      "name": "unstake",
      "outputs": [],
      "stateMutability": "nonpayable",
      "type": "function"
    },
    {
      "inputs": [
        {
          "internalType": "address payable",
          "name": "recipient",
          "type": "address"
        },
        {
          "internalType": "uint256",
          "name": "amount",
          "type": "uint256"
        }
      ],
      "name": "withdrawETH",
      "outputs": [],
      "stateMutability": "nonpayable",
      "type": "function"
    }
  ],
  "bytecode": "0x60806040526008600d5562093a80600e553480156200001d57600080fd5b506040518060400160405280600a81526020016920baba34102a37b5b2b760b11b81525060405180604001604052806004815260200163082aaa8960e31b81525081600390816200006f9190620004af565b5060046200007e8282620004af565b5050600160075550620000936000336200015d565b50620000c07f9f2df0fed2c77648de5860a4cc508cd0818c85b8b8a1ab4ceeef8d981c8956a6336200015d565b5042600b55620000f7336064620000e56b033b2e3c9fd0803ce8000000602862000591565b620000f19190620005ab565b62000210565b62000117306064620000e56b033b2e3c9fd0803ce8000000601e62000591565b62000137336064620000e56b033b2e3c9fd0803ce8000000601462000591565b62000157336064620000e56b033b2e3c9fd0803ce8000000600a62000591565b620005e4565b60008281526005602090815260408083206001600160a01b038516845290915281205460ff16620002065760008381526005602090815260408083206001600160a01b03861684529091529020805460ff19166001179055620001bd3390565b6001600160a01b0316826001600160a01b0316847f2f8788117e7eff1d82e926ec794901d17c78024a50270940304540a733656f0d60405160405180910390a45060016200020a565b5060005b92915050565b8060096000828254620002249190620005ce565b90915550506009546b033b2e3c9fd0803ce80000001015620002825760405162461bcd60e51b8152602060048201526012602482015271105555120e8818d85c08195e18d95959195960721b60448201526064015b60405180910390fd5b6200028e828262000292565b5050565b6001600160a01b038216620002be5760405163ec442f0560e01b81526000600482015260240162000279565b6200028e60008383620002d3838383620002d8565b505050565b6001600160a01b03831662000307578060026000828254620002fb9190620005ce565b909155506200037b9050565b6001600160a01b038316600090815260208190526040902054818110156200035c5760405163391434e360e21b81526001600160a01b0385166004820152602481018290526044810183905260640162000279565b6001600160a01b03841660009081526020819052604090209082900390555b6001600160a01b0382166200039957600280548290039055620003b8565b6001600160a01b03821660009081526020819052604090208054820190555b816001600160a01b0316836001600160a01b03167fddf252ad1be2c89b69c2b068fc378daa952ba7f163c4a11628f55a4df523b3ef83604051620003fe91815260200190565b60405180910390a3505050565b634e487b7160e01b600052604160045260246000fd5b600181811c908216806200043657607f821691505b6020821081036200045757634e487b7160e01b600052602260045260246000fd5b50919050565b601f821115620002d357600081815260208120601f850160051c81016020861015620004865750805b601f850160051c820191505b81811015620004a75782815560010162000492565b505050505050565b81516001600160401b03811115620004cb57620004cb6200040b565b620004e381620004dc845462000421565b846200045d565b602080601f8311600181146200051b5760008415620005025750858301515b600019600386901b1c1916600185901b178555620004a7565b600085815260208120601f198616915b828110156200054c578886015182559484019460019091019084016200052b565b50858210156200056b5787850151600019600388901b60f8161c191681555b5050505050600190811b01905550565b634e487b7160e01b600052601160045260246000fd5b80820281158282048414176200020a576200020a6200057b565b600082620005c957634e487b7160e01b600052601260045260246000fd5b500490565b808201808211156200020a576200020a6200057b565b611ed180620005f46000396000f3fe60806040526004361061025b5760003560e01c80635c975abb11610144578063a9059cbb116100b6578063d53913931161007a578063d5391393146106d3578063d547741f14610707578063dd62ed3e14610727578063df136d651461076d578063e6a69ab814610783578063f40f0f521461079b57600080fd5b8063a9059cbb14610653578063bc58d79514610673578063c8f33c9114610693578063c96e616c146106a9578063cd3daf9d146106be57600080fd5b80638456cb59116101085780638456cb59146105b457806391d14854146105c957806395d89b41146105e95780639e447fc6146105fe578063a217fddf1461061e578063a694fc3a1461063357600080fd5b80635c975abb1461051a57806370a0823114610532578063779972da146105685780637b0a47ee14610588578063817b1cd21461059e57600080fd5b80632bb57542116101dd57806332cb6b0c116101a157806332cb6b0c1461047a57806336568abe1461049a578063372500ab146104ba5780633f4ba83a146104cf5780633fd8b02f146104e45780634782f779146104fa57600080fd5b80632bb57542146103ff5780632def6620146104095780632e17de781461041e5780632f2ff15d1461043e578063313ce5671461045e57600080fd5b806316934fc41161022457806316934fc41461031a57806318160ddd1461037c57806323b872dd14610391578063248a9ca3146103b157806327e69652146103e157600080fd5b80628cc2621461026057806301ffc9a71461029357806306fdde03146102c3578063079f291c146102e5578063095ea7b3146102fa575b600080fd5b34801561026c57600080fd5b5061028061027b366004611c4c565b6107bb565b6040519081526020015b60405180910390f35b34801561029f57600080fd5b506102b36102ae366004611c70565b610858565b604051901515815260200161028a565b3480156102cf57600080fd5b506102d861088f565b60405161028a9190611c9a565b3480156102f157600080fd5b50610280601481565b34801561030657600080fd5b506102b3610315366004611ce8565b610921565b34801561032657600080fd5b5061035c610335366004611c4c565b600c6020526000908152604090208054600182015460028301546003909301549192909184565b60408051948552602085019390935291830152606082015260800161028a565b34801561038857600080fd5b50600254610280565b34801561039d57600080fd5b506102b36103ac366004611d14565b610939565b3480156103bd57600080fd5b506102806103cc366004611d55565b60009081526005602052604090206001015490565b3480156103ed57600080fd5b5061028069021e19e0c9bab240000081565b61040761095d565b005b34801561041557600080fd5b50610407610ad2565b34801561042a57600080fd5b50610407610439366004611d55565b610c70565b34801561044a57600080fd5b50610407610459366004611d6e565b610e81565b34801561046a57600080fd5b506040516012815260200161028a565b34801561048657600080fd5b506102806b033b2e3c9fd0803ce800000081565b3480156104a657600080fd5b506104076104b5366004611d6e565b610eac565b3480156104c657600080fd5b50610407610ee4565b3480156104db57600080fd5b50610407610ffe565b3480156104f057600080fd5b50610280600e5481565b34801561050657600080fd5b50610407610515366004611ce8565b611011565b34801561052657600080fd5b5060065460ff166102b3565b34801561053e57600080fd5b5061028061054d366004611c4c565b6001600160a01b031660009081526020819052604090205490565b34801561057457600080fd5b50610407610583366004611d55565b61118f565b34801561059457600080fd5b50610280600d5481565b3480156105aa57600080fd5b5061028060085481565b3480156105c057600080fd5b506104076111e9565b3480156105d557600080fd5b506102b36105e4366004611d6e565b6111fc565b3480156105f557600080fd5b506102d8611227565b34801561060a57600080fd5b50610407610619366004611d55565b611236565b34801561062a57600080fd5b50610280600081565b34801561063f57600080fd5b5061040761064e366004611d55565b6112dc565b34801561065f57600080fd5b506102b361066e366004611ce8565b611489565b34801561067f57600080fd5b5061040761068e366004611d55565b611497565b34801561069f57600080fd5b50610280600b5481565b3480156106b557600080fd5b50610280611573565b3480156106ca57600080fd5b506102806115a7565b3480156106df57600080fd5b506102807f9f2df0fed2c77648de5860a4cc508cd0818c85b8b8a1ab4ceeef8d981c8956a681565b34801561071357600080fd5b50610407610722366004611d6e565b61161c565b34801561073357600080fd5b50610280610742366004611d9e565b6001600160a01b03918216600090815260016020908152604080832093909416825291909152205490565b34801561077957600080fd5b50610280600a5481565b34801561078f57600080fd5b506102806301e1338081565b3480156107a757600080fd5b506102806107b6366004611c4c565b611641565b6001600160a01b0381166000908152600c602090815260408083208151608081018352815481526001820154938101939093526002810154918301829052600301546060830152829061080c6115a7565b6108169190611de2565b90506000670de0b6b3a76400008284600001516108339190611df5565b61083d9190611e0c565b905080836060015161084f9190611e2e565b95945050505050565b60006001600160e01b03198216637965db0b60e01b148061088957506301ffc9a760e01b6001600160e01b03198316145b92915050565b60606003805461089e90611e41565b80601f01602080910402602001604051908101604052809291908181526020018280546108ca90611e41565b80156109175780601f106108ec57610100808354040283529160200191610917565b820191906000526020600020905b8154815290600101906020018083116108fa57829003601f168201915b5050505050905090565b60003361092f81858561164c565b5060019392505050565b600033610947858285611659565b6109528585856116d2565b506001949350505050565b610965611731565b61096d61175b565b600034116109b25760405162461bcd60e51b815260206004820152600d60248201526c09aeae6e840e6cadcc8408aa89609b1b60448201526064015b60405180910390fd5b6000670de0b6b3a76400006109d169021e19e0c9bab240000034611df5565b6109db9190611e0c565b905060008111610a205760405162461bcd60e51b815260206004820152601060248201526f105b5bdd5b9d081d1bdbc81cdb585b1b60821b60448201526064016109a9565b30600090815260208190526040902054811115610a7f5760405162461bcd60e51b815260206004820152601d60248201527f496e73756666696369656e74204155544820696e20636f6e747261637400000060448201526064016109a9565b610a8a3033836116d2565b604080513481526020810183905233917fece7aab69cef86c68af7e0e803eb1f1c0cf57f9108b8df7d59404b3dbcc9d3b8910160405180910390a250610ad06001600755565b565b610ada61175b565b610ae2611731565b33610aeb6115a7565b600a5542600b556001600160a01b03811615610b3457610b0a816107bb565b6001600160a01b0382166000908152600c602052604090206003810191909155600a546002909101555b336000908152600c60205260409020805480610b7d5760405162461bcd60e51b81526020600482015260086024820152674e6f207374616b6560c01b60448201526064016109a9565b8160010154421015610bc05760405162461bcd60e51b815260206004820152600c60248201526b14dd1a5b1b081b1bd8dad95960a21b60448201526064016109a9565b600080835560088054839290610bd7908490611de2565b90915550610be890503033836116d2565b60038201548015610c3857600060038401819055610c06338361177f565b60408051858152602081018390529192503391600080516020611e7c833981519152910160405180910390a250610c62565b60408051838152600060208201523391600080516020611e7c833981519152910160405180910390a25b50505050610ad06001600755565b610c7861175b565b610c80611731565b33610c896115a7565b600a5542600b556001600160a01b03811615610cd257610ca8816107bb565b6001600160a01b0382166000908152600c602052604090206003810191909155600a546002909101555b60008211610d165760405162461bcd60e51b8152602060048201526011602482015270105555120e881e995c9bc8185b5bdd5b9d607a1b60448201526064016109a9565b336000908152600c602052604090208054831115610d765760405162461bcd60e51b815260206004820152601960248201527f415554483a20696e73756666696369656e74207374616b65640000000000000060448201526064016109a9565b8060010154421015610db95760405162461bcd60e51b815260206004820152600c60248201526b14dd1a5b1b081b1bd8dad95960a21b60448201526064016109a9565b82816000016000828254610dcd9190611de2565b925050819055508260086000828254610de69190611de2565b90915550610df790503033856116d2565b60038101548015610e4757600060038301819055610e15338361177f565b60408051878152602081018390529192503391600080516020611e7c833981519152910160405180910390a250610e71565b60408051858152600060208201523391600080516020611e7c833981519152910160405180910390a25b505050610e7e6001600755565b50565b600082815260056020526040902060010154610e9c816117cb565b610ea683836117d5565b50505050565b6001600160a01b0381163314610ed55760405163334bd91960e11b815260040160405180910390fd5b610edf8282611869565b505050565b610eec61175b565b610ef4611731565b33610efd6115a7565b600a5542600b556001600160a01b03811615610f4657610f1c816107bb565b6001600160a01b0382166000908152600c602052604090206003810191909155600a546002909101555b336000908152600c602052604090206003015480610f935760405162461bcd60e51b815260206004820152600a6024820152694e6f207265776172647360b01b60448201526064016109a9565b336000818152600c6020526040812060030181905590610fb3908361177f565b90508015610ff15760405181815233907f106f923f993c2149d49b4255ff723acafa1f2d94393f561d3eda32ae348f72419060200160405180910390a25b505050610ad06001600755565b6000611009816117cb565b610e7e6118d6565b600061101c816117cb565b6001600160a01b0383166110665760405162461bcd60e51b8152602060048201526011602482015270125b9d985b1a59081c9958da5c1a595b9d607a1b60448201526064016109a9565b478211156110ad5760405162461bcd60e51b8152602060048201526014602482015273496e73756666696369656e742062616c616e636560601b60448201526064016109a9565b6000836001600160a01b03168360405160006040518083038185875af1925050503d80600081146110fa576040519150601f19603f3d011682016040523d82523d6000602084013e6110ff565b606091505b50509050806111465760405162461bcd60e51b8152602060048201526013602482015272115512081d1c985b9cd9995c8819985a5b1959606a1b60448201526064016109a9565b836001600160a01b03167f94b2de810873337ed265c5f8cf98c9cffefa06b8607f9a2f1fbaebdfbcfbef1c8460405161118191815260200190565b60405180910390a250505050565b600061119a816117cb565b6276a7008211156111e35760405162461bcd60e51b8152602060048201526013602482015272415554483a206c6f636b20746f6f206c6f6e6760681b60448201526064016109a9565b50600e55565b60006111f4816117cb565b610e7e611928565b60009182526005602090815260408084206001600160a01b0393909316845291905290205460ff1690565b60606004805461089e90611e41565b6000611241816117cb565b600061124b6115a7565b600a5542600b556001600160a01b038116156112945761126a816107bb565b6001600160a01b0382166000908152600c602052604090206003810191909155600a546002909101555b60148311156112d55760405162461bcd60e51b815260206004820152600d60248201526c0a4c2e8ca40e8dede40d0d2ced609b1b60448201526064016109a9565b5050600d55565b6112e461175b565b6112ec611731565b336112f56115a7565b600a5542600b556001600160a01b0381161561133e57611314816107bb565b6001600160a01b0382166000908152600c602052604090206003810191909155600a546002909101555b600082116113795760405162461bcd60e51b81526020600482015260086024820152670416d6f756e743d360c41b60448201526064016109a9565b336000908152602081905260409020548211156113d85760405162461bcd60e51b815260206004820152601a60248201527f415554483a20696e73756666696369656e742062616c616e636500000000000060448201526064016109a9565b6113e33330846116d2565b336000908152600c60205260408120805490918491839190611406908490611e2e565b9091555050600e546114189042611e2e565b816001018190555082600860008282546114329190611e2e565b9091555050600181015460405133917f1449c6dd7851abc30abf37f57715f492010519147cc2652fbc38202c18a6ee909161147591878252602082015260400190565b60405180910390a25050610e7e6001600755565b60003361092f8185856116d2565b7f9f2df0fed2c77648de5860a4cc508cd0818c85b8b8a1ab4ceeef8d981c8956a66114c1816117cb565b600082116115055760405162461bcd60e51b81526020600482015260116024820152700415554483a207a65726f20746f702d757607c1b60448201526064016109a9565b336000908152602081905260409020548211156115645760405162461bcd60e51b815260206004820152601a60248201527f415554483a20696e73756666696369656e742062616c616e636500000000000060448201526064016109a9565b61156f3330846116d2565b5050565b30600090815260208190526040812054600854811161159457600091505090565b6008546115a19082611de2565b91505090565b60006008546000036115ba5750600a5490565b6000600b54426115ca9190611de2565b905060006115dd6301e133806064611df5565b600d546115f290670de0b6b3a7640000611df5565b6115fc9190611e0c565b90506116088183611df5565b600a546116159190611e2e565b9250505090565b600082815260056020526040902060010154611637816117cb565b610ea68383611869565b6000610889826107bb565b610edf8383836001611965565b6001600160a01b03838116600090815260016020908152604080832093861683529290522054600019811015610ea657818110156116c357604051637dc7a0d960e11b81526001600160a01b038416600482015260248101829052604481018390526064016109a9565b610ea684848484036000611965565b6001600160a01b0383166116fc57604051634b637e8f60e11b8152600060048201526024016109a9565b6001600160a01b0382166117265760405163ec442f0560e01b8152600060048201526024016109a9565b610edf838383611a3a565b60026007540361175457604051633ee5aeb560e01b815260040160405180910390fd5b6002600755565b60065460ff1615610ad05760405163d93c066560e01b815260040160405180910390fd5b60008061178a611573565b90508060000361179e576000915050610889565b6000818411156117ae57816117b0565b835b905080156117c3576117c33086836116d2565b949350505050565b610e7e8133611ab1565b60006117e183836111fc565b6118615760008381526005602090815260408083206001600160a01b03861684529091529020805460ff191660011790556118193390565b6001600160a01b0316826001600160a01b0316847f2f8788117e7eff1d82e926ec794901d17c78024a50270940304540a733656f0d60405160405180910390a4506001610889565b506000610889565b600061187583836111fc565b156118615760008381526005602090815260408083206001600160a01b0386168085529252808320805460ff1916905551339286917ff6391f5c32d9c69d2a47ea670b442974b53935d1edc7fd64eb21e047a839171b9190a4506001610889565b6118de611aea565b6006805460ff191690557f5db9ee0a495bf2e6ff9c91a7834c1ba4fdd244a5e8aa4e537bd38aeae4b073aa335b6040516001600160a01b03909116815260200160405180910390a1565b61193061175b565b6006805460ff191660011790557f62e78cea01bee320cd4e420270b5ea74000d11b0c9f74754ebdbfc544b05a25861190b3390565b6001600160a01b03841661198f5760405163e602df0560e01b8152600060048201526024016109a9565b6001600160a01b0383166119b957604051634a1406b160e11b8152600060048201526024016109a9565b6001600160a01b0380851660009081526001602090815260408083209387168352929052208290558015610ea657826001600160a01b0316846001600160a01b03167f8c5be1e5ebec7d5bd14f71427d1e84f3dd0314c0f7b2291e5b200ac8c7c3b92584604051611a2c91815260200190565b60405180910390a350505050565b6001600160a01b03831615801590611a5b57506001600160a01b0382163014155b15611aa65760065460ff1615611aa65760405162461bcd60e51b815260206004820152601060248201526f14185d5cd8589b194e881c185d5cd95960821b60448201526064016109a9565b610edf838383611b0d565b611abb82826111fc565b61156f5760405163e2517d3f60e01b81526001600160a01b0382166004820152602481018390526044016109a9565b60065460ff16610ad057604051638dfc202b60e01b815260040160405180910390fd5b6001600160a01b038316611b38578060026000828254611b2d9190611e2e565b90915550611baa9050565b6001600160a01b03831660009081526020819052604090205481811015611b8b5760405163391434e360e21b81526001600160a01b038516600482015260248101829052604481018390526064016109a9565b6001600160a01b03841660009081526020819052604090209082900390555b6001600160a01b038216611bc657600280548290039055611be5565b6001600160a01b03821660009081526020819052604090208054820190555b816001600160a01b0316836001600160a01b03167fddf252ad1be2c89b69c2b068fc378daa952ba7f163c4a11628f55a4df523b3ef83604051611c2a91815260200190565b60405180910390a3505050565b6001600160a01b0381168114610e7e57600080fd5b600060208284031215611c5e57600080fd5b8135611c6981611c37565b9392505050565b600060208284031215611c8257600080fd5b81356001600160e01b031981168114611c6957600080fd5b600060208083528351808285015260005b81811015611cc757858101830151858201604001528201611cab565b506000604082860101526040601f19601f8301168501019250505092915050565b60008060408385031215611cfb57600080fd5b8235611d0681611c37565b946020939093013593505050565b600080600060608486031215611d2957600080fd5b8335611d3481611c37565b92506020840135611d4481611c37565b929592945050506040919091013590565b600060208284031215611d6757600080fd5b5035919050565b60008060408385031215611d8157600080fd5b823591506020830135611d9381611c37565b809150509250929050565b60008060408385031215611db157600080fd5b8235611dbc81611c37565b91506020830135611d9381611c37565b634e487b7160e01b600052601160045260246000fd5b8181038181111561088957610889611dcc565b808202811582820484141761088957610889611dcc565b600082611e2957634e487b7160e01b600052601260045260246000fd5b500490565b8082018082111561088957610889611dcc565b600181811c90821680611e5557607f821691505b602082108103611e7557634e487b7160e01b600052602260045260246000fd5b5091905056fe7fc4727e062e336010f2c282598ef5f14facb3de68cf8195c2f23e1454b2b74ea26469706673582212203c91ba7ef1d6d33e5674201b5ee557dfd2d4c4eb9a22fe1217b3552268d00dbc64736f6c63430008140033",
  "linkReferences": {},
  "deployedLinkReferences": {}
}