{
  "_format": "hh-sol-artifact-1",
  "contractName": "AuthToken",
  "sourceName": "contracts/AuthToken.sol",
  "abi": [
    {
      "inputs": [],
      "stateMutability": "nonpayable",
      "type": "constructor"
    },
    {
      "inputs": [],
      "name": "AccessControlBadConfirmation",
      "type": "error"
    },
    {
      "inputs": [
        {
          "internalType": "address",
          "name": "account",
          "type": "address"
        },
        {
          "internalType": "bytes32",
          "name": "neededRole",
          "type": "bytes32"
        }
      ],
      "name": "AccessControlUnauthorizedAccount",
      "type": "error"
    },
    {
      "inputs": [
        {
          "internalType": "address",
          "name": "spender",
          "type": "address"
        },
        {
          "internalType": "uint256",
          "name": "allowance",
          "type": "uint256"
        },
        {
          "internalType": "uint256",
          "name": "needed",
          "type": "uint256"
        }
      ],
      "name": "ERC20InsufficientAllowance",
      "type": "error"
    },
    {
      "inputs": [
        {
          "internalType": "address",
          "name": "sender",
          "type": "address"
        },
        {
          "internalType": "uint256",
          "name": "balance",
          "type": "uint256"
        },
        {
          "internalType": "uint256",
          "name": "needed",
          "type": "uint256"
        }
      ],
      "name": "ERC20InsufficientBalance",
      "type": "error"
    },
    {
      "inputs": [
        {
          "internalType": "address",
          "name": "approver",
          "type": "address"
        }
      ],
      "name": "ERC20InvalidApprover",
      "type": "error"
    },
    {
      "inputs": [
        {
          "internalType": "address",
          "name": "receiver",
          "type": "address"
        }
      ],
      "name": "ERC20InvalidReceiver",
      "type": "error"
    },
    {
      "inputs": [
        {
          "internalType": "address",
          "name": "sender",
          "type": "address"
        }
      ],
      "name": "ERC20InvalidSender",
      "type": "error"
    },
    {
      "inputs": [
        {
          "internalType": "address",
          "name": "spender",
          "type": "address"
        }
      ],
      "name": "ERC20InvalidSpender",
      "type": "error"
    },
    {
      "inputs": [],
      "name": "EnforcedPause",
      "type": "error"
    },
    {
      "inputs": [],
      "name": "ExpectedPause",
      "type": "error"
    },
    {
      "inputs": [],
      "name": "ReentrancyGuardReentrantCall",
      "type": "error"
    },
    {
      "anonymous": false,
      "inputs": [
        {
          "indexed": true,
          "internalType": "address",
          "name": "owner",
          "type": "address"
        },
        {
          "indexed": true,
          "internalType": "address",
          "name": "spender",
          "type": "address"
        },
        {
          "indexed": false,
          "internalType": "uint256",
          "name": "value",
          "type": "uint256"
        }
      ],
      "name": "Approval",
      "type": "event"
    },
    {
      "anonymous": false,
      "inputs": [
        {
          "indexed": false,
          "internalType": "address",
          "name": "account",
          "type": "address"
        }
      ],
      "name": "Paused",
      "type": "event"
    },
    {
      "anonymous": false,
      "inputs": [
        {
          "indexed": true,
          "internalType": "address",
          "name": "user",
          "type": "address"
        },
        {
          "indexed": false,
          "internalType": "uint256",
          "name": "reward",
          "type": "uint256"
        }
      ],
      "name": "RewardClaimed",
      "type": "event"
    },
    {
      "anonymous": false,
      "inputs": [
        {
          "indexed": true,
          "internalType": "bytes32",
          "name": "role",
          "type": "bytes32"
        },
        {
          "indexed": true,
          "internalType": "bytes32",
          "name": "previousAdminRole",
          "type": "bytes32"
        },
        {
          "indexed": true,
          "internalType": "bytes32",
          "name": "newAdminRole",
          "type": "bytes32"
        }
      ],
      "name": "RoleAdminChanged",
      "type": "event"
    },
    {
      "anonymous": false,
      "inputs": [
        {
          "indexed": true,
          "internalType": "bytes32",
          "name": "role",
          "type": "bytes32"
        },
        {
          "indexed": true,
          "internalType": "address",
          "name": "account",
          "type": "address"
        },
        {
          "indexed": true,
          "internalType": "address",
          "name": "sender",
          "type": "address"
        }
      ],
      "name": "RoleGranted",
      "type": "event"
    },
    {
      "anonymous": false,
      "inputs": [
        {
          "indexed": true,
          "internalType": "bytes32",
          "name": "role",
          "type": "bytes32"
        },
        {
          "indexed": true,
          "internalType": "address",
          "name": "account",
          "type": "address"
        },
        {
          "indexed": true,
          "internalType": "address",
          "name": "sender",
          "type": "address"
        }
      ],
      "name": "RoleRevoked",
      "type": "event"
    },
    {
      "anonymous": false,
      "inputs": [
        {
          "indexed": true,
          "internalType": "address",
          "name": "user",
          "type": "address"
        },
        {
          "indexed": false,
          "internalType": "uint256",
          "name": "amount",
          "type": "uint256"
        },
        {
          "indexed": false,
          "internalType": "uint256",
          "name": "unlockAt",
          "type": "uint256"
        }
      ],
      "name": "Staked",
      "type": "event"
    },
    {
      "anonymous": false,
      "inputs": [
        {
          "indexed": true,
          "internalType": "address",
          "name": "from",
          "type": "address"
        },
        {
          "indexed": true,
          "internalType": "address",
          "name": "to",
          "type": "address"
        },
        {
          "indexed": false,
          "internalType": "uint256",
          "name": "value",
          "type": "uint256"
        }
      ],
      "name": "Transfer",
      "type": "event"
    },
    {
      "anonymous": false,
      "inputs": [
        {
          "indexed": false,
          "internalType": "address",
          "name": "account",
          "type": "address"
        }
      ],
      "name": "Unpaused",
      "type": "event"
    },
    {
      "anonymous": false,
      "inputs": [
        {
          "indexed": true,
          "internalType": "address",
          "name": "user",
          "type": "address"
        },
        {
          "indexed": false,
          "internalType": "uint256",
          "name": "amount",
          "type": "uint256"
        },
        {
          "indexed": false,
          "internalType": "uint256",
          "name": "reward",
          "type": "uint256"
        }
      ],
      "name": "Unstaked",
      "type": "event"
    },
    {
      "inputs": [],
      "name": "DEFAULT_ADMIN_ROLE",
      "outputs": [
        {
          "internalType": "bytes32",
          "name": "",
          "type": "bytes32"
        }
      ],
      "stateMutability": "view",
      "type": "function"
    },
    {
      "inputs": [],
      "name": "MAX_APY_PERCENT",
      "outputs": [
        {
          "internalType": "uint256",
          "name": "",
          "type": "uint256"
        }
      ],
      "stateMutability": "view",
      "type": "function"
    },
    {
      "inputs": [],
      "name": "MAX_SUPPLY",
      "outputs": [
        {
          "internalType": "uint256",
          "name": "",
          "type": "uint256"
        }
      ],
      "stateMutability": "view",
      "type": "function"
    },
    {
      "inputs": [],
      "name": "MINTER_ROLE",
      "outputs": [
        {
          "internalType": "bytes32",
          "name": "",
          "type": "bytes32"
        }
      ],
      "stateMutability": "view",
      "type": "function"
    },
    {
      "inputs": [],
      "name": "SECONDS_PER_YEAR",
      "outputs": [
        {
          "internalType": "uint256",
          "name": "",
          "type": "uint256"
        }
      ],
      "stateMutability": "view",
      "type": "function"
    },
    {
      "inputs": [
        {
          "internalType": "address",
          "name": "owner",
          "type": "address"
        },
        {
          "internalType": "address",
          "name": "spender",
          "type": "address"
        }
      ],
      "name": "allowance",
      "outputs": [
        {
          "internalType": "uint256",
          "name": "",
          "type": "uint256"
        }
      ],
      "stateMutability": "view",
      "type": "function"
    },
    {
      "inputs": [
        {
          "internalType": "address",
          "name": "spender",
          "type": "address"
        },
        {
          "internalType": "uint256",
          "name": "value",
          "type": "uint256"
        }
      ],
      "name": "approve",
      "outputs": [
        {
          "internalType": "bool",
          "name": "",
          "type": "bool"
        }
      ],
      "stateMutability": "nonpayable",
      "type": "function"
    },
    {
      "inputs": [],
      "name": "availableRewardPool",
      "outputs": [
        {
          "internalType": "uint256",
          "name": "",
          "type": "uint256"
        }
      ],
      "stateMutability": "view",
      "type": "function"
    },
    {
      "inputs": [
        {
          "internalType": "address",
          "name": "account",
          "type": "address"
        }
      ],
      "name": "balanceOf",
      "outputs": [
        {
          "internalType": "uint256",
          "name": "",
          "type": "uint256"
        }
      ],
      "stateMutability": "view",
      "type": "function"
    },
    {
      "inputs": [],
      "name": "claimRewards",
      "outputs": [],
      "stateMutability": "nonpayable",
      "type": "function"
    },
    {
      "inputs": [],
      "name": "decimals",
      "outputs": [
        {
          "internalType": "uint8",
          "name": "",
          "type": "uint8"
        }
      ],
      "stateMutability": "view",
      "type": "function"
    },
    {
      "inputs": [
        {
          "internalType": "address",
          "name": "account",
          "type": "address"
        }
      ],
      "name": "earned",
      "outputs": [
        {
          "internalType": "uint256",
          "name": "",
          "type": "uint256"
        }
      ],
      "stateMutability": "view",
      "type": "function"
    },
    {
      "inputs": [
        {
          "internalType": "bytes32",
          "name": "role",
          "type": "bytes32"
        }
      ],
      "name": "getRoleAdmin",
      "outputs": [
        {
          "internalType": "bytes32",
          "name": "",
          "type": "bytes32"
        }
      ],
      "stateMutability": "view",
      "type": "function"
    },
    {
      "inputs": [
        {
          "internalType": "bytes32",
          "name": "role",
          "type": "bytes32"
        },
        {
          "internalType": "address",
          "name": "account",
          "type": "address"
        }
      ],
      "name": "grantRole",
      "outputs": [],
      "stateMutability": "nonpayable",
      "type": "function"
    },
    {
      "inputs": [
        {
          "internalType": "bytes32",
          "name": "role",
          "type": "bytes32"
        },
        {
          "internalType": "address",
          "name": "account",
          "type": "address"
        }
      ],
      "name": "hasRole",
      "outputs": [
        {
          "internalType": "bool",
          "name": "",
          "type": "bool"
        }
      ],
      "stateMutability": "view",
      "type": "function"
    },
    {
      "inputs": [],
      "name": "lastUpdateTime",
      "outputs": [
        {
          "internalType": "uint256",
          "name": "",
          "type": "uint256"
        }
      ],
      "stateMutability": "view",
      "type": "function"
    },
    {
      "inputs": [],
      "name": "lockPeriod",
      "outputs": [
        {
          "internalType": "uint256",
          "name": "",
          "type": "uint256"
        }
      ],
      "stateMutability": "view",
      "type": "function"
    },
    {
      "inputs": [],
      "name": "name",
      "outputs": [
        {
          "internalType": "string",
          "name": "",
          "type": "string"
        }
      ],
      "stateMutability": "view",
      "type": "function"
    },
    {
      "inputs": [],
      "name": "pause",
      "outputs": [],
      "stateMutability": "nonpayable",
      "type": "function"
    },
    {
      "inputs": [],
      "name": "paused",
      "outputs": [
        {
          "internalType": "bool",
          "name": "",
          "type": "bool"
        }
      ],
      "stateMutability": "view",
      "type": "function"
    },
    {
      "inputs": [
        {
          "internalType": "address",
          "name": "user",
          "type": "address"
        }
      ],
      "name": "pendingReward",
      "outputs": [
        {
          "internalType": "uint256",
          "name": "",
          "type": "uint256"
        }
      ],
      "stateMutability": "view",
      "type": "function"
    },
    {
      "inputs": [
        {
          "internalType": "bytes32",
          "name": "role",
          "type": "bytes32"
        },
        {
          "internalType": "address",
          "name": "callerConfirmation",
          "type": "address"
        }
      ],
      "name": "renounceRole",
      "outputs": [],
      "stateMutability": "nonpayable",
      "type": "function"
    },
    {
      "inputs": [
        {
          "internalType": "bytes32",
          "name": "role",
          "type": "bytes32"
        },
        {
          "internalType": "address",
          "name": "account",
          "type": "address"
        }
      ],
      "name": "revokeRole",
      "outputs": [],
      "stateMutability": "nonpayable",
      "type": "function"
    },
    {
      "inputs": [],
      "name": "rewardPerToken",
      "outputs": [
        {
          "internalType": "uint256",
          "name": "",
          "type": "uint256"
        }
      ],
      "stateMutability": "view",
      "type": "function"
    },
    {
      "inputs": [],
      "name": "rewardPerTokenStored",
      "outputs": [
        {
          "internalType": "uint256",
          "name": "",
          "type": "uint256"
        }
      ],
      "stateMutability": "view",
      "type": "function"
    },
    {
      "inputs": [],
      "name": "rewardRate",
      "outputs": [
        {
          "internalType": "uint256",
          "name": "",
          "type": "uint256"
        }
      ],
      "stateMutability": "view",
      "type": "function"
    },
    {
      "inputs": [
        {
          "internalType": "uint256",
          "name": "newLockPeriod",
          "type": "uint256"
        }
      ],
      "name": "setLockPeriod",
      "outputs": [],
      "stateMutability": "nonpayable",
      "type": "function"
    },
    {
      "inputs": [
        {
          "internalType": "uint256",
          "name": "newRatePercent",
          "type": "uint256"
        }
      ],
      "name": "setRewardRate",
      "outputs": [],
      "stateMutability": "nonpayable",
      "type": "function"
    },
    {
      "inputs": [
        {
          "internalType": "uint256",
          "name": "amount",
          "type": "uint256"
        }
      ],
      "name": "stake",
      "outputs": [],
      "stateMutability": "nonpayable",
      "type": "function"
    },
    {
      "inputs": [
        {
          "internalType": "address",
          "name": "",
          "type": "address"
        }
      ],
      "name": "stakes",
      "outputs": [
        {
          "internalType": "uint256",
          "name": "amount",
          "type": "uint256"
        },
        {
          "internalType": "uint256",
          "name": "unlockAt",
          "type": "uint256"
        },
        {
          "internalType": "uint256",
          "name": "userRewardPerTokenPaid",
          "type": "uint256"
        },
        {
          "internalType": "uint256",
          "name": "rewards",
          "type": "uint256"
        }
      ],
      "stateMutability": "view",
      "type": "function"
    },
    {
      "inputs": [
        {
          "internalType": "bytes4",
          "name": "interfaceId",
          "type": "bytes4"
        }
      ],
      "name": "supportsInterface",
      "outputs": [
        {
          "internalType": "bool",
          "name": "",
          "type": "bool"
        }
      ],
      "stateMutability": "view",
      "type": "function"
    },
    {
      "inputs": [],
      "name": "symbol",
      "outputs": [
        {
          "internalType": "string",
          "name": "",
          "type": "string"
        }
      ],
      "stateMutability": "view",
      "type": "function"
    },
    {
      "inputs": [
        {
          "internalType": "uint256",
          "name": "amount",
          "type": "uint256"
        }
      ],
      "name": "topUpRewards",
      "outputs": [],
      "stateMutability": "nonpayable",
      "type": "function"
    },
    {
      "inputs": [],
      "name": "totalStaked",
      "outputs": [
        {
          "internalType": "uint256",
          "name": "",
          "type": "uint256"
        }
      ],
      "stateMutability": "view",
      "type": "function"
    },
    {
      "inputs": [],
      "name": "totalSupply",
      "outputs": [
        {
          "internalType": "uint256",
          "name": "",
          "type": "uint256"
        }
      ],
      "stateMutability": "view",
      "type": "function"
    },
    {
      "inputs": [
        {
          "internalType": "address",
          "name": "to",
          "type": "address"
        },
        {
          "internalType": "uint256",
          "name": "value",
          "type": "uint256"
        }
      ],
      "name": "transfer",
      "outputs": [
        {
          "internalType": "bool",
          "name": "",
          "type": "bool"
        }
      ],
      "stateMutability": "nonpayable",
      "type": "function"
    },
    {
      "inputs": [
        {
          "internalType": "address",
          "name": "from",
          "type": "address"
        },
        {
          "internalType": "address",
          "name": "to",
          "type": "address"
        },
        {
          "internalType": "uint256",
          "name": "value",
          "type": "uint256"
        }
      ],
      "name": "transferFrom",
      "outputs": [
        {
          "internalType": "bool",
          "name": "",
          "type": "bool"
        }
      ],
      "stateMutability": "nonpayable",
      "type": "function"
    },
    {
      "inputs": [],
      "name": "unpause",
      "outputs": [],
      "stateMutability": "nonpayable",
      "type": "function"
    },
    {
      "inputs": [],
      "name": "unstake",
      "outputs": [],
      "stateMutability": "nonpayable",
      "type": "function"
    },
    {
      "inputs": [
        {
          "internalType": "uint256",
          "name": "amount",
          "type": "uint256"
        }
      ],
      "name": "unstake",
      "outputs": [],
      "stateMutability": "nonpayable",
      "type": "function"
    }
  ],
  "bytecode": "0x60806040526008600d5562093a80600e553480156200001d57600080fd5b506040518060400160405280600a81526020016920baba34102a37b5b2b760b11b81525060405180604001604052806004815260200163082aaa8960e31b81525081600390816200006f9190620004af565b5060046200007e8282620004af565b5050600160075550620000936000336200015d565b50620000c07f9f2df0fed2c77648de5860a4cc508cd0818c85b8b8a1ab4ceeef8d981c8956a6336200015d565b5042600b55620000f7336064620000e56b033b2e3c9fd0803ce8000000602862000591565b620000f19190620005ab565b62000210565b62000117306064620000e56b033b2e3c9fd0803ce8000000601e62000591565b62000137336064620000e56b033b2e3c9fd0803ce8000000601462000591565b62000157336064620000e56b033b2e3c9fd0803ce8000000600a62000591565b620005e4565b60008281526005602090815260408083206001600160a01b038516845290915281205460ff16620002065760008381526005602090815260408083206001600160a01b03861684529091529020805460ff19166001179055620001bd3390565b6001600160a01b0316826001600160a01b0316847f2f8788117e7eff1d82e926ec794901d17c78024a50270940304540a733656f0d60405160405180910390a45060016200020a565b5060005b92915050565b8060096000828254620002249190620005ce565b90915550506009546b033b2e3c9fd0803ce80000001015620002825760405162461bcd60e51b8152602060048201526012602482015271105555120e8818d85c08195e18d95959195960721b60448201526064015b60405180910390fd5b6200028e828262000292565b5050565b6001600160a01b038216620002be5760405163ec442f0560e01b81526000600482015260240162000279565b6200028e60008383620002d3838383620002d8565b505050565b6001600160a01b03831662000307578060026000828254620002fb9190620005ce565b909155506200037b9050565b6001600160a01b038316600090815260208190526040902054818110156200035c5760405163391434e360e21b81526001600160a01b0385166004820152602481018290526044810183905260640162000279565b6001600160a01b03841660009081526020819052604090209082900390555b6001600160a01b0382166200039957600280548290039055620003b8565b6001600160a01b03821660009081526020819052604090208054820190555b816001600160a01b0316836001600160a01b03167fddf252ad1be2c89b69c2b068fc378daa952ba7f163c4a11628f55a4df523b3ef83604051620003fe91815260200190565b60405180910390a3505050565b634e487b7160e01b600052604160045260246000fd5b600181811c908216806200043657607f821691505b6020821081036200045757634e487b7160e01b600052602260045260246000fd5b50919050565b601f821115620002d357600081815260208120601f850160051c81016020861015620004865750805b601f850160051c820191505b81811015620004a75782815560010162000492565b505050505050565b81516001600160401b03811115620004cb57620004cb6200040b565b620004e381620004dc845462000421565b846200045d565b602080601f8311600181146200051b5760008415620005025750858301515b600019600386901b1c1916600185901b178555620004a7565b600085815260208120601f198616915b828110156200054c578886015182559484019460019091019084016200052b565b50858210156200056b5787850151600019600388901b60f8161c191681555b5050505050600190811b01905550565b634e487b7160e01b600052601160045260246000fd5b80820281158282048414176200020a576200020a6200057b565b600082620005c957634e487b7160e01b600052601260045260246000fd5b500490565b808201808211156200020a576200020a6200057b565b61197980620005f46000396000f3fe608060405234801561001057600080fd5b50600436106102475760003560e01c8063779972da1161013b578063bc58d795116100b8578063d547741f1161007c578063d547741f146104e6578063dd62ed3e146104f9578063df136d6514610532578063e6a69ab81461053b578063f40f0f521461054657600080fd5b8063bc58d79514610493578063c8f33c91146104a6578063c96e616c146104af578063cd3daf9d146104b7578063d5391393146104bf57600080fd5b806395d89b41116100ff57806395d89b411461044a5780639e447fc614610452578063a217fddf14610465578063a694fc3a1461046d578063a9059cbb1461048057600080fd5b8063779972da1461040a5780637b0a47ee1461041d578063817b1cd2146104265780638456cb591461042f57806391d148541461043757600080fd5b80632e17de78116101c9578063372500ab1161018d578063372500ab146103bd5780633f4ba83a146103c55780633fd8b02f146103cd5780635c975abb146103d657806370a08231146103e157600080fd5b80632e17de78146103625780632f2ff15d14610375578063313ce5671461038857806332cb6b0c1461039757806336568abe146103aa57600080fd5b806316934fc41161021057806316934fc4146102c557806318160ddd1461031a57806323b872dd14610322578063248a9ca3146103355780632def66201461035857600080fd5b80628cc2621461024c57806301ffc9a71461027257806306fdde0314610295578063079f291c146102aa578063095ea7b3146102b2575b600080fd5b61025f61025a366004611705565b610559565b6040519081526020015b60405180910390f35b610285610280366004611727565b6105f6565b6040519015158152602001610269565b61029d61062d565b6040516102699190611751565b61025f601481565b6102856102c036600461179f565b6106bf565b6102fa6102d3366004611705565b600c6020526000908152604090208054600182015460028301546003909301549192909184565b604080519485526020850193909352918301526060820152608001610269565b60025461025f565b6102856103303660046117c9565b6106d7565b61025f610343366004611805565b60009081526005602052604090206001015490565b6103606106fb565b005b610360610370366004611805565b6108a0565b61036061038336600461181e565b610ab1565b60405160128152602001610269565b61025f6b033b2e3c9fd0803ce800000081565b6103606103b836600461181e565b610adc565b610360610b14565b610360610c2e565b61025f600e5481565b60065460ff16610285565b61025f6103ef366004611705565b6001600160a01b031660009081526020819052604090205490565b610360610418366004611805565b610c41565b61025f600d5481565b61025f60085481565b610360610c9b565b61028561044536600461181e565b610cae565b61029d610cd9565b610360610460366004611805565b610ce8565b61025f600081565b61036061047b366004611805565b610d8e565b61028561048e36600461179f565b610f3b565b6103606104a1366004611805565b610f49565b61025f600b5481565b61025f611025565b61025f611059565b61025f7f9f2df0fed2c77648de5860a4cc508cd0818c85b8b8a1ab4ceeef8d981c8956a681565b6103606104f436600461181e565b6110ce565b61025f61050736600461184a565b6001600160a01b03918216600090815260016020908152604080832093909416825291909152205490565b61025f600a5481565b61025f6301e1338081565b61025f610554366004611705565b6110f3565b6001600160a01b0381166000908152600c60209081526040808320815160808101835281548152600182015493810193909352600281015491830182905260030154606083015282906105aa611059565b6105b4919061188a565b90506000670de0b6b3a76400008284600001516105d1919061189d565b6105db91906118b4565b90508083606001516105ed91906118d6565b95945050505050565b60006001600160e01b03198216637965db0b60e01b148061062757506301ffc9a760e01b6001600160e01b03198316145b92915050565b60606003805461063c906118e9565b80601f0160208091040260200160405190810160405280929190818152602001828054610668906118e9565b80156106b55780601f1061068a576101008083540402835291602001916106b5565b820191906000526020600020905b81548152906001019060200180831161069857829003601f168201915b5050505050905090565b6000336106cd8185856110fe565b5060019392505050565b6000336106e585828561110b565b6106f0858585611184565b506001949350505050565b6107036111e3565b61070b611207565b33610714611059565b600a5542600b556001600160a01b0381161561075d5761073381610559565b6001600160a01b0382166000908152600c602052604090206003810191909155600a546002909101555b336000908152600c602052604090208054806107ab5760405162461bcd60e51b81526020600482015260086024820152674e6f207374616b6560c01b60448201526064015b60405180910390fd5b81600101544210156107ee5760405162461bcd60e51b815260206004820152600c60248201526b14dd1a5b1b081b1bd8dad95960a21b60448201526064016107a2565b60008083556008805483929061080590849061188a565b909155506108169050303383611184565b60038201548015610866576000600384018190556108343383611231565b60408051858152602081018390529192503391600080516020611924833981519152910160405180910390a250610890565b60408051838152600060208201523391600080516020611924833981519152910160405180910390a25b5050505061089e6001600755565b565b6108a86111e3565b6108b0611207565b336108b9611059565b600a5542600b556001600160a01b03811615610902576108d881610559565b6001600160a01b0382166000908152600c602052604090206003810191909155600a546002909101555b600082116109465760405162461bcd60e51b8152602060048201526011602482015270105555120e881e995c9bc8185b5bdd5b9d607a1b60448201526064016107a2565b336000908152600c6020526040902080548311156109a65760405162461bcd60e51b815260206004820152601960248201527f415554483a20696e73756666696369656e74207374616b65640000000000000060448201526064016107a2565b80600101544210156109e95760405162461bcd60e51b815260206004820152600c60248201526b14dd1a5b1b081b1bd8dad95960a21b60448201526064016107a2565b828160000160008282546109fd919061188a565b925050819055508260086000828254610a16919061188a565b90915550610a279050303385611184565b60038101548015610a7757600060038301819055610a453383611231565b60408051878152602081018390529192503391600080516020611924833981519152910160405180910390a250610aa1565b60408051858152600060208201523391600080516020611924833981519152910160405180910390a25b505050610aae6001600755565b50565b600082815260056020526040902060010154610acc8161127d565b610ad68383611287565b50505050565b6001600160a01b0381163314610b055760405163334bd91960e11b815260040160405180910390fd5b610b0f828261131b565b505050565b610b1c6111e3565b610b24611207565b33610b2d611059565b600a5542600b556001600160a01b03811615610b7657610b4c81610559565b6001600160a01b0382166000908152600c602052604090206003810191909155600a546002909101555b336000908152600c602052604090206003015480610bc35760405162461bcd60e51b815260206004820152600a6024820152694e6f207265776172647360b01b60448201526064016107a2565b336000818152600c6020526040812060030181905590610be39083611231565b90508015610c215760405181815233907f106f923f993c2149d49b4255ff723acafa1f2d94393f561d3eda32ae348f72419060200160405180910390a25b50505061089e6001600755565b6000610c398161127d565b610aae611388565b6000610c4c8161127d565b6276a700821115610c955760405162461bcd60e51b8152602060048201526013602482015272415554483a206c6f636b20746f6f206c6f6e6760681b60448201526064016107a2565b50600e55565b6000610ca68161127d565b610aae6113da565b60009182526005602090815260408084206001600160a01b0393909316845291905290205460ff1690565b60606004805461063c906118e9565b6000610cf38161127d565b6000610cfd611059565b600a5542600b556001600160a01b03811615610d4657610d1c81610559565b6001600160a01b0382166000908152600c602052604090206003810191909155600a546002909101555b6014831115610d875760405162461bcd60e51b815260206004820152600d60248201526c0a4c2e8ca40e8dede40d0d2ced609b1b60448201526064016107a2565b5050600d55565b610d966111e3565b610d9e611207565b33610da7611059565b600a5542600b556001600160a01b03811615610df057610dc681610559565b6001600160a01b0382166000908152600c602052604090206003810191909155600a546002909101555b60008211610e2b5760405162461bcd60e51b81526020600482015260086024820152670416d6f756e743d360c41b60448201526064016107a2565b33600090815260208190526040902054821115610e8a5760405162461bcd60e51b815260206004820152601a60248201527f415554483a20696e73756666696369656e742062616c616e636500000000000060448201526064016107a2565b610e95333084611184565b336000908152600c60205260408120805490918491839190610eb89084906118d6565b9091555050600e54610eca90426118d6565b81600101819055508260086000828254610ee491906118d6565b9091555050600181015460405133917f1449c6dd7851abc30abf37f57715f492010519147cc2652fbc38202c18a6ee9091610f2791878252602082015260400190565b60405180910390a25050610aae6001600755565b6000336106cd818585611184565b7f9f2df0fed2c77648de5860a4cc508cd0818c85b8b8a1ab4ceeef8d981c8956a6610f738161127d565b60008211610fb75760405162461bcd60e51b81526020600482015260116024820152700415554483a207a65726f20746f702d757607c1b60448201526064016107a2565b336000908152602081905260409020548211156110165760405162461bcd60e51b815260206004820152601a60248201527f415554483a20696e73756666696369656e742062616c616e636500000000000060448201526064016107a2565b611021333084611184565b5050565b30600090815260208190526040812054600854811161104657600091505090565b600854611053908261188a565b91505090565b600060085460000361106c5750600a5490565b6000600b544261107c919061188a565b9050600061108f6301e13380606461189d565b600d546110a490670de0b6b3a764000061189d565b6110ae91906118b4565b90506110ba818361189d565b600a546110c791906118d6565b9250505090565b6000828152600560205260409020600101546110e98161127d565b610ad6838361131b565b600061062782610559565b610b0f8383836001611417565b6001600160a01b03838116600090815260016020908152604080832093861683529290522054600019811015610ad6578181101561117557604051637dc7a0d960e11b81526001600160a01b038416600482015260248101829052604481018390526064016107a2565b610ad684848484036000611417565b6001600160a01b0383166111ae57604051634b637e8f60e11b8152600060048201526024016107a2565b6001600160a01b0382166111d85760405163ec442f0560e01b8152600060048201526024016107a2565b610b0f8383836114ec565b60065460ff161561089e5760405163d93c066560e01b815260040160405180910390fd5b60026007540361122a57604051633ee5aeb560e01b815260040160405180910390fd5b6002600755565b60008061123c611025565b905080600003611250576000915050610627565b6000818411156112605781611262565b835b9050801561127557611275308683611184565b949350505050565b610aae8133611563565b60006112938383610cae565b6113135760008381526005602090815260408083206001600160a01b03861684529091529020805460ff191660011790556112cb3390565b6001600160a01b0316826001600160a01b0316847f2f8788117e7eff1d82e926ec794901d17c78024a50270940304540a733656f0d60405160405180910390a4506001610627565b506000610627565b60006113278383610cae565b156113135760008381526005602090815260408083206001600160a01b0386168085529252808320805460ff1916905551339286917ff6391f5c32d9c69d2a47ea670b442974b53935d1edc7fd64eb21e047a839171b9190a4506001610627565b61139061159c565b6006805460ff191690557f5db9ee0a495bf2e6ff9c91a7834c1ba4fdd244a5e8aa4e537bd38aeae4b073aa335b6040516001600160a01b03909116815260200160405180910390a1565b6113e26111e3565b6006805460ff191660011790557f62e78cea01bee320cd4e420270b5ea74000d11b0c9f74754ebdbfc544b05a2586113bd3390565b6001600160a01b0384166114415760405163e602df0560e01b8152600060048201526024016107a2565b6001600160a01b03831661146b57604051634a1406b160e11b8152600060048201526024016107a2565b6001600160a01b0380851660009081526001602090815260408083209387168352929052208290558015610ad657826001600160a01b0316846001600160a01b03167f8c5be1e5ebec7d5bd14f71427d1e84f3dd0314c0f7b2291e5b200ac8c7c3b925846040516114de91815260200190565b60405180910390a350505050565b6001600160a01b0383161580159061150d57506001600160a01b0382163014155b156115585760065460ff16156115585760405162461bcd60e51b815260206004820152601060248201526f14185d5cd8589b194e881c185d5cd95960821b60448201526064016107a2565b610b0f8383836115bf565b61156d8282610cae565b6110215760405163e2517d3f60e01b81526001600160a01b0382166004820152602481018390526044016107a2565b60065460ff1661089e57604051638dfc202b60e01b815260040160405180910390fd5b6001600160a01b0383166115ea5780600260008282546115df91906118d6565b9091555061165c9050565b6001600160a01b0383166000908152602081905260409020548181101561163d5760405163391434e360e21b81526001600160a01b038516600482015260248101829052604481018390526064016107a2565b6001600160a01b03841660009081526020819052604090209082900390555b6001600160a01b03821661167857600280548290039055611697565b6001600160a01b03821660009081526020819052604090208054820190555b816001600160a01b0316836001600160a01b03167fddf252ad1be2c89b69c2b068fc378daa952ba7f163c4a11628f55a4df523b3ef836040516116dc91815260200190565b60405180910390a3505050565b80356001600160a01b038116811461170057600080fd5b919050565b60006020828403121561171757600080fd5b611720826116e9565b9392505050565b60006020828403121561173957600080fd5b81356001600160e01b03198116811461172057600080fd5b600060208083528351808285015260005b8181101561177e57858101830151858201604001528201611762565b506000604082860101526040601f19601f8301168501019250505092915050565b600080604083850312156117b257600080fd5b6117bb836116e9565b946020939093013593505050565b6000806000606084860312156117de57600080fd5b6117e7846116e9565b92506117f5602085016116e9565b9150604084013590509250925092565b60006020828403121561181757600080fd5b5035919050565b6000806040838503121561183157600080fd5b82359150611841602084016116e9565b90509250929050565b6000806040838503121561185d57600080fd5b611866836116e9565b9150611841602084016116e9565b634e487b7160e01b600052601160045260246000fd5b8181038181111561062757610627611874565b808202811582820484141761062757610627611874565b6000826118d157634e487b7160e01b600052601260045260246000fd5b500490565b8082018082111561062757610627611874565b600181811c908216806118fd57607f821691505b60208210810361191d57634e487b7160e01b600052602260045260246000fd5b5091905056fe7fc4727e062e336010f2c282598ef5f14facb3de68cf8195c2f23e1454b2b74ea26469706673582212209036d54879ef3e9931dc0d0156497bbb49c35ef6f443436ec893550a3ca7608d64736f6c63430008140033",
  "linkReferences": {},
  "deployedLinkReferences": {}
}