{
  "_format": "hh-sol-artifact-1",
  "contractName": "DisputeResolution",
  "sourceName": "contracts/DisputeResolution.sol",
  "abi": [
    {
      "inputs": [
        {
          "internalType": "address",
          "name": "_productRegistry",
          "type": "address"
        },
        {
          "internalType": "address",
          "name": "_authToken",
          "type": "address"
        }
      ],
      "stateMutability": "nonpayable",
      "type": "constructor"
    },
    {
      "inputs": [],
      "name": "AccessControlBadConfirmation",
      "type": "error"
    },
    {
      "inputs": [
        {
          "internalType": "address",
          "name": "account",
          "type": "address"
        },
        {
          "internalType": "bytes32",
          "name": "neededRole",
          "type": "bytes32"
        }
      ],
      "name": "AccessControlUnauthorizedAccount",
      "type": "error"
    },
    {
      "inputs": [],
      "name": "EnforcedPause",
      "type": "error"
    },
    {
      "inputs": [],
      "name": "ExpectedPause",
      "type": "error"
    },
    {
      "inputs": [],
      "name": "ReentrancyGuardReentrantCall",
      "type": "error"
    },
    {
      "anonymous": false,
      "inputs": [
        {
          "indexed": false,
          "internalType": "string",
          "name": "parameter",
          "type": "string"
        },
        {
          "indexed": false,
          "internalType": "uint256",
          "name": "newValue",
          "type": "uint256"
        }
      ],
      "name": "ConfigUpdated",
      "type": "event"
    },
    {
      "anonymous": false,
      "inputs": [
        {
          "indexed": true,
          "internalType": "bytes32",
          "name": "disputeId",
          "type": "bytes32"
        },
        {
          "indexed": true,
          "internalType": "bytes32",
          "name": "productId",
          "type": "bytes32"
        },
        {
          "indexed": true,
          "internalType": "address",
          "name": "initiator",
          "type": "address"
        }
      ],
      "name": "DisputeCreated",
      "type": "event"
    },
    {
      "anonymous": false,
      "inputs": [
        {
          "indexed": true,
          "internalType": "bytes32",
          "name": "disputeId",
          "type": "bytes32"
        }
      ],
      "name": "DisputeExpired",
      "type": "event"
    },
    {
      "anonymous": false,
      "inputs": [
        {
          "indexed": true,
          "internalType": "bytes32",
          "name": "disputeId",
          "type": "bytes32"
        },
        {
          "indexed": false,
          "internalType": "bool",
          "name": "inFavor",
          "type": "bool"
        },
        {
          "indexed": false,
          "internalType": "uint256",
          "name": "refund",
          "type": "uint256"
        }
      ],
      "name": "DisputeResolved",
      "type": "event"
    },
    {
      "anonymous": false,
      "inputs": [
        {
          "indexed": true,
          "internalType": "bytes32",
          "name": "disputeId",
          "type": "bytes32"
        },
        {
          "indexed": true,
          "internalType": "address",
          "name": "voter",
          "type": "address"
        },
        {
          "indexed": false,
          "internalType": "bool",
          "name": "inFavor",
          "type": "bool"
        }
      ],
      "name": "DisputeVoted",
      "type": "event"
    },
    {
      "anonymous": false,
      "inputs": [
        {
          "indexed": false,
          "internalType": "address",
          "name": "account",
          "type": "address"
        }
      ],
      "name": "Paused",
      "type": "event"
    },
    {
      "anonymous": false,
      "inputs": [
        {
          "indexed": true,
          "internalType": "bytes32",
          "name": "role",
          "type": "bytes32"
        },
        {
          "indexed": true,
          "internalType": "bytes32",
          "name": "previousAdminRole",
          "type": "bytes32"
        },
        {
          "indexed": true,
          "internalType": "bytes32",
          "name": "newAdminRole",
          "type": "bytes32"
        }
      ],
      "name": "RoleAdminChanged",
      "type": "event"
    },
    {
      "anonymous": false,
      "inputs": [
        {
          "indexed": true,
          "internalType": "bytes32",
          "name": "role",
          "type": "bytes32"
        },
        {
          "indexed": true,
          "internalType": "address",
          "name": "account",
          "type": "address"
        },
        {
          "indexed": true,
          "internalType": "address",
          "name": "sender",
          "type": "address"
        }
      ],
      "name": "RoleGranted",
      "type": "event"
    },
    {
      "anonymous": false,
      "inputs": [
        {
          "indexed": true,
          "internalType": "bytes32",
          "name": "role",
          "type": "bytes32"
        },
        {
          "indexed": true,
          "internalType": "address",
          "name": "account",
          "type": "address"
        },
        {
          "indexed": true,
          "internalType": "address",
          "name": "sender",
          "type": "address"
        }
      ],
      "name": "RoleRevoked",
      "type": "event"
    },
    {
      "anonymous": false,
      "inputs": [
        {
          "indexed": false,
          "internalType": "address",
          "name": "account",
          "type": "address"
        }
      ],
      "name": "Unpaused",
      "type": "event"
    },
    {
      "inputs": [],
      "name": "ARBITER_ROLE",
      "outputs": [
        {
          "internalType": "bytes32",
          "name": "",
          "type": "bytes32"
        }
      ],
      "stateMutability": "view",
      "type": "function"
    },
    {
      "inputs": [],
      "name": "DEFAULT_ADMIN_ROLE",
      "outputs": [
        {
          "internalType": "bytes32",
          "name": "",
          "type": "bytes32"
        }
      ],
      "stateMutability": "view",
      "type": "function"
    },
    {
      "inputs": [],
      "name": "authToken",
      "outputs": [
        {
          "internalType": "contract AuthToken",
          "name": "",
          "type": "address"
        }
      ],
      "stateMutability": "view",
      "type": "function"
    },
    {
      "inputs": [],
      "name": "bondAmount",
      "outputs": [
        {
          "internalType": "uint256",
          "name": "",
          "type": "uint256"
        }
      ],
      "stateMutability": "view",
      "type": "function"
    },
    {
      "inputs": [
        {
          "internalType": "bytes32",
          "name": "productId",
          "type": "bytes32"
        },
        {
          "internalType": "string",
          "name": "description",
          "type": "string"
        },
        {
          "internalType": "string",
          "name": "evidenceURI",
          "type": "string"
        }
      ],
      "name": "createDispute",
      "outputs": [],
      "stateMutability": "nonpayable",
      "type": "function"
    },
    {
      "inputs": [],
      "name": "disputeFee",
      "outputs": [
        {
          "internalType": "uint256",
          "name": "",
          "type": "uint256"
        }
      ],
      "stateMutability": "view",
      "type": "function"
    },
    {
      "inputs": [
        {
          "internalType": "uint256",
          "name": "",
          "type": "uint256"
        }
      ],
      "name": "disputeIds",
      "outputs": [
        {
          "internalType": "bytes32",
          "name": "",
          "type": "bytes32"
        }
      ],
      "stateMutability": "view",
      "type": "function"
    },
    {
      "inputs": [
        {
          "internalType": "bytes32",
          "name": "",
          "type": "bytes32"
        }
      ],
      "name": "disputes",
      "outputs": [
        {
          "internalType": "bytes32",
          "name": "disputeId",
          "type": "bytes32"
        },
        {
          "internalType": "bytes32",
          "name": "productId",
          "type": "bytes32"
        },
        {
          "internalType": "address",
          "name": "initiator",
          "type": "address"
        },
        {
          "internalType": "string",
          "name": "description",
          "type": "string"
        },
        {
          "internalType": "string",
          "name": "evidenceURI",
          "type": "string"
        },
        {
          "internalType": "enum DisputeResolution.DisputeStatus",
          "name": "status",
          "type": "uint8"
        },
        {
          "internalType": "uint64",
          "name": "createdAt",
          "type": "uint64"
        },
        {
          "internalType": "uint64",
          "name": "resolvedAt",
          "type": "uint64"
        },
        {
          "internalType": "uint8",
          "name": "votesFor",
          "type": "uint8"
        },
        {
          "internalType": "uint8",
          "name": "votesAgainst",
          "type": "uint8"
        },
        {
          "internalType": "bool",
          "name": "inFavor",
          "type": "bool"
        }
      ],
      "stateMutability": "view",
      "type": "function"
    },
    {
      "inputs": [
        {
          "internalType": "bytes32",
          "name": "disputeId",
          "type": "bytes32"
        }
      ],
      "name": "getDispute",
      "outputs": [
        {
          "components": [
            {
              "internalType": "bytes32",
              "name": "disputeId",
              "type": "bytes32"
            },
            {
              "internalType": "bytes32",
              "name": "productId",
              "type": "bytes32"
            },
            {
              "internalType": "address",
              "name": "initiator",
              "type": "address"
            },
            {
              "internalType": "string",
              "name": "description",
              "type": "string"
            },
            {
              "internalType": "string",
              "name": "evidenceURI",
              "type": "string"
            },
            {
              "internalType": "enum DisputeResolution.DisputeStatus",
              "name": "status",
              "type": "uint8"
            },
            {
              "internalType": "uint64",
              "name": "createdAt",
              "type": "uint64"
            },
            {
              "internalType": "uint64",
              "name": "resolvedAt",
              "type": "uint64"
            },
            {
              "internalType": "uint8",
              "name": "votesFor",
              "type": "uint8"
            },
            {
              "internalType": "uint8",
              "name": "votesAgainst",
              "type": "uint8"
            },
            {
              "internalType": "bool",
              "name": "inFavor",
              "type": "bool"
            }
          ],
          "internalType": "struct DisputeResolution.Dispute",
          "name": "",
          "type": "tuple"
        }
      ],
      "stateMutability": "view",
      "type": "function"
    },
    {
      "inputs": [],
      "name": "getDisputeCount",
      "outputs": [
        {
          "internalType": "uint256",
          "name": "",
          "type": "uint256"
        }
      ],
      "stateMutability": "view",
      "type": "function"
    },
    {
      "inputs": [
        {
          "internalType": "bytes32",
          "name": "role",
          "type": "bytes32"
        }
      ],
      "name": "getRoleAdmin",
      "outputs": [
        {
          "internalType": "bytes32",
          "name": "",
          "type": "bytes32"
        }
      ],
      "stateMutability": "view",
      "type": "function"
    },
    {
      "inputs": [
        {
          "internalType": "bytes32",
          "name": "role",
          "type": "bytes32"
        },
        {
          "internalType": "address",
          "name": "account",
          "type": "address"
        }
      ],
      "name": "grantRole",
      "outputs": [],
      "stateMutability": "nonpayable",
      "type": "function"
    },
    {
      "inputs": [
        {
          "internalType": "bytes32",
          "name": "role",
          "type": "bytes32"
        },
        {
          "internalType": "address",
          "name": "account",
          "type": "address"
        }
      ],
      "name": "hasRole",
      "outputs": [
        {
          "internalType": "bool",
          "name": "",
          "type": "bool"
        }
      ],
      "stateMutability": "view",
      "type": "function"
    },
    {
      "inputs": [
        {
          "internalType": "bytes32",
          "name": "",
          "type": "bytes32"
        },
        {
          "internalType": "address",
          "name": "",
          "type": "address"
        }
      ],
      "name": "hasVoted",
      "outputs": [
        {
          "internalType": "bool",
          "name": "",
          "type": "bool"
        }
      ],
      "stateMutability": "view",
      "type": "function"
    },
    {
      "inputs": [
        {
          "internalType": "bytes32",
          "name": "disputeId",
          "type": "bytes32"
        }
      ],
      "name": "markExpired",
      "outputs": [],
      "stateMutability": "nonpayable",
      "type": "function"
    },
    {
      "inputs": [],
      "name": "pause",
      "outputs": [],
      "stateMutability": "nonpayable",
      "type": "function"
    },
    {
      "inputs": [],
      "name": "paused",
      "outputs": [
        {
          "internalType": "bool",
          "name": "",
          "type": "bool"
        }
      ],
      "stateMutability": "view",
      "type": "function"
    },
    {
      "inputs": [],
      "name": "productRegistry",
      "outputs": [
        {
          "internalType": "contract ProductRegistry",
          "name": "",
          "type": "address"
        }
      ],
      "stateMutability": "view",
      "type": "function"
    },
    {
      "inputs": [
        {
          "internalType": "bytes32",
          "name": "role",
          "type": "bytes32"
        },
        {
          "internalType": "address",
          "name": "callerConfirmation",
          "type": "address"
        }
      ],
      "name": "renounceRole",
      "outputs": [],
      "stateMutability": "nonpayable",
      "type": "function"
    },
    {
      "inputs": [],
      "name": "requiredVotes",
      "outputs": [
        {
          "internalType": "uint8",
          "name": "",
          "type": "uint8"
        }
      ],
      "stateMutability": "view",
      "type": "function"
    },
    {
      "inputs": [
        {
          "internalType": "bytes32",
          "name": "role",
          "type": "bytes32"
        },
        {
          "internalType": "address",
          "name": "account",
          "type": "address"
        }
      ],
      "name": "revokeRole",
      "outputs": [],
      "stateMutability": "nonpayable",
      "type": "function"
    },
    {
      "inputs": [
        {
          "internalType": "uint256",
          "name": "newBond",
          "type": "uint256"
        }
      ],
      "name": "setBondAmount",
      "outputs": [],
      "stateMutability": "nonpayable",
      "type": "function"
    },
    {
      "inputs": [
        {
          "internalType": "uint256",
          "name": "newFee",
          "type": "uint256"
        }
      ],
      "name": "setDisputeFee",
      "outputs": [],
      "stateMutability": "nonpayable",
      "type": "function"
    },
    {
      "inputs": [
        {
          "internalType": "uint8",
          "name": "newVotes",
          "type": "uint8"
        }
      ],
      "name": "setRequiredVotes",
      "outputs": [],
      "stateMutability": "nonpayable",
      "type": "function"
    },
    {
      "inputs": [
        {
          "internalType": "uint64",
          "name": "newPeriod",
          "type": "uint64"
        }
      ],
      "name": "setVotingPeriod",
      "outputs": [],
      "stateMutability": "nonpayable",
      "type": "function"
    },
    {
      "inputs": [
        {
          "internalType": "bytes4",
          "name": "interfaceId",
          "type": "bytes4"
        }
      ],
      "name": "supportsInterface",
      "outputs": [
        {
          "internalType": "bool",
          "name": "",
          "type": "bool"
        }
      ],
      "stateMutability": "view",
      "type": "function"
    },
    {
      "inputs": [],
      "name": "unpause",
      "outputs": [],
      "stateMutability": "nonpayable",
      "type": "function"
    },
    {
      "inputs": [
        {
          "internalType": "bytes32",
          "name": "disputeId",
          "type": "bytes32"
        },
        {
          "internalType": "bool",
          "name": "inFavor",
          "type": "bool"
        }
      ],
      "name": "voteOnDispute",
      "outputs": [],
      "stateMutability": "nonpayable",
      "type": "function"
    },
    {
      "inputs": [],
      "name": "votingPeriod",
      "outputs": [
        {
          "internalType": "uint64",
          "name": "",
          "type": "uint64"
        }
      ],
      "stateMutability": "view",
      "type": "function"
    }
  ],
  "bytecode": "0x6080604052678ac7230489e80000600455674563918244f40000600555600680546001600160481b0319166303f480031790553480156200003f57600080fd5b5060405162001ec238038062001ec28339810160408190526200006291620001a9565b6001805562000073600033620000dd565b50620000a07fbb08418a67729a078f87bbc8d02a770929bb68f5bfdf134ae2ead6ed38e2f4ae33620000dd565b5060028054610100600160a81b0319166101006001600160a01b0394851602179055600380546001600160a01b03191691909216179055620001e1565b6000828152602081815260408083206001600160a01b038516845290915281205460ff1662000182576000838152602081815260408083206001600160a01b03861684529091529020805460ff19166001179055620001393390565b6001600160a01b0316826001600160a01b0316847f2f8788117e7eff1d82e926ec794901d17c78024a50270940304540a733656f0d60405160405180910390a450600162000186565b5060005b92915050565b80516001600160a01b0381168114620001a457600080fd5b919050565b60008060408385031215620001bd57600080fd5b620001c8836200018c565b9150620001d8602084016200018c565b90509250929050565b611cd180620001f16000396000f3fe608060405234801561001057600080fd5b50600436106101cf5760003560e01c80636f0920da11610104578063a217fddf116100a2578063bd31a4d811610071578063bd31a4d814610408578063d547741f14610427578063e4a091fc1461043a578063fff218c31461046557600080fd5b8063a217fddf146103b6578063aadc3b72146103be578063acc8a85f146103ec578063b9ce896b146103ff57600080fd5b80638456cb59116100de5780638456cb591461037557806387e0aeb21461037d5780638f80fbca1461039057806391d14854146103a357600080fd5b80636f0920da14610346578063771684381461035957806380f323a71461036c57600080fd5b806328f9f3e6116101715780633f4ba83a1161014b5780633f4ba83a146102f95780634d104adf146103015780635c975abb14610328578063686e60831461033357600080fd5b806328f9f3e6146102c05780632f2ff15d146102d357806336568abe146102e657600080fd5b806311be1997116101ad57806311be19971461023e578063136ba6aa1461026857806317299c0414610288578063248a9ca31461029d57600080fd5b806301ffc9a7146101d457806302a251a3146101fc57806310987b771461022c575b600080fd5b6101e76101e23660046116c6565b61047d565b60405190151581526020015b60405180910390f35b6006546102149061010090046001600160401b031681565b6040516001600160401b0390911681526020016101f3565b6009545b6040519081526020016101f3565b61025161024c3660046116f7565b6104b4565b6040516101f39b9a9998979695949392919061178e565b61027b6102763660046116f7565b610642565b6040516101f39190611826565b61029b6102963660046116f7565b61088d565b005b6102306102ab3660046116f7565b60009081526020819052604090206001015490565b61029b6102ce3660046116f7565b6108e7565b61029b6102e1366004611916565b610939565b61029b6102f4366004611916565b610964565b61029b61099c565b6102307fbb08418a67729a078f87bbc8d02a770929bb68f5bfdf134ae2ead6ed38e2f4ae81565b60025460ff166101e7565b61029b610341366004611960565b6109b2565b61029b6103543660046119cd565b610c62565b61029b610367366004611a46565b610f17565b61023060055481565b61029b610fcd565b61029b61038b3660046116f7565b610fe0565b61029b61039e366004611a69565b61111a565b6101e76103b1366004611916565b6111fb565b610230600081565b6101e76103cc366004611916565b600860209081526000928352604080842090915290825290205460ff1681565b6102306103fa3660046116f7565b611224565b61023060045481565b6006546104159060ff1681565b60405160ff90911681526020016101f3565b61029b610435366004611916565b611245565b60035461044d906001600160a01b031681565b6040516001600160a01b0390911681526020016101f3565b60025461044d9061010090046001600160a01b031681565b60006001600160e01b03198216637965db0b60e01b14806104ae57506301ffc9a760e01b6001600160e01b03198316145b92915050565b6007602052600090815260409020805460018201546002830154600384018054939492936001600160a01b0390921692916104ee90611a92565b80601f016020809104026020016040519081016040528092919081815260200182805461051a90611a92565b80156105675780601f1061053c57610100808354040283529160200191610567565b820191906000526020600020905b81548152906001019060200180831161054a57829003601f168201915b50505050509080600401805461057c90611a92565b80601f01602080910402602001604051908101604052809291908181526020018280546105a890611a92565b80156105f55780601f106105ca576101008083540402835291602001916105f5565b820191906000526020600020905b8154815290600101906020018083116105d857829003601f168201915b5050506005909301549192505060ff808216916001600160401b036101008204811692600160481b830490911691600160881b8104821691600160901b8204811691600160981b9004168b565b6040805161016080820183526000808352602080840182905283850182905260608085018190526080850181905260a0850183905260c0850183905260e085018390526101008501839052610120850183905261014085018390528683526007825291859020855193840186528054845260018101549184019190915260028101546001600160a01b03169483019490945260038401805493949293918401916106eb90611a92565b80601f016020809104026020016040519081016040528092919081815260200182805461071790611a92565b80156107645780601f1061073957610100808354040283529160200191610764565b820191906000526020600020905b81548152906001019060200180831161074757829003601f168201915b5050505050815260200160048201805461077d90611a92565b80601f01602080910402602001604051908101604052809291908181526020018280546107a990611a92565b80156107f65780601f106107cb576101008083540402835291602001916107f6565b820191906000526020600020905b8154815290600101906020018083116107d957829003601f168201915b505050918352505060058281015460209092019160ff169081111561081d5761081d611756565b600581111561082e5761082e611756565b8152600591909101546001600160401b03610100820481166020840152600160481b820416604083015260ff600160881b820481166060840152600160901b820481166080840152600160981b90910416151560a09091015292915050565b60006108988161126a565b600482905560408051818152600a91810191909152696469737075746546656560b01b606082015260208101839052600080516020611c7c833981519152906080015b60405180910390a15050565b60006108f28161126a565b600582905560408051818152600a9181019190915269189bdb99105b5bdd5b9d60b21b606082015260208101839052600080516020611c7c833981519152906080016108db565b6000828152602081905260409020600101546109548161126a565b61095e8383611274565b50505050565b6001600160a01b038116331461098d5760405163334bd91960e11b815260040160405180910390fd5b6109978282611306565b505050565b60006109a78161126a565b6109af611371565b50565b7fbb08418a67729a078f87bbc8d02a770929bb68f5bfdf134ae2ead6ed38e2f4ae6109dc8161126a565b6109e46113c3565b6000838152600760205260409020600160058083015460ff1690811115610a0d57610a0d611756565b1480610a315750600260058083015460ff1690811115610a2f57610a2f611756565b145b610a6b5760405162461bcd60e51b815260206004820152600660248201526510db1bdcd95960d21b60448201526064015b60405180910390fd5b600084815260086020908152604080832033845290915290205460ff1615610ac55760405162461bcd60e51b815260206004820152600d60248201526c105b1c9958591e481d9bdd1959609a1b6044820152606401610a62565b6006546005820154610aed916001600160401b03610100918290048116929190910416611ae2565b6001600160401b0316421115610b365760405162461bcd60e51b815260206004820152600e60248201526d159bdd1a5b99c8195e1c1a5c995960921b6044820152606401610a62565b60008481526008602090815260408083203384529091529020805460ff1990811660011790915560058201805490911660021790558215610bab57600581018054600160881b900460ff16906011610b8d83611b09565b91906101000a81548160ff021916908360ff16021790555050610be1565b600581018054600160901b900460ff16906012610bc783611b09565b91906101000a81548160ff021916908360ff160217905550505b6040518315158152339085907e7317e83854599c927edf3ce1391e67b4a5864f8003a3c69c2c71f0cc87b24b9060200160405180910390a3600654600582015460ff918216600160881b909104909116101580610c545750600654600582015460ff918216600160901b90910490911610155b1561095e5761095e846113e9565b610c6a6115ff565b610c726113c3565b84610cb15760405162461bcd60e51b815260206004820152600f60248201526e125b9d985b1a59081c1c9bd91d58dd608a1b6044820152606401610a62565b82610cf25760405162461bcd60e51b815260206004820152601160248201527022b6b83a3c903232b9b1b934b83a34b7b760791b6044820152606401610a62565b6000600554600454610d049190611b28565b6003546040516323b872dd60e01b8152336004820152306024820152604481018390529192506001600160a01b0316906323b872dd906064016020604051808303816000875af1158015610d5c573d6000803e3d6000fd5b505050506040513d601f19601f82011682018060405250810190610d809190611b3b565b5060408051602081018890526bffffffffffffffffffffffff193360601b169181019190915242605482015260009060740160408051601f198184030181529190528051602090910120905060008082815260076020526040902060059081015460ff1690811115610df457610df4611756565b14610e2d5760405162461bcd60e51b81526020600482015260096024820152684475706c696361746560b81b6044820152606401610a62565b6000818152600760205260409020818155600181018890556002810180546001600160a01b0319163317905560038101610e68878983611bbc565b5060048101610e78858783611bbc565b50600581018054600168ffffffffffffffffff19909116610100426001600160401b03160217811790915560098054918201815560009081527f6e1540171b6c0c960b71a7020d9f60077f6af931a8bbf590da0223dacf75c7af90910183905560405133918a9185917fa9af648f2ead9f270721a0fc17ef4605b58f84fd530ace72198ae48efda9f16d91a4505050610f1060018055565b5050505050565b6000610f228161126a565b60008260ff16118015610f395750600a8260ff1611155b610f755760405162461bcd60e51b815260206004820152600d60248201526c496e76616c696420766f74657360981b6044820152606401610a62565b6006805460ff191660ff841690811790915560408051818152600d918101919091526c7265717569726564566f74657360981b60608201526020810191909152600080516020611c7c833981519152906080016108db565b6000610fd88161126a565b6109af611629565b6000818152600760205260409020600160058083015460ff169081111561100957611009611756565b148061102d5750600260058083015460ff169081111561102b5761102b611756565b145b61106a5760405162461bcd60e51b815260206004820152600e60248201526d105b1c9958591e4818db1bdcd95960921b6044820152606401610a62565b6006546005820154611092916001600160401b03610100918290048116929190910416611ae2565b6001600160401b031642116110db5760405162461bcd60e51b815260206004820152600f60248201526e139bdd08195e1c1a5c9959081e595d608a1b6044820152606401610a62565b6005818101805460ff1916909117905560405182907f4e84f69c9996ba4f23a5c7e423575705e2771782e207f9b2f109ecaf06dfe65d90600090a25050565b60006111258161126a565b62015180826001600160401b03161015801561114d575062127500826001600160401b031611155b6111885760405162461bcd60e51b815260206004820152600c60248201526b4f7574206f662072616e676560a01b6044820152606401610a62565b600680546001600160401b0384166101000268ffffffffffffffff0019909116179055604051600080516020611c7c833981519152906108db9084906040808252600c908201526b1d9bdd1a5b99d4195c9a5bd960a21b60608201526001600160401b0391909116602082015260800190565b6000918252602082815260408084206001600160a01b0393909316845291905290205460ff1690565b6009818154811061123457600080fd5b600091825260209091200154905081565b6000828152602081905260409020600101546112608161126a565b61095e8383611306565b6109af8133611666565b600061128083836111fb565b6112fe576000838152602081815260408083206001600160a01b03861684529091529020805460ff191660011790556112b63390565b6001600160a01b0316826001600160a01b0316847f2f8788117e7eff1d82e926ec794901d17c78024a50270940304540a733656f0d60405160405180910390a45060016104ae565b5060006104ae565b600061131283836111fb565b156112fe576000838152602081815260408083206001600160a01b0386168085529252808320805460ff1916905551339286917ff6391f5c32d9c69d2a47ea670b442974b53935d1edc7fd64eb21e047a839171b9190a45060016104ae565b6113796116a3565b6002805460ff191690557f5db9ee0a495bf2e6ff9c91a7834c1ba4fdd244a5e8aa4e537bd38aeae4b073aa335b6040516001600160a01b03909116815260200160405180910390a1565b60025460ff16156113e75760405163d93c066560e01b815260040160405180910390fd5b565b6000818152600760205260409020600260058083015460ff169081111561141257611412611756565b14806114365750600160058083015460ff169081111561143457611434611756565b145b61146f5760405162461bcd60e51b815260206004820152600a6024820152694e6f742061637469766560b01b6044820152606401610a62565b600581018054600160981b60ff600160901b83048116600160881b8404821611820260ff60981b199093169290921792839055909104166114b15760046114b4565b60035b8160050160006101000a81548160ff021916908360058111156114d9576114d9611756565b021790555060058101805470ffffffffffffffff0000000000000000001916600160481b426001600160401b0316021790819055600090600160981b900460ff16156115ae5760055460045461152f9190611b28565b600354600284015460405163a9059cbb60e01b81526001600160a01b03918216600482015260248101849052929350169063a9059cbb906044016020604051808303816000875af1158015611588573d6000803e3d6000fd5b505050506040513d601f19601f820116820180604052508101906115ac9190611b3b565b505b600582015460408051600160981b90920460ff16151582526020820183905284917f5a5ac8b853b549bf2485e24863e0628003e891a2b72367623dd0b1c324eba8f9910160405180910390a2505050565b60026001540361162257604051633ee5aeb560e01b815260040160405180910390fd5b6002600155565b6116316113c3565b6002805460ff191660011790557f62e78cea01bee320cd4e420270b5ea74000d11b0c9f74754ebdbfc544b05a2586113a63390565b61167082826111fb565b61169f5760405163e2517d3f60e01b81526001600160a01b038216600482015260248101839052604401610a62565b5050565b60025460ff166113e757604051638dfc202b60e01b815260040160405180910390fd5b6000602082840312156116d857600080fd5b81356001600160e01b0319811681146116f057600080fd5b9392505050565b60006020828403121561170957600080fd5b5035919050565b6000815180845260005b818110156117365760208185018101518683018201520161171a565b506000602082860101526020601f19601f83011685010191505092915050565b634e487b7160e01b600052602160045260246000fd5b6006811061178a57634e487b7160e01b600052602160045260246000fd5b9052565b8b8152602081018b90526001600160a01b038a166040820152610160606082018190526000906117c08382018c611710565b905082810360808401526117d4818b611710565b9150506117e460a083018961176c565b6001600160401b0396871660c08301529490951660e086015260ff92831661010086015291166101208401521515610140909201919091529695505050505050565b6020815281516020820152602082015160408201526000604083015161185760608401826001600160a01b03169052565b506060830151610160806080850152611874610180850183611710565b91506080850151601f198584030160a08601526118918382611710565b92505060a08501516118a660c086018261176c565b5060c08501516001600160401b03811660e08601525060e08501516101006118d8818701836001600160401b03169052565b86015190506101206118ee8682018360ff169052565b86015190506101406119048682018360ff169052565b90950151151593019290925250919050565b6000806040838503121561192957600080fd5b8235915060208301356001600160a01b038116811461194757600080fd5b809150509250929050565b80151581146109af57600080fd5b6000806040838503121561197357600080fd5b82359150602083013561194781611952565b60008083601f84011261199757600080fd5b5081356001600160401b038111156119ae57600080fd5b6020830191508360208285010111156119c657600080fd5b9250929050565b6000806000806000606086880312156119e557600080fd5b8535945060208601356001600160401b0380821115611a0357600080fd5b611a0f89838a01611985565b90965094506040880135915080821115611a2857600080fd5b50611a3588828901611985565b969995985093965092949392505050565b600060208284031215611a5857600080fd5b813560ff811681146116f057600080fd5b600060208284031215611a7b57600080fd5b81356001600160401b03811681146116f057600080fd5b600181811c90821680611aa657607f821691505b602082108103611ac657634e487b7160e01b600052602260045260246000fd5b50919050565b634e487b7160e01b600052601160045260246000fd5b6001600160401b03818116838216019080821115611b0257611b02611acc565b5092915050565b600060ff821660ff8103611b1f57611b1f611acc565b60010192915050565b808201808211156104ae576104ae611acc565b600060208284031215611b4d57600080fd5b81516116f081611952565b634e487b7160e01b600052604160045260246000fd5b601f82111561099757600081815260208120601f850160051c81016020861015611b955750805b601f850160051c820191505b81811015611bb457828155600101611ba1565b505050505050565b6001600160401b03831115611bd357611bd3611b58565b611be783611be18354611a92565b83611b6e565b6000601f841160018114611c1b5760008515611c035750838201355b600019600387901b1c1916600186901b178355610f10565b600083815260209020601f19861690835b82811015611c4c5786850135825560209485019460019092019101611c2c565b5086821015611c695760001960f88860031b161c19848701351681555b505060018560011b018355505050505056fe12c9dccd129ff783f1c8228eacdfa8e334ddecb7ec5c9a79ec662a4aed3d012aa26469706673582212207409ef6370f376773acff8eee50031fe5296141b428d2dde037a7ed2141c249664736f6c63430008140033",
  "linkReferences": {},
  "deployedLinkReferences": {}
}