{
  "_format": "hh-sol-artifact-1",
  "contractName": "Marketplace",
  "sourceName": "contracts/Marketplace.sol",
  "abi": [
    {
      "inputs": [
        {
          "internalType": "address",
          "name": "_productNFT",
          "type": "address"
        },
        {
          "internalType": "address",
          "name": "_feeRecipient",
          "type": "address"
        }
      ],
      "stateMutability": "nonpayable",
      "type": "constructor"
    },
    {
      "inputs": [
        {
          "internalType": "address",
          "name": "owner",
          "type": "address"
        }
      ],
      "name": "OwnableInvalidOwner",
      "type": "error"
    },
    {
      "inputs": [
        {
          "internalType": "address",
          "name": "account",
          "type": "address"
        }
      ],
      "name": "OwnableUnauthorizedAccount",
      "type": "error"
    },
    {
      "inputs": [],
      "name": "ReentrancyGuardReentrantCall",
      "type": "error"
    },
    {
      "anonymous": false,
      "inputs": [
        {
          "indexed": true,
          "internalType": "uint256",
          "name": "tokenId",
          "type": "uint256"
        },
        {
          "indexed": true,
          "internalType": "address",
          "name": "seller",
          "type": "address"
        }
      ],
      "name": "Cancelled",
      "type": "event"
    },
    {
      "anonymous": false,
      "inputs": [
        {
          "indexed": true,
          "internalType": "uint256",
          "name": "tokenId",
          "type": "uint256"
        },
        {
          "indexed": true,
          "internalType": "address",
          "name": "seller",
          "type": "address"
        },
        {
          "indexed": false,
          "internalType": "uint256",
          "name": "price",
          "type": "uint256"
        }
      ],
      "name": "Listed",
      "type": "event"
    },
    {
      "anonymous": false,
      "inputs": [
        {
          "indexed": true,
          "internalType": "address",
          "name": "previousOwner",
          "type": "address"
        },
        {
          "indexed": true,
          "internalType": "address",
          "name": "newOwner",
          "type": "address"
        }
      ],
      "name": "OwnershipTransferred",
      "type": "event"
    },
    {
      "anonymous": false,
      "inputs": [
        {
          "indexed": true,
          "internalType": "uint256",
          "name": "tokenId",
          "type": "uint256"
        },
        {
          "indexed": false,
          "internalType": "uint256",
          "name": "oldPrice",
          "type": "uint256"
        },
        {
          "indexed": false,
          "internalType": "uint256",
          "name": "newPrice",
          "type": "uint256"
        }
      ],
      "name": "PriceUpdated",
      "type": "event"
    },
    {
      "anonymous": false,
      "inputs": [
        {
          "indexed": true,
          "internalType": "uint256",
          "name": "tokenId",
          "type": "uint256"
        },
        {
          "indexed": true,
          "internalType": "address",
          "name": "buyer",
          "type": "address"
        },
        {
          "indexed": true,
          "internalType": "address",
          "name": "seller",
          "type": "address"
        },
        {
          "indexed": false,
          "internalType": "uint256",
          "name": "price",
          "type": "uint256"
        }
      ],
      "name": "Purchased",
      "type": "event"
    },
    {
      "inputs": [
        {
          "internalType": "uint256",
          "name": "tokenId",
          "type": "uint256"
        }
      ],
      "name": "cancelListing",
      "outputs": [],
      "stateMutability": "nonpayable",
      "type": "function"
    },
    {
      "inputs": [
        {
          "internalType": "uint256",
          "name": "tokenId",
          "type": "uint256"
        },
        {
          "internalType": "uint256",
          "name": "price",
          "type": "uint256"
        }
      ],
      "name": "createListing",
      "outputs": [],
      "stateMutability": "nonpayable",
      "type": "function"
    },
    {
      "inputs": [],
      "name": "feeRecipient",
      "outputs": [
        {
          "internalType": "address",
          "name": "",
          "type": "address"
        }
      ],
      "stateMutability": "view",
      "type": "function"
    },
    {
      "inputs": [
        {
          "internalType": "uint256",
          "name": "tokenId",
          "type": "uint256"
        }
      ],
      "name": "getListing",
      "outputs": [
        {
          "components": [
            {
              "internalType": "uint256",
              "name": "tokenId",
              "type": "uint256"
            },
            {
              "internalType": "address",
              "name": "seller",
              "type": "address"
            },
            {
              "internalType": "uint256",
              "name": "price",
              "type": "uint256"
            },
            {
              "internalType": "bool",
              "name": "active",
              "type": "bool"
            }
          ],
          "internalType": "struct Marketplace.Listing",
          "name": "",
          "type": "tuple"
        }
      ],
      "stateMutability": "view",
      "type": "function"
    },
    {
      "inputs": [
        {
          "internalType": "uint256",
          "name": "tokenId",
          "type": "uint256"
        }
      ],
      "name": "isListed",
      "outputs": [
        {
          "internalType": "bool",
          "name": "",
          "type": "bool"
        }
      ],
      "stateMutability": "view",
      "type": "function"
    },
    {
      "inputs": [
        {
          "internalType": "uint256",
          "name": "",
          "type": "uint256"
        }
      ],
      "name": "listings",
      "outputs": [
        {
          "internalType": "uint256",
          "name": "tokenId",
          "type": "uint256"
        },
        {
          "internalType": "address",
          "name": "seller",
          "type": "address"
        },
        {
          "internalType": "uint256",
          "name": "price",
          "type": "uint256"
        },
        {
          "internalType": "bool",
          "name": "active",
          "type": "bool"
        }
      ],
      "stateMutability": "view",
      "type": "function"
    },
    {
      "inputs": [],
      "name": "owner",
      "outputs": [
        {
          "internalType": "address",
          "name": "",
          "type": "address"
        }
      ],
      "stateMutability": "view",
      "type": "function"
    },
    {
      "inputs": [],
      "name": "platformFeeBps",
      "outputs": [
        {
          "internalType": "uint256",
          "name": "",
          "type": "uint256"
        }
      ],
      "stateMutability": "view",
      "type": "function"
    },
    {
      "inputs": [],
      "name": "productNFT",
      "outputs": [
        {
          "internalType": "contract ProductNFT",
          "name": "",
          "type": "address"
        }
      ],
      "stateMutability": "view",
      "type": "function"
    },
    {
      "inputs": [
        {
          "internalType": "uint256",
          "name": "tokenId",
          "type": "uint256"
        }
      ],
      "name": "purchaseNFT",
      "outputs": [],
      "stateMutability": "payable",
      "type": "function"
    },
    {
      "inputs": [],
      "name": "renounceOwnership",
      "outputs": [],
      "stateMutability": "nonpayable",
      "type": "function"
    },
    {
      "inputs": [
        {
          "internalType": "address",
          "name": "newOwner",
          "type": "address"
        }
      ],
      "name": "transferOwnership",
      "outputs": [],
      "stateMutability": "nonpayable",
      "type": "function"
    },
    {
      "inputs": [
        {
          "internalType": "address",
          "name": "newRecipient",
          "type": "address"
        }
      ],
      "name": "updateFeeRecipient",
      "outputs": [],
      "stateMutability": "nonpayable",
      "type": "function"
    },
    {
      "inputs": [
        {
          "internalType": "uint256",
          "name": "newFeeBps",
          "type": "uint256"
        }
      ],
      "name": "updatePlatformFee",
      "outputs": [],
      "stateMutability": "nonpayable",
      "type": "function"
    },
    {
      "inputs": [
        {
          "internalType": "uint256",
          "name": "tokenId",
          "type": "uint256"
        },
        {
          "internalType": "uint256",
          "name": "newPrice",
          "type": "uint256"
        }
      ],
      "name": "updatePrice",
      "outputs": [],
      "stateMutability": "nonpayable",
      "type": "function"
    }
  ],
  "bytecode": "0x608060405260fa6004553480156200001657600080fd5b5060405162001129380380620011298339810160408190526200003991620001c3565b600160005533806200006657604051631e4fbdf760e01b8152600060048201526024015b60405180910390fd5b620000718162000154565b506001600160a01b038216620000ca5760405162461bcd60e51b815260206004820152601360248201527f496e76616c6964204e465420616464726573730000000000000000000000000060448201526064016200005d565b6001600160a01b038116620001225760405162461bcd60e51b815260206004820152601560248201527f496e76616c69642066656520726563697069656e74000000000000000000000060448201526064016200005d565b600280546001600160a01b039384166001600160a01b03199182161790915560058054929093169116179055620001fb565b600180546001600160a01b038381166001600160a01b0319831681179093556040519116919082907f8be0079c531659141344cd1fd0a4f28419497f9722a3daafe3b4186f6b6457e090600090a35050565b80516001600160a01b0381168114620001be57600080fd5b919050565b60008060408385031215620001d757600080fd5b620001e283620001a6565b9150620001f260208401620001a6565b90509250929050565b610f1e806200020b6000396000f3fe6080604052600436106100e85760003560e01c80638da5cb5b1161008a578063de74e57b11610059578063de74e57b14610307578063f160d36914610381578063f2fde38b146103a1578063fcce4883146103c157600080fd5b80638da5cb5b146102895780638fcdeba1146102a7578063a79123a9146102c7578063aa0b5988146102e757600080fd5b8063305a67a8116100c6578063305a67a8146101fc578063469048401461021c578063715018a61461025457806382367b2d1461026957600080fd5b8063107a274a146100ed578063150bde03146101c357806322dcd13e146101d8575b600080fd5b3480156100f957600080fd5b5061017c610108366004610dcb565b6040805160808101825260008082526020820181905291810182905260608101919091525060009081526003602081815260409283902083516080810185528154815260018201546001600160a01b03169281019290925260028101549382019390935291015460ff161515606082015290565b6040516101ba9190815181526020808301516001600160a01b0316908201526040808301519082015260609182015115159181019190915260800190565b60405180910390f35b6101d66101d1366004610dcb565b610405565b005b3480156101e457600080fd5b506101ee60045481565b6040519081526020016101ba565b34801561020857600080fd5b506101d6610217366004610dcb565b610780565b34801561022857600080fd5b5060055461023c906001600160a01b031681565b6040516001600160a01b0390911681526020016101ba565b34801561026057600080fd5b506101d66108a4565b34801561027557600080fd5b506101d6610284366004610de4565b6108b8565b34801561029557600080fd5b506001546001600160a01b031661023c565b3480156102b357600080fd5b5060025461023c906001600160a01b031681565b3480156102d357600080fd5b506101d66102e2366004610de4565b6109c4565b3480156102f357600080fd5b506101d6610302366004610dcb565b610c27565b34801561031357600080fd5b50610357610322366004610dcb565b6003602081905260009182526040909120805460018201546002830154929093015490926001600160a01b0316919060ff1684565b604080519485526001600160a01b03909316602085015291830152151560608201526080016101ba565b34801561038d57600080fd5b506101d661039c366004610e1b565b610c75565b3480156103ad57600080fd5b506101d66103bc366004610e1b565b610ce7565b3480156103cd57600080fd5b506103f56103dc366004610dcb565b6000908152600360208190526040909120015460ff1690565b60405190151581526020016101ba565b61040d610d22565b60008181526003602081905260409091209081015460ff1661044a5760405162461bcd60e51b815260040161044190610e3f565b60405180910390fd5b80600201543410156104955760405162461bcd60e51b8152602060048201526014602482015273125b9cdd59999a58da595b9d081c185e5b595b9d60621b6044820152606401610441565b600061271060045483600201546104ac9190610e79565b6104b69190610e96565b905060008183600201546104ca9190610eb8565b60038401805460ff191690556002546040516323b872dd60e01b8152306004820152336024820152604481018790529192506001600160a01b0316906323b872dd90606401600060405180830381600087803b15801561052957600080fd5b505af115801561053d573d6000803e3d6000fd5b5050505060018301546040516000916001600160a01b03169083908381818185875af1925050503d8060008114610590576040519150601f19603f3d011682016040523d82523d6000602084013e610595565b606091505b50509050806105de5760405162461bcd60e51b815260206004820152601560248201527414d95b1b195c881c185e5b595b9d0819985a5b1959605a1b6044820152606401610441565b821561067e576005546040516000916001600160a01b03169085908381818185875af1925050503d8060008114610631576040519150601f19603f3d011682016040523d82523d6000602084013e610636565b606091505b505090508061067c5760405162461bcd60e51b8152602060048201526012602482015271119959481c185e5b595b9d0819985a5b195960721b6044820152606401610441565b505b8360020154341115610722576002840154600090339061069e9034610eb8565b604051600081818185875af1925050503d80600081146106da576040519150601f19603f3d011682016040523d82523d6000602084013e6106df565b606091505b50509050806107205760405162461bcd60e51b815260206004820152600d60248201526c1499599d5b990819985a5b1959609a1b6044820152606401610441565b505b600184015460028501546040519081526001600160a01b0390911690339087907f3fb02bfbf01f7dc3a4c6903acc6b06ca1d9af7647282593f46cbacefc288b6029060200160405180910390a45050505061077d6001600055565b50565b60008181526003602081905260409091209081015460ff166107b45760405162461bcd60e51b815260040161044190610e3f565b60018101546001600160a01b031633146107fd5760405162461bcd60e51b815260206004820152600a6024820152692737ba1039b2b63632b960b11b6044820152606401610441565b60038101805460ff191690556002546040516323b872dd60e01b8152306004820152336024820152604481018490526001600160a01b03909116906323b872dd90606401600060405180830381600087803b15801561085b57600080fd5b505af115801561086f573d6000803e3d6000fd5b50506040513392508491507f26deca31ff8139a06c52453ce8985d34f7648a6d9af1d283c4063d052c355a0f90600090a35050565b6108ac610d4c565b6108b66000610d79565b565b60008281526003602081905260409091209081015460ff166108ec5760405162461bcd60e51b815260040161044190610e3f565b60018101546001600160a01b031633146109355760405162461bcd60e51b815260206004820152600a6024820152692737ba1039b2b63632b960b11b6044820152606401610441565b600082116109795760405162461bcd60e51b815260206004820152601160248201527005072696365206d757374206265203e203607c1b6044820152606401610441565b60028101805490839055604080518281526020810185905285917f15819dd2fd9f6418b142e798d08a18d0bf06ea368f4480b7b0d3f75bd966bc48910160405180910390a250505050565b6002546040516331a9108f60e11b81526004810184905233916001600160a01b031690636352211e90602401602060405180830381865afa158015610a0d573d6000803e3d6000fd5b505050506040513d601f19601f82011682018060405250810190610a319190610ecb565b6001600160a01b031614610a795760405162461bcd60e51b815260206004820152600f60248201526e2737ba103a37b5b2b71037bbb732b960891b6044820152606401610441565b60008111610abd5760405162461bcd60e51b815260206004820152601160248201527005072696365206d757374206265203e203607c1b6044820152606401610441565b6000828152600360208190526040909120015460ff1615610b115760405162461bcd60e51b815260206004820152600e60248201526d105b1c9958591e481b1a5cdd195960921b6044820152606401610441565b6002546040516323b872dd60e01b8152336004820152306024820152604481018490526001600160a01b03909116906323b872dd90606401600060405180830381600087803b158015610b6357600080fd5b505af1158015610b77573d6000803e3d6000fd5b50506040805160808101825285815233602080830182815283850188815260016060860181815260008c815260038087529089902097518855935191870180546001600160a01b0319166001600160a01b039093169290921790915590516002860155519301805460ff19169315159390931790925591518581529193508592507f50955776c5778c3b7d968d86d8c51fb6b29a7a74c20866b533268e209fc08343910160405180910390a35050565b610c2f610d4c565b6103e8811115610c705760405162461bcd60e51b815260206004820152600c60248201526b08ccaca40e8dede40d0d2ced60a31b6044820152606401610441565b600455565b610c7d610d4c565b6001600160a01b038116610cc55760405162461bcd60e51b815260206004820152600f60248201526e496e76616c6964206164647265737360881b6044820152606401610441565b600580546001600160a01b0319166001600160a01b0392909216919091179055565b610cef610d4c565b6001600160a01b038116610d1957604051631e4fbdf760e01b815260006004820152602401610441565b61077d81610d79565b600260005403610d4557604051633ee5aeb560e01b815260040160405180910390fd5b6002600055565b6001546001600160a01b031633146108b65760405163118cdaa760e01b8152336004820152602401610441565b600180546001600160a01b038381166001600160a01b0319831681179093556040519116919082907f8be0079c531659141344cd1fd0a4f28419497f9722a3daafe3b4186f6b6457e090600090a35050565b600060208284031215610ddd57600080fd5b5035919050565b60008060408385031215610df757600080fd5b50508035926020909101359150565b6001600160a01b038116811461077d57600080fd5b600060208284031215610e2d57600080fd5b8135610e3881610e06565b9392505050565b6020808252600a9082015269139bdd081b1a5cdd195960b21b604082015260600190565b634e487b7160e01b600052601160045260246000fd5b8082028115828204841417610e9057610e90610e63565b92915050565b600082610eb357634e487b7160e01b600052601260045260246000fd5b500490565b81810381811115610e9057610e90610e63565b600060208284031215610edd57600080fd5b8151610e3881610e0656fea2646970667358221220a785e77fb7816a4ddc2868e9e706eb17e6fc58915c36074ba1ad7dfb793ea5b464736f6c63430008140033",
  "linkReferences": {},
  "deployedLinkReferences": {}
}