{
  "_format": "hh-sol-artifact-1",
  "contractName": "ProductNFT",
  "sourceName": "contracts/ProductNFT.sol",
  "abi": [
    {
      "inputs": [
        {
          "internalType": "address",
          "name": "_productRegistry",
          "type": "address"
        },
        {
          "internalType": "address",
          "name": "_retailerRegistry",
          "type": "address"
        }
      ],
      "stateMutability": "nonpayable",
      "type": "constructor"
    },
    {
      "inputs": [],
      "name": "AccessControlBadConfirmation",
      "type": "error"
    },
    {
      "inputs": [
        {
          "internalType": "address",
          "name": "account",
          "type": "address"
        },
        {
          "internalType": "bytes32",
          "name": "neededRole",
          "type": "bytes32"
        }
      ],
      "name": "AccessControlUnauthorizedAccount",
      "type": "error"
    },
    {
      "inputs": [
        {
          "internalType": "address",
          "name": "sender",
          "type": "address"
        },
        {
          "internalType": "uint256",
          "name": "tokenId",
          "type": "uint256"
        },
        {
          "internalType": "address",
          "name": "owner",
          "type": "address"
        }
      ],
      "name": "ERC721IncorrectOwner",
      "type": "error"
    },
    {
      "inputs": [
        {
          "internalType": "address",
          "name": "operator",
          "type": "address"
        },
        {
          "internalType": "uint256",
          "name": "tokenId",
          "type": "uint256"
        }
      ],
      "name": "ERC721InsufficientApproval",
      "type": "error"
    },
    {
      "inputs": [
        {
          "internalType": "address",
          "name": "approver",
          "type": "address"
        }
      ],
      "name": "ERC721InvalidApprover",
      "type": "error"
    },
    {
      "inputs": [
        {
          "internalType": "address",
          "name": "operator",
          "type": "address"
        }
      ],
      "name": "ERC721InvalidOperator",
      "type": "error"
    },
    {
      "inputs": [
        {
          "internalType": "address",
          "name": "owner",
          "type": "address"
        }
      ],
      "name": "ERC721InvalidOwner",
      "type": "error"
    },
    {
      "inputs": [
        {
          "internalType": "address",
          "name": "receiver",
          "type": "address"
        }
      ],
      "name": "ERC721InvalidReceiver",
      "type": "error"
    },
    {
      "inputs": [
        {
          "internalType": "address",
          "name": "sender",
          "type": "address"
        }
      ],
      "name": "ERC721InvalidSender",
      "type": "error"
    },
    {
      "inputs": [
        {
          "internalType": "uint256",
          "name": "tokenId",
          "type": "uint256"
        }
      ],
      "name": "ERC721NonexistentToken",
      "type": "error"
    },
    {
      "inputs": [],
      "name": "EnforcedPause",
      "type": "error"
    },
    {
      "inputs": [],
      "name": "ExpectedPause",
      "type": "error"
    },
    {
      "inputs": [],
      "name": "ReentrancyGuardReentrantCall",
      "type": "error"
    },
    {
      "anonymous": false,
      "inputs": [
        {
          "indexed": true,
          "internalType": "address",
          "name": "account",
          "type": "address"
        },
        {
          "indexed": false,
          "internalType": "bool",
          "name": "whitelisted",
          "type": "bool"
        }
      ],
      "name": "AddressWhitelisted",
      "type": "event"
    },
    {
      "anonymous": false,
      "inputs": [
        {
          "indexed": true,
          "internalType": "address",
          "name": "owner",
          "type": "address"
        },
        {
          "indexed": true,
          "internalType": "address",
          "name": "approved",
          "type": "address"
        },
        {
          "indexed": true,
          "internalType": "uint256",
          "name": "tokenId",
          "type": "uint256"
        }
      ],
      "name": "Approval",
      "type": "event"
    },
    {
      "anonymous": false,
      "inputs": [
        {
          "indexed": true,
          "internalType": "address",
          "name": "owner",
          "type": "address"
        },
        {
          "indexed": true,
          "internalType": "address",
          "name": "operator",
          "type": "address"
        },
        {
          "indexed": false,
          "internalType": "bool",
          "name": "approved",
          "type": "bool"
        }
      ],
      "name": "ApprovalForAll",
      "type": "event"
    },
    {
      "anonymous": false,
      "inputs": [
        {
          "indexed": false,
          "internalType": "address",
          "name": "account",
          "type": "address"
        }
      ],
      "name": "Paused",
      "type": "event"
    },
    {
      "anonymous": false,
      "inputs": [
        {
          "indexed": true,
          "internalType": "uint256",
          "name": "tokenId",
          "type": "uint256"
        },
        {
          "indexed": true,
          "internalType": "bytes32",
          "name": "productId",
          "type": "bytes32"
        },
        {
          "indexed": false,
          "internalType": "address",
          "name": "owner",
          "type": "address"
        }
      ],
      "name": "ProductNFTMinted",
      "type": "event"
    },
    {
      "anonymous": false,
      "inputs": [
        {
          "indexed": false,
          "internalType": "bool",
          "name": "required",
          "type": "bool"
        }
      ],
      "name": "RetailerAuthorizationRequirementUpdated",
      "type": "event"
    },
    {
      "anonymous": false,
      "inputs": [
        {
          "indexed": true,
          "internalType": "bytes32",
          "name": "role",
          "type": "bytes32"
        },
        {
          "indexed": true,
          "internalType": "bytes32",
          "name": "previousAdminRole",
          "type": "bytes32"
        },
        {
          "indexed": true,
          "internalType": "bytes32",
          "name": "newAdminRole",
          "type": "bytes32"
        }
      ],
      "name": "RoleAdminChanged",
      "type": "event"
    },
    {
      "anonymous": false,
      "inputs": [
        {
          "indexed": true,
          "internalType": "bytes32",
          "name": "role",
          "type": "bytes32"
        },
        {
          "indexed": true,
          "internalType": "address",
          "name": "account",
          "type": "address"
        },
        {
          "indexed": true,
          "internalType": "address",
          "name": "sender",
          "type": "address"
        }
      ],
      "name": "RoleGranted",
      "type": "event"
    },
    {
      "anonymous": false,
      "inputs": [
        {
          "indexed": true,
          "internalType": "bytes32",
          "name": "role",
          "type": "bytes32"
        },
        {
          "indexed": true,
          "internalType": "address",
          "name": "account",
          "type": "address"
        },
        {
          "indexed": true,
          "internalType": "address",
          "name": "sender",
          "type": "address"
        }
      ],
      "name": "RoleRevoked",
      "type": "event"
    },
    {
      "anonymous": false,
      "inputs": [
        {
          "indexed": false,
          "internalType": "address",
          "name": "receiver",
          "type": "address"
        },
        {
          "indexed": false,
          "internalType": "uint256",
          "name": "percentage",
          "type": "uint256"
        }
      ],
      "name": "RoyaltyInfoUpdated",
      "type": "event"
    },
    {
      "anonymous": false,
      "inputs": [
        {
          "indexed": true,
          "internalType": "address",
          "name": "from",
          "type": "address"
        },
        {
          "indexed": true,
          "internalType": "address",
          "name": "to",
          "type": "address"
        },
        {
          "indexed": true,
          "internalType": "uint256",
          "name": "tokenId",
          "type": "uint256"
        }
      ],
      "name": "Transfer",
      "type": "event"
    },
    {
      "anonymous": false,
      "inputs": [
        {
          "indexed": true,
          "internalType": "uint256",
          "name": "tokenId",
          "type": "uint256"
        },
        {
          "indexed": true,
          "internalType": "address",
          "name": "from",
          "type": "address"
        },
        {
          "indexed": true,
          "internalType": "address",
          "name": "to",
          "type": "address"
        },
        {
          "indexed": false,
          "internalType": "uint256",
          "name": "timestamp",
          "type": "uint256"
        },
        {
          "indexed": false,
          "internalType": "uint256",
          "name": "price",
          "type": "uint256"
        }
      ],
      "name": "TransferRecorded",
      "type": "event"
    },
    {
      "anonymous": false,
      "inputs": [
        {
          "indexed": false,
          "internalType": "bool",
          "name": "enabled",
          "type": "bool"
        }
      ],
      "name": "TransferRestrictionUpdated",
      "type": "event"
    },
    {
      "anonymous": false,
      "inputs": [
        {
          "indexed": false,
          "internalType": "address",
          "name": "account",
          "type": "address"
        }
      ],
      "name": "Unpaused",
      "type": "event"
    },
    {
      "inputs": [],
      "name": "DEFAULT_ADMIN_ROLE",
      "outputs": [
        {
          "internalType": "bytes32",
          "name": "",
          "type": "bytes32"
        }
      ],
      "stateMutability": "view",
      "type": "function"
    },
    {
      "inputs": [],
      "name": "MINTER_ROLE",
      "outputs": [
        {
          "internalType": "bytes32",
          "name": "",
          "type": "bytes32"
        }
      ],
      "stateMutability": "view",
      "type": "function"
    },
    {
      "inputs": [],
      "name": "TRANSFER_VALIDATOR_ROLE",
      "outputs": [
        {
          "internalType": "bytes32",
          "name": "",
          "type": "bytes32"
        }
      ],
      "stateMutability": "view",
      "type": "function"
    },
    {
      "inputs": [
        {
          "internalType": "address",
          "name": "to",
          "type": "address"
        },
        {
          "internalType": "uint256",
          "name": "tokenId",
          "type": "uint256"
        }
      ],
      "name": "approve",
      "outputs": [],
      "stateMutability": "nonpayable",
      "type": "function"
    },
    {
      "inputs": [
        {
          "internalType": "address",
          "name": "owner",
          "type": "address"
        }
      ],
      "name": "balanceOf",
      "outputs": [
        {
          "internalType": "uint256",
          "name": "",
          "type": "uint256"
        }
      ],
      "stateMutability": "view",
      "type": "function"
    },
    {
      "inputs": [
        {
          "internalType": "address[]",
          "name": "accounts",
          "type": "address[]"
        },
        {
          "internalType": "bool",
          "name": "whitelisted",
          "type": "bool"
        }
      ],
      "name": "batchSetWhitelistedAddresses",
      "outputs": [],
      "stateMutability": "nonpayable",
      "type": "function"
    },
    {
      "inputs": [
        {
          "internalType": "address",
          "name": "recipient",
          "type": "address"
        },
        {
          "internalType": "uint256",
          "name": "tokenId",
          "type": "uint256"
        }
      ],
      "name": "canReceiveNFT",
      "outputs": [
        {
          "internalType": "bool",
          "name": "",
          "type": "bool"
        }
      ],
      "stateMutability": "view",
      "type": "function"
    },
    {
      "inputs": [
        {
          "internalType": "uint256",
          "name": "tokenId",
          "type": "uint256"
        }
      ],
      "name": "getApproved",
      "outputs": [
        {
          "internalType": "address",
          "name": "",
          "type": "address"
        }
      ],
      "stateMutability": "view",
      "type": "function"
    },
    {
      "inputs": [
        {
          "internalType": "uint256",
          "name": "tokenId",
          "type": "uint256"
        }
      ],
      "name": "getProductId",
      "outputs": [
        {
          "internalType": "bytes32",
          "name": "",
          "type": "bytes32"
        }
      ],
      "stateMutability": "view",
      "type": "function"
    },
    {
      "inputs": [
        {
          "internalType": "bytes32",
          "name": "role",
          "type": "bytes32"
        }
      ],
      "name": "getRoleAdmin",
      "outputs": [
        {
          "internalType": "bytes32",
          "name": "",
          "type": "bytes32"
        }
      ],
      "stateMutability": "view",
      "type": "function"
    },
    {
      "inputs": [
        {
          "internalType": "uint256",
          "name": "tokenId",
          "type": "uint256"
        }
      ],
      "name": "getTransferCount",
      "outputs": [
        {
          "internalType": "uint256",
          "name": "",
          "type": "uint256"
        }
      ],
      "stateMutability": "view",
      "type": "function"
    },
    {
      "inputs": [
        {
          "internalType": "uint256",
          "name": "tokenId",
          "type": "uint256"
        }
      ],
      "name": "getTransferHistory",
      "outputs": [
        {
          "components": [
            {
              "internalType": "address",
              "name": "from",
              "type": "address"
            },
            {
              "internalType": "address",
              "name": "to",
              "type": "address"
            },
            {
              "internalType": "uint256",
              "name": "timestamp",
              "type": "uint256"
            },
            {
              "internalType": "uint256",
              "name": "price",
              "type": "uint256"
            }
          ],
          "internalType": "struct ProductNFT.TransferRecord[]",
          "name": "",
          "type": "tuple[]"
        }
      ],
      "stateMutability": "view",
      "type": "function"
    },
    {
      "inputs": [
        {
          "internalType": "bytes32",
          "name": "role",
          "type": "bytes32"
        },
        {
          "internalType": "address",
          "name": "account",
          "type": "address"
        }
      ],
      "name": "grantRole",
      "outputs": [],
      "stateMutability": "nonpayable",
      "type": "function"
    },
    {
      "inputs": [
        {
          "internalType": "bytes32",
          "name": "productId",
          "type": "bytes32"
        }
      ],
      "name": "hasNFT",
      "outputs": [
        {
          "internalType": "bool",
          "name": "",
          "type": "bool"
        }
      ],
      "stateMutability": "view",
      "type": "function"
    },
    {
      "inputs": [
        {
          "internalType": "bytes32",
          "name": "role",
          "type": "bytes32"
        },
        {
          "internalType": "address",
          "name": "account",
          "type": "address"
        }
      ],
      "name": "hasRole",
      "outputs": [
        {
          "internalType": "bool",
          "name": "",
          "type": "bool"
        }
      ],
      "stateMutability": "view",
      "type": "function"
    },
    {
      "inputs": [
        {
          "internalType": "address",
          "name": "owner",
          "type": "address"
        },
        {
          "internalType": "address",
          "name": "operator",
          "type": "address"
        }
      ],
      "name": "isApprovedForAll",
      "outputs": [
        {
          "internalType": "bool",
          "name": "",
          "type": "bool"
        }
      ],
      "stateMutability": "view",
      "type": "function"
    },
    {
      "inputs": [
        {
          "internalType": "bytes32",
          "name": "productId",
          "type": "bytes32"
        },
        {
          "internalType": "address",
          "name": "owner",
          "type": "address"
        }
      ],
      "name": "mintProductNFT",
      "outputs": [
        {
          "internalType": "uint256",
          "name": "",
          "type": "uint256"
        }
      ],
      "stateMutability": "nonpayable",
      "type": "function"
    },
    {
      "inputs": [],
      "name": "name",
      "outputs": [
        {
          "internalType": "string",
          "name": "",
          "type": "string"
        }
      ],
      "stateMutability": "view",
      "type": "function"
    },
    {
      "inputs": [
        {
          "internalType": "uint256",
          "name": "",
          "type": "uint256"
        }
      ],
      "name": "nftToProductId",
      "outputs": [
        {
          "internalType": "bytes32",
          "name": "",
          "type": "bytes32"
        }
      ],
      "stateMutability": "view",
      "type": "function"
    },
    {
      "inputs": [
        {
          "internalType": "uint256",
          "name": "tokenId",
          "type": "uint256"
        }
      ],
      "name": "ownerOf",
      "outputs": [
        {
          "internalType": "address",
          "name": "",
          "type": "address"
        }
      ],
      "stateMutability": "view",
      "type": "function"
    },
    {
      "inputs": [],
      "name": "pause",
      "outputs": [],
      "stateMutability": "nonpayable",
      "type": "function"
    },
    {
      "inputs": [],
      "name": "paused",
      "outputs": [
        {
          "internalType": "bool",
          "name": "",
          "type": "bool"
        }
      ],
      "stateMutability": "view",
      "type": "function"
    },
    {
      "inputs": [
        {
          "internalType": "bytes32",
          "name": "",
          "type": "bytes32"
        }
      ],
      "name": "productIdToNFT",
      "outputs": [
        {
          "internalType": "uint256",
          "name": "",
          "type": "uint256"
        }
      ],
      "stateMutability": "view",
      "type": "function"
    },
    {
      "inputs": [],
      "name": "productRegistry",
      "outputs": [
        {
          "internalType": "contract ProductRegistry",
          "name": "",
          "type": "address"
        }
      ],
      "stateMutability": "view",
      "type": "function"
    },
    {
      "inputs": [
        {
          "internalType": "uint256",
          "name": "tokenId",
          "type": "uint256"
        },
        {
          "internalType": "uint256",
          "name": "price",
          "type": "uint256"
        }
      ],
      "name": "recordSalePrice",
      "outputs": [],
      "stateMutability": "nonpayable",
      "type": "function"
    },
    {
      "inputs": [
        {
          "internalType": "bytes32",
          "name": "role",
          "type": "bytes32"
        },
        {
          "internalType": "address",
          "name": "callerConfirmation",
          "type": "address"
        }
      ],
      "name": "renounceRole",
      "outputs": [],
      "stateMutability": "nonpayable",
      "type": "function"
    },
    {
      "inputs": [],
      "name": "requireRetailerAuthorization",
      "outputs": [
        {
          "internalType": "bool",
          "name": "",
          "type": "bool"
        }
      ],
      "stateMutability": "view",
      "type": "function"
    },
    {
      "inputs": [],
      "name": "retailerRegistry",
      "outputs": [
        {
          "internalType": "contract RetailerRegistry",
          "name": "",
          "type": "address"
        }
      ],
      "stateMutability": "view",
      "type": "function"
    },
    {
      "inputs": [
        {
          "internalType": "bytes32",
          "name": "role",
          "type": "bytes32"
        },
        {
          "internalType": "address",
          "name": "account",
          "type": "address"
        }
      ],
      "name": "revokeRole",
      "outputs": [],
      "stateMutability": "nonpayable",
      "type": "function"
    },
    {
      "inputs": [
        {
          "internalType": "uint256",
          "name": "tokenId",
          "type": "uint256"
        },
        {
          "internalType": "uint256",
          "name": "salePrice",
          "type": "uint256"
        }
      ],
      "name": "royaltyInfo",
      "outputs": [
        {
          "internalType": "address",
          "name": "receiver",
          "type": "address"
        },
        {
          "internalType": "uint256",
          "name": "royaltyAmount",
          "type": "uint256"
        }
      ],
      "stateMutability": "view",
      "type": "function"
    },
    {
      "inputs": [],
      "name": "royaltyPercentage",
      "outputs": [
        {
          "internalType": "uint256",
          "name": "",
          "type": "uint256"
        }
      ],
      "stateMutability": "view",
      "type": "function"
    },
    {
      "inputs": [],
      "name": "royaltyReceiver",
      "outputs": [
        {
          "internalType": "address",
          "name": "",
          "type": "address"
        }
      ],
      "stateMutability": "view",
      "type": "function"
    },
    {
      "inputs": [
        {
          "internalType": "address",
          "name": "from",
          "type": "address"
        },
        {
          "internalType": "address",
          "name": "to",
          "type": "address"
        },
        {
          "internalType": "uint256",
          "name": "tokenId",
          "type": "uint256"
        }
      ],
      "name": "safeTransferFrom",
      "outputs": [],
      "stateMutability": "nonpayable",
      "type": "function"
    },
    {
      "inputs": [
        {
          "internalType": "address",
          "name": "from",
          "type": "address"
        },
        {
          "internalType": "address",
          "name": "to",
          "type": "address"
        },
        {
          "internalType": "uint256",
          "name": "tokenId",
          "type": "uint256"
        },
        {
          "internalType": "bytes",
          "name": "data",
          "type": "bytes"
        }
      ],
      "name": "safeTransferFrom",
      "outputs": [],
      "stateMutability": "nonpayable",
      "type": "function"
    },
    {
      "inputs": [
        {
          "internalType": "address",
          "name": "operator",
          "type": "address"
        },
        {
          "internalType": "bool",
          "name": "approved",
          "type": "bool"
        }
      ],
      "name": "setApprovalForAll",
      "outputs": [],
      "stateMutability": "nonpayable",
      "type": "function"
    },
    {
      "inputs": [
        {
          "internalType": "bool",
          "name": "required",
          "type": "bool"
        }
      ],
      "name": "setRetailerAuthorizationRequirement",
      "outputs": [],
      "stateMutability": "nonpayable",
      "type": "function"
    },
    {
      "inputs": [
        {
          "internalType": "address",
          "name": "receiver",
          "type": "address"
        },
        {
          "internalType": "uint256",
          "name": "percentage",
          "type": "uint256"
        }
      ],
      "name": "setRoyaltyInfo",
      "outputs": [],
      "stateMutability": "nonpayable",
      "type": "function"
    },
    {
      "inputs": [
        {
          "internalType": "bool",
          "name": "enabled",
          "type": "bool"
        }
      ],
      "name": "setTransferRestrictions",
      "outputs": [],
      "stateMutability": "nonpayable",
      "type": "function"
    },
    {
      "inputs": [
        {
          "internalType": "address",
          "name": "account",
          "type": "address"
        },
        {
          "internalType": "bool",
          "name": "whitelisted",
          "type": "bool"
        }
      ],
      "name": "setWhitelistedAddress",
      "outputs": [],
      "stateMutability": "nonpayable",
      "type": "function"
    },
    {
      "inputs": [
        {
          "internalType": "bytes4",
          "name": "interfaceId",
          "type": "bytes4"
        }
      ],
      "name": "supportsInterface",
      "outputs": [
        {
          "internalType": "bool",
          "name": "",
          "type": "bool"
        }
      ],
      "stateMutability": "view",
      "type": "function"
    },
    {
      "inputs": [],
      "name": "symbol",
      "outputs": [
        {
          "internalType": "string",
          "name": "",
          "type": "string"
        }
      ],
      "stateMutability": "view",
      "type": "function"
    },
    {
      "inputs": [
        {
          "internalType": "uint256",
          "name": "tokenId",
          "type": "uint256"
        }
      ],
      "name": "tokenURI",
      "outputs": [
        {
          "internalType": "string",
          "name": "",
          "type": "string"
        }
      ],
      "stateMutability": "view",
      "type": "function"
    },
    {
      "inputs": [
        {
          "internalType": "address",
          "name": "from",
          "type": "address"
        },
        {
          "internalType": "address",
          "name": "to",
          "type": "address"
        },
        {
          "internalType": "uint256",
          "name": "tokenId",
          "type": "uint256"
        }
      ],
      "name": "transferFrom",
      "outputs": [],
      "stateMutability": "nonpayable",
      "type": "function"
    },
    {
      "inputs": [
        {
          "internalType": "uint256",
          "name": "",
          "type": "uint256"
        },
        {
          "internalType": "uint256",
          "name": "",
          "type": "uint256"
        }
      ],
      "name": "transferHistory",
      "outputs": [
        {
          "internalType": "address",
          "name": "from",
          "type": "address"
        },
        {
          "internalType": "address",
          "name": "to",
          "type": "address"
        },
        {
          "internalType": "uint256",
          "name": "timestamp",
          "type": "uint256"
        },
        {
          "internalType": "uint256",
          "name": "price",
          "type": "uint256"
        }
      ],
      "stateMutability": "view",
      "type": "function"
    },
    {
      "inputs": [],
      "name": "transferRestrictionsEnabled",
      "outputs": [
        {
          "internalType": "bool",
          "name": "",
          "type": "bool"
        }
      ],
      "stateMutability": "view",
      "type": "function"
    },
    {
      "inputs": [],
      "name": "unpause",
      "outputs": [],
      "stateMutability": "nonpayable",
      "type": "function"
    },
    {
      "inputs": [
        {
          "internalType": "address",
          "name": "",
          "type": "address"
        }
      ],
      "name": "whitelistedAddresses",
      "outputs": [
        {
          "internalType": "bool",
          "name": "",
          "type": "bool"
        }
      ],
      "stateMutability": "view",
      "type": "function"
    }
  ],
  "bytecode": "0x60c0604052600a805461ffff191661010117905560fa600f553480156200002557600080fd5b5060405162002b3938038062002b398339810160408190526200004891620002dd565b6040518060400160405280601581526020017f41757468656e7469632050726f64756374204e4654000000000000000000000081525060405180604001604052806008815260200167105555120b53919560c21b8152508160009081620000b09190620003ba565b506001620000bf8282620003ba565b50506001600855506001600160a01b038216620001235760405162461bcd60e51b815260206004820152601760248201527f496e76616c69642050726f64756374526567697374727900000000000000000060448201526064015b60405180910390fd5b6001600160a01b0381166200017b5760405162461bcd60e51b815260206004820152601860248201527f496e76616c69642052657461696c65725265676973747279000000000000000060448201526064016200011a565b620001886000336200020d565b50620001b57f9f2df0fed2c77648de5860a4cc508cd0818c85b8b8a1ab4ceeef8d981c8956a6336200020d565b50620001e27f1da502c97b13d992ba5b0f56b1459097f12dc749074621a32776546178e1d762336200020d565b506001600160a01b039182166080521660a052601080546001600160a01b0319163317905562000486565b60008281526006602090815260408083206001600160a01b038516845290915281205460ff16620002b65760008381526006602090815260408083206001600160a01b03861684529091529020805460ff191660011790556200026d3390565b6001600160a01b0316826001600160a01b0316847f2f8788117e7eff1d82e926ec794901d17c78024a50270940304540a733656f0d60405160405180910390a4506001620002ba565b5060005b92915050565b80516001600160a01b0381168114620002d857600080fd5b919050565b60008060408385031215620002f157600080fd5b620002fc83620002c0565b91506200030c60208401620002c0565b90509250929050565b634e487b7160e01b600052604160045260246000fd5b600181811c908216806200034057607f821691505b6020821081036200036157634e487b7160e01b600052602260045260246000fd5b50919050565b601f821115620003b557600081815260208120601f850160051c81016020861015620003905750805b601f850160051c820191505b81811015620003b1578281556001016200039c565b5050505b505050565b81516001600160401b03811115620003d657620003d662000315565b620003ee81620003e784546200032b565b8462000367565b602080601f8311600181146200042657600084156200040d5750858301515b600019600386901b1c1916600185901b178555620003b1565b600085815260208120601f198616915b82811015620004575788860151825594840194600190910190840162000436565b5085821015620004765787850151600019600388901b60f8161c191681555b5050505050600190811b01905550565b60805160a051612671620004c86000396000818161036c0152611a4d0152600081816106eb01528181610e49015281816110a801526119b001526126716000f3fe608060405234801561001057600080fd5b50600436106102945760003560e01c806382ae30a011610167578063b88d4fde116100ce578063d68305f411610087578063d68305f41461065c578063dedaff541461066f578063e2e784d5146106ad578063e985e9c5146106c0578063fce805e6146106d3578063fff218c3146106e657600080fd5b8063b88d4fde146105c9578063c1970178146105dc578063c464e2a7146105ef578063c87b56dd1461060f578063d539139314610622578063d547741f1461064957600080fd5b806395d89b411161012057806395d89b411461056d5780639f77a605146105755780639fbc871314610588578063a217fddf1461059b578063a22cb465146105a3578063ad5201b0146105b657600080fd5b806382ae30a0146104f45780638456cb5914610507578063882ee4a71461050f5780638a71bb2d146105315780638bb27d021461053a57806391d148541461055a57600080fd5b80632f2ff15d1161020b5780636352211e116101c45780636352211e14610462578063695f92c41461047557806370a082311461049c5780637b337a36146104af5780637bd1a2a4146104c2578063807af6f3146104e257600080fd5b80632f2ff15d1461040957806336568abe1461041c5780633f4ba83a1461042f57806342842e0e1461043757806345cb12581461044a5780635c975abb1461045757600080fd5b8063095ea7b31161025d578063095ea7b31461035257806313ad9f441461036757806323b872dd1461038e578063248a9ca3146103a15780632a55205a146103c45780632d6f34ec146103f657600080fd5b80623a4a0f1461029957806301ffc9a7146102cc57806306c933d8146102ef57806306fdde0314610312578063081812fc14610327575b600080fd5b6102b96102a7366004611f88565b6000908152600e602052604090205490565b6040519081526020015b60405180910390f35b6102df6102da366004611fb7565b61070d565b60405190151581526020016102c3565b6102df6102fd366004611fe9565b600b6020526000908152604090205460ff1681565b61031a610738565b6040516102c39190612056565b61033a610335366004611f88565b6107ca565b6040516001600160a01b0390911681526020016102c3565b610365610360366004612069565b6107f3565b005b61033a7f000000000000000000000000000000000000000000000000000000000000000081565b61036561039c366004612095565b610802565b6102b96103af366004611f88565b60009081526006602052604090206001015490565b6103d76103d23660046120d6565b610892565b604080516001600160a01b0390931683526020830191909152016102c3565b610365610404366004612106565b6108f9565b610365610417366004612123565b61094d565b61036561042a366004612123565b610972565b6103656109aa565b610365610445366004612095565b6109c0565b600a546102df9060ff1681565b60075460ff166102df565b61033a610470366004611f88565b6109db565b6102b97f1da502c97b13d992ba5b0f56b1459097f12dc749074621a32776546178e1d76281565b6102b96104aa366004611fe9565b6109e6565b6103656104bd366004612153565b610a2e565b6102b96104d0366004611f88565b600c6020526000908152604090205481565b600a546102df90610100900460ff1681565b610365610502366004612181565b610ae1565b610365610c40565b6102df61051d366004611f88565b6000908152600d6020526040902054151590565b6102b9600f5481565b61054d610548366004611f88565b610c53565b6040516102c39190612207565b6102df610568366004612123565b610d1c565b61031a610d47565b6102b9610583366004611f88565b610d56565b60105461033a906001600160a01b031681565b6102b9600081565b6103656105b1366004612153565b610d9b565b6102b96105c4366004612123565b610da6565b6103656105d73660046122e6565b61100f565b6102df6105ea366004612069565b611027565b6102b96105fd366004611f88565b600d6020526000908152604090205481565b61031a61061d366004611f88565b61104d565b6102b97f9f2df0fed2c77648de5860a4cc508cd0818c85b8b8a1ab4ceeef8d981c8956a681565b610365610657366004612123565b61112d565b61036561066a366004612106565b611152565b61068261067d3660046120d6565b6111a6565b604080516001600160a01b0395861681529490931660208501529183015260608201526080016102c3565b6103656106bb366004612069565b6111f8565b6102df6106ce366004612395565b6112f2565b6103656106e13660046120d6565b611320565b61033a7f000000000000000000000000000000000000000000000000000000000000000081565b600063152a902d60e11b6001600160e01b031983161480610732575061073282611416565b92915050565b606060008054610747906123c3565b80601f0160208091040260200160405190810160405280929190818152602001828054610773906123c3565b80156107c05780601f10610795576101008083540402835291602001916107c0565b820191906000526020600020905b8154815290600101906020018083116107a357829003601f168201915b5050505050905090565b60006107d58261143b565b506000828152600460205260409020546001600160a01b0316610732565b6107fe828233611473565b5050565b6001600160a01b03821661083157604051633250574960e11b8152600060048201526024015b60405180910390fd5b600061083e838333611480565b9050836001600160a01b0316816001600160a01b03161461088c576040516364283d7b60e01b81526001600160a01b0380861660048301526024820184905282166044820152606401610828565b50505050565b6000808061089f8561153e565b6001600160a01b0316036108c55760405162461bcd60e51b8152600401610828906123fd565b601054600f546001600160a01b039091169250612710906108e69085612441565b6108f09190612458565b90509250929050565b600061090481611559565b600a805460ff19168315159081179091556040519081527f2da74f794b62c41386dee79743b63d866355e0e0ae2a8d97aacb2ff5b7e1549b906020015b60405180910390a15050565b60008281526006602052604090206001015461096881611559565b61088c8383611563565b6001600160a01b038116331461099b5760405163334bd91960e11b815260040160405180910390fd5b6109a582826115f7565b505050565b60006109b581611559565b6109bd611664565b50565b6109a58383836040518060200160405280600081525061100f565b60006107328261143b565b60006001600160a01b038216610a12576040516322718ad960e21b815260006004820152602401610828565b506001600160a01b031660009081526003602052604090205490565b6000610a3981611559565b6001600160a01b038316610a815760405162461bcd60e51b815260206004820152600f60248201526e496e76616c6964206164647265737360881b6044820152606401610828565b6001600160a01b0383166000818152600b6020908152604091829020805460ff191686151590811790915591519182527faf367c7d20ce5b2ab6da56afd0c9c39b00ba995263c60292a3e1ee3781fd4885910160405180910390a2505050565b6000610aec81611559565b60005b83811015610c39576000858583818110610b0b57610b0b61247a565b9050602002016020810190610b209190611fe9565b6001600160a01b031603610b685760405162461bcd60e51b815260206004820152600f60248201526e496e76616c6964206164647265737360881b6044820152606401610828565b82600b6000878785818110610b7f57610b7f61247a565b9050602002016020810190610b949190611fe9565b6001600160a01b031681526020810191909152604001600020805460ff1916911515919091179055848482818110610bce57610bce61247a565b9050602002016020810190610be39190611fe9565b6001600160a01b03167faf367c7d20ce5b2ab6da56afd0c9c39b00ba995263c60292a3e1ee3781fd488584604051610c1f911515815260200190565b60405180910390a280610c3181612490565b915050610aef565b5050505050565b6000610c4b81611559565b6109bd6116b6565b60606000610c608361153e565b6001600160a01b031603610c865760405162461bcd60e51b8152600401610828906123fd565b6000828152600e6020908152604080832080548251818502810185019093528083529193909284015b82821015610d11576000848152602090819020604080516080810182526004860290920180546001600160a01b039081168452600180830154909116848601526002820154928401929092526003015460608301529083529092019101610caf565b505050509050919050565b60009182526006602090815260408084206001600160a01b0393909316845291905290205460ff1690565b606060018054610747906123c3565b600080610d628361153e565b6001600160a01b031603610d885760405162461bcd60e51b8152600401610828906123fd565b506000908152600c602052604090205490565b6107fe3383836116f3565b60007f9f2df0fed2c77648de5860a4cc508cd0818c85b8b8a1ab4ceeef8d981c8956a6610dd281611559565b610dda611792565b610de26117bc565b6000848152600d602052604090205415610e335760405162461bcd60e51b81526020600482015260126024820152714e465420616c72656164792065786973747360701b6044820152606401610828565b604051630125308160e31b8152600481018590527f00000000000000000000000000000000000000000000000000000000000000006001600160a01b031690630929840890602401602060405180830381865afa158015610e98573d6000803e3d6000fd5b505050506040513d601f19601f82011682018060405250810190610ebc91906124b9565b610f005760405162461bcd60e51b815260206004820152601560248201527450726f64756374206e6f742061757468656e74696360581b6044820152606401610828565b60098054906000610f1083612490565b9091555050600954610f2284826117e2565b6000818152600c60209081526040808320889055878352600d8252808320849055838352600e825280832081516080810183528481526001600160a01b038981168286018181524284870190815260608501898152865460018082018955978b529989902095516004909a0290950180549985166001600160a01b03199a8b1617815591519582018054969094169590981694909417909155945160028301555160039091015551918252869183917f52c7286cf3d4f474b0689dd874a78de26d4673ffa87381601b576e4819c33777910160405180910390a391506110086001600855565b5092915050565b61101a848484610802565b61088c33858585856117fc565b600a5460009060ff1661103c57506001610732565b6110468383611926565b9392505050565b6060600061105a8361153e565b6001600160a01b0316036110805760405162461bcd60e51b8152600401610828906123fd565b6000828152600c6020526040808220549051637905439160e01b8152600481018290529091907f00000000000000000000000000000000000000000000000000000000000000006001600160a01b031690637905439190602401600060405180830381865afa1580156110f7573d6000803e3d6000fd5b505050506040513d6000823e601f3d908101601f1916820160405261111f91908101906124d6565b509998505050505050505050565b60008281526006602052604090206001015461114881611559565b61088c83836115f7565b600061115d81611559565b600a80548315156101000261ff00199091161790556040517f471f9fb16bc5e55b300a071e14a8bf00ace38d4bf2d0342f846b1af1f9acf1849061094190841515815260200190565b600e60205281600052604060002081815481106111c257600080fd5b600091825260209091206004909102018054600182015460028301546003909301546001600160a01b0392831695509116925084565b600061120381611559565b6001600160a01b03831661124c5760405162461bcd60e51b815260206004820152601060248201526f24b73b30b634b2103932b1b2b4bb32b960811b6044820152606401610828565b6103e88211156112915760405162461bcd60e51b815260206004820152601060248201526f0a4def2c2d8e8f240e8dede40d0d2ced60831b6044820152606401610828565b601080546001600160a01b0319166001600160a01b038516908117909155600f83905560408051918252602082018490527ff21fccf4d64d86d532c4e4eb86c007b6ad57a460c27d724188625e755ec6cf6d910160405180910390a1505050565b6001600160a01b03918216600090815260056020908152604080832093909416825291909152205460ff1690565b7f1da502c97b13d992ba5b0f56b1459097f12dc749074621a32776546178e1d76261134a81611559565b60006113558461153e565b6001600160a01b03160361137b5760405162461bcd60e51b8152600401610828906123fd565b600082116113c45760405162461bcd60e51b81526020600482015260166024820152755072696365206d75737420626520706f73697469766560501b6044820152606401610828565b6000838152600e6020526040902080541561088c578054839082906113eb906001906125b1565b815481106113fb576113fb61247a565b90600052602060002090600402016003018190555050505050565b60006001600160e01b03198216637965db0b60e01b1480610732575061073282611acc565b6000806114478361153e565b90506001600160a01b03811661073257604051637e27328960e01b815260048101849052602401610828565b6109a58383836001611b1c565b600061148a6117bc565b60006114958461153e565b90506001600160a01b038116158015906114b757506001600160a01b03851615155b1561152a57600a5460ff161561151d576114d18585611926565b61151d5760405162461bcd60e51b815260206004820152601860248201527f526563697069656e74206e6f7420617574686f72697a656400000000000000006044820152606401610828565b61152a8482876000611c22565b611535858585611cf1565b95945050505050565b6000908152600260205260409020546001600160a01b031690565b6109bd8133611de5565b600061156f8383610d1c565b6115ef5760008381526006602090815260408083206001600160a01b03861684529091529020805460ff191660011790556115a73390565b6001600160a01b0316826001600160a01b0316847f2f8788117e7eff1d82e926ec794901d17c78024a50270940304540a733656f0d60405160405180910390a4506001610732565b506000610732565b60006116038383610d1c565b156115ef5760008381526006602090815260408083206001600160a01b0386168085529252808320805460ff1916905551339286917ff6391f5c32d9c69d2a47ea670b442974b53935d1edc7fd64eb21e047a839171b9190a4506001610732565b61166c611e1e565b6007805460ff191690557f5db9ee0a495bf2e6ff9c91a7834c1ba4fdd244a5e8aa4e537bd38aeae4b073aa335b6040516001600160a01b03909116815260200160405180910390a1565b6116be6117bc565b6007805460ff191660011790557f62e78cea01bee320cd4e420270b5ea74000d11b0c9f74754ebdbfc544b05a2586116993390565b6001600160a01b03821661172557604051630b61174360e31b81526001600160a01b0383166004820152602401610828565b6001600160a01b03838116600081815260056020908152604080832094871680845294825291829020805460ff191686151590811790915591519182527f17307eab39ab6107e8899845ad3d59bd9653f200f220920489ca2b5937696c31910160405180910390a3505050565b6002600854036117b557604051633ee5aeb560e01b815260040160405180910390fd5b6002600855565b60075460ff16156117e05760405163d93c066560e01b815260040160405180910390fd5b565b6107fe828260405180602001604052806000815250611e41565b6001600160a01b0383163b15610c3957604051630a85bd0160e11b81526001600160a01b0384169063150b7a029061183e9088908890879087906004016125c4565b6020604051808303816000875af1925050508015611879575060408051601f3d908101601f1916820190925261187691810190612601565b60015b6118e2573d8080156118a7576040519150601f19603f3d011682016040523d82523d6000602084013e6118ac565b606091505b5080516000036118da57604051633250574960e11b81526001600160a01b0385166004820152602401610828565b805160208201fd5b6001600160e01b03198116630a85bd0160e11b1461191e57604051633250574960e11b81526001600160a01b0385166004820152602401610828565b505050505050565b6001600160a01b0382166000908152600b602052604081205460ff161561194f57506001610732565b6119588261153e565b6001600160a01b0316836001600160a01b03160361197857506001610732565b600a54610100900460ff1615611ac3576000828152600c6020526040808220549051634d9f7f9360e01b8152600481018290529091907f00000000000000000000000000000000000000000000000000000000000000006001600160a01b031690634d9f7f9390602401602060405180830381865afa1580156119ff573d6000803e3d6000fd5b505050506040513d601f19601f82011682018060405250810190611a23919061261e565b60405163916730cd60e01b81526001600160a01b03808316600483015287811660248301529192507f00000000000000000000000000000000000000000000000000000000000000009091169063916730cd90604401602060405180830381865afa158015611a96573d6000803e3d6000fd5b505050506040513d601f19601f82011682018060405250810190611aba91906124b9565b92505050610732565b50600192915050565b60006001600160e01b031982166380ac58cd60e01b1480611afd57506001600160e01b03198216635b5e139f60e01b145b8061073257506301ffc9a760e01b6001600160e01b0319831614610732565b8080611b3057506001600160a01b03821615155b15611bf2576000611b408461143b565b90506001600160a01b03831615801590611b6c5750826001600160a01b0316816001600160a01b031614155b8015611b7f5750611b7d81846112f2565b155b15611ba85760405163a9fbf51f60e01b81526001600160a01b0384166004820152602401610828565b8115611bf05783856001600160a01b0316826001600160a01b03167f8c5be1e5ebec7d5bd14f71427d1e84f3dd0314c0f7b2291e5b200ac8c7c3b92560405160405180910390a45b505b5050600090815260046020526040902080546001600160a01b0319166001600160a01b0392909216919091179055565b6000848152600e6020908152604080832081516080810183526001600160a01b0388811680835288821683870181815242858801818152606087018c8152885460018082018b55998d529b8b902097516004909c0290970180549b87166001600160a01b03199c8d16178155925197830180549890961697909a1696909617909355965160028301559151600390910155825191825292810185905287917f3599acc8ea36acf6564c059f8a072f8e7844e39a6f1e8d3be1bcbf6dccecfb00910160405180910390a450505050565b600080611cfd8461153e565b90506001600160a01b03831615611d1957611d19818486611e59565b6001600160a01b03811615611d5757611d36600085600080611b1c565b6001600160a01b038116600090815260036020526040902080546000190190555b6001600160a01b03851615611d86576001600160a01b0385166000908152600360205260409020805460010190555b60008481526002602052604080822080546001600160a01b0319166001600160a01b0389811691821790925591518793918516917fddf252ad1be2c89b69c2b068fc378daa952ba7f163c4a11628f55a4df523b3ef91a4949350505050565b611def8282610d1c565b6107fe5760405163e2517d3f60e01b81526001600160a01b038216600482015260248101839052604401610828565b60075460ff166117e057604051638dfc202b60e01b815260040160405180910390fd5b611e4b8383611ebd565b6109a53360008585856117fc565b611e64838383611f22565b6109a5576001600160a01b038316611e9257604051637e27328960e01b815260048101829052602401610828565b60405163177e802f60e01b81526001600160a01b038316600482015260248101829052604401610828565b6001600160a01b038216611ee757604051633250574960e11b815260006004820152602401610828565b6000611ef583836000611480565b90506001600160a01b038116156109a5576040516339e3563760e11b815260006004820152602401610828565b60006001600160a01b03831615801590611f805750826001600160a01b0316846001600160a01b03161480611f5c5750611f5c84846112f2565b80611f8057506000828152600460205260409020546001600160a01b038481169116145b949350505050565b600060208284031215611f9a57600080fd5b5035919050565b6001600160e01b0319811681146109bd57600080fd5b600060208284031215611fc957600080fd5b813561104681611fa1565b6001600160a01b03811681146109bd57600080fd5b600060208284031215611ffb57600080fd5b813561104681611fd4565b60005b83811015612021578181015183820152602001612009565b50506000910152565b60008151808452612042816020860160208601612006565b601f01601f19169290920160200192915050565b602081526000611046602083018461202a565b6000806040838503121561207c57600080fd5b823561208781611fd4565b946020939093013593505050565b6000806000606084860312156120aa57600080fd5b83356120b581611fd4565b925060208401356120c581611fd4565b929592945050506040919091013590565b600080604083850312156120e957600080fd5b50508035926020909101359150565b80151581146109bd57600080fd5b60006020828403121561211857600080fd5b8135611046816120f8565b6000806040838503121561213657600080fd5b82359150602083013561214881611fd4565b809150509250929050565b6000806040838503121561216657600080fd5b823561217181611fd4565b91506020830135612148816120f8565b60008060006040848603121561219657600080fd5b833567ffffffffffffffff808211156121ae57600080fd5b818601915086601f8301126121c257600080fd5b8135818111156121d157600080fd5b8760208260051b85010111156121e657600080fd5b602092830195509350508401356121fc816120f8565b809150509250925092565b602080825282518282018190526000919060409081850190868401855b8281101561226a57815180516001600160a01b03908116865287820151168786015285810151868601526060908101519085015260809093019290850190600101612224565b5091979650505050505050565b634e487b7160e01b600052604160045260246000fd5b604051601f8201601f1916810167ffffffffffffffff811182821017156122b6576122b6612277565b604052919050565b600067ffffffffffffffff8211156122d8576122d8612277565b50601f01601f191660200190565b600080600080608085870312156122fc57600080fd5b843561230781611fd4565b9350602085013561231781611fd4565b925060408501359150606085013567ffffffffffffffff81111561233a57600080fd5b8501601f8101871361234b57600080fd5b803561235e612359826122be565b61228d565b81815288602083850101111561237357600080fd5b8160208401602083013760006020838301015280935050505092959194509250565b600080604083850312156123a857600080fd5b82356123b381611fd4565b9150602083013561214881611fd4565b600181811c908216806123d757607f821691505b6020821081036123f757634e487b7160e01b600052602260045260246000fd5b50919050565b602080825260149082015273151bdad95b88191bd95cc81b9bdd08195e1a5cdd60621b604082015260600190565b634e487b7160e01b600052601160045260246000fd5b80820281158282048414176107325761073261242b565b60008261247557634e487b7160e01b600052601260045260246000fd5b500490565b634e487b7160e01b600052603260045260246000fd5b6000600182016124a2576124a261242b565b5060010190565b80516124b4816120f8565b919050565b6000602082840312156124cb57600080fd5b8151611046816120f8565b600080600080600080600060e0888a0312156124f157600080fd5b87519650602088015161250381611fd4565b604089015190965061251481611fd4565b60608901519095506005811061252957600080fd5b608089015160a08a0151919550935067ffffffffffffffff81111561254d57600080fd5b8801601f81018a1361255e57600080fd5b805161256c612359826122be565b8181528b602083850101111561258157600080fd5b612592826020830160208601612006565b93506125a391505060c089016124a9565b905092959891949750929550565b818103818111156107325761073261242b565b6001600160a01b03858116825284166020820152604081018390526080606082018190526000906125f79083018461202a565b9695505050505050565b60006020828403121561261357600080fd5b815161104681611fa1565b60006020828403121561263057600080fd5b815161104681611fd456fea2646970667358221220acf1aeb85a656a717757eb7c9b47ccb4ac3080158af18e49a14522d16c4f477064736f6c63430008140033",
  "linkReferences": {},
  "deployedLinkReferences": {}
}