{
  "_format": "hh-sol-artifact-1",
  "contractName": "ProductRegistry",
  "sourceName": "contracts/ProductRegistry.sol",
  "abi": [
    {
      "inputs": [
        {
          "internalType": "address",
          "name": "_retailerRegistry",
          "type": "address"
        },
        {
          "internalType": "address",
          "name": "admin",
          "type": "address"
        }
      ],
      "stateMutability": "nonpayable",
      "type": "constructor"
    },
    {
      "inputs": [],
      "name": "AccessControlBadConfirmation",
      "type": "error"
    },
    {
      "inputs": [
        {
          "internalType": "address",
          "name": "account",
          "type": "address"
        },
        {
          "internalType": "bytes32",
          "name": "neededRole",
          "type": "bytes32"
        }
      ],
      "name": "AccessControlUnauthorizedAccount",
      "type": "error"
    },
    {
      "inputs": [],
      "name": "EnforcedPause",
      "type": "error"
    },
    {
      "inputs": [],
      "name": "ExpectedPause",
      "type": "error"
    },
    {
      "inputs": [],
      "name": "ReentrancyGuardReentrantCall",
      "type": "error"
    },
    {
      "anonymous": false,
      "inputs": [
        {
          "indexed": true,
          "internalType": "bytes32",
          "name": "productId",
          "type": "bytes32"
        },
        {
          "indexed": false,
          "internalType": "string",
          "name": "newMetadataURI",
          "type": "string"
        }
      ],
      "name": "MetadataUpdated",
      "type": "event"
    },
    {
      "anonymous": false,
      "inputs": [
        {
          "indexed": false,
          "internalType": "address",
          "name": "account",
          "type": "address"
        }
      ],
      "name": "Paused",
      "type": "event"
    },
    {
      "anonymous": false,
      "inputs": [
        {
          "indexed": true,
          "internalType": "bytes32",
          "name": "productId",
          "type": "bytes32"
        },
        {
          "indexed": true,
          "internalType": "address",
          "name": "manufacturer",
          "type": "address"
        },
        {
          "indexed": false,
          "internalType": "string",
          "name": "metadataURI",
          "type": "string"
        }
      ],
      "name": "ProductRegistered",
      "type": "event"
    },
    {
      "anonymous": false,
      "inputs": [
        {
          "indexed": true,
          "internalType": "bytes32",
          "name": "productId",
          "type": "bytes32"
        },
        {
          "indexed": false,
          "internalType": "enum ProductRegistry.ProductStatus",
          "name": "newStatus",
          "type": "uint8"
        }
      ],
      "name": "ProductStatusChanged",
      "type": "event"
    },
    {
      "anonymous": false,
      "inputs": [
        {
          "indexed": true,
          "internalType": "bytes32",
          "name": "productId",
          "type": "bytes32"
        },
        {
          "indexed": true,
          "internalType": "address",
          "name": "from",
          "type": "address"
        },
        {
          "indexed": true,
          "internalType": "address",
          "name": "to",
          "type": "address"
        },
        {
          "indexed": false,
          "internalType": "uint256",
          "name": "timestamp",
          "type": "uint256"
        }
      ],
      "name": "ProductTransferred",
      "type": "event"
    },
    {
      "anonymous": false,
      "inputs": [
        {
          "indexed": true,
          "internalType": "bytes32",
          "name": "role",
          "type": "bytes32"
        },
        {
          "indexed": true,
          "internalType": "bytes32",
          "name": "previousAdminRole",
          "type": "bytes32"
        },
        {
          "indexed": true,
          "internalType": "bytes32",
          "name": "newAdminRole",
          "type": "bytes32"
        }
      ],
      "name": "RoleAdminChanged",
      "type": "event"
    },
    {
      "anonymous": false,
      "inputs": [
        {
          "indexed": true,
          "internalType": "bytes32",
          "name": "role",
          "type": "bytes32"
        },
        {
          "indexed": true,
          "internalType": "address",
          "name": "account",
          "type": "address"
        },
        {
          "indexed": true,
          "internalType": "address",
          "name": "sender",
          "type": "address"
        }
      ],
      "name": "RoleGranted",
      "type": "event"
    },
    {
      "anonymous": false,
      "inputs": [
        {
          "indexed": true,
          "internalType": "bytes32",
          "name": "role",
          "type": "bytes32"
        },
        {
          "indexed": true,
          "internalType": "address",
          "name": "account",
          "type": "address"
        },
        {
          "indexed": true,
          "internalType": "address",
          "name": "sender",
          "type": "address"
        }
      ],
      "name": "RoleRevoked",
      "type": "event"
    },
    {
      "anonymous": false,
      "inputs": [
        {
          "indexed": false,
          "internalType": "address",
          "name": "account",
          "type": "address"
        }
      ],
      "name": "Unpaused",
      "type": "event"
    },
    {
      "anonymous": false,
      "inputs": [
        {
          "indexed": true,
          "internalType": "bytes32",
          "name": "productId",
          "type": "bytes32"
        },
        {
          "indexed": false,
          "internalType": "bytes32",
          "name": "verificationHash",
          "type": "bytes32"
        }
      ],
      "name": "VerificationRecorded",
      "type": "event"
    },
    {
      "inputs": [],
      "name": "DEFAULT_ADMIN_ROLE",
      "outputs": [
        {
          "internalType": "bytes32",
          "name": "",
          "type": "bytes32"
        }
      ],
      "stateMutability": "view",
      "type": "function"
    },
    {
      "inputs": [],
      "name": "MANUFACTURER_ROLE",
      "outputs": [
        {
          "internalType": "bytes32",
          "name": "",
          "type": "bytes32"
        }
      ],
      "stateMutability": "view",
      "type": "function"
    },
    {
      "inputs": [],
      "name": "REGISTRY_ADMIN_ROLE",
      "outputs": [
        {
          "internalType": "bytes32",
          "name": "",
          "type": "bytes32"
        }
      ],
      "stateMutability": "view",
      "type": "function"
    },
    {
      "inputs": [],
      "name": "VERIFIER_ROLE",
      "outputs": [
        {
          "internalType": "bytes32",
          "name": "",
          "type": "bytes32"
        }
      ],
      "stateMutability": "view",
      "type": "function"
    },
    {
      "inputs": [
        {
          "internalType": "bytes32",
          "name": "productId",
          "type": "bytes32"
        }
      ],
      "name": "getBrandOwner",
      "outputs": [
        {
          "internalType": "address",
          "name": "",
          "type": "address"
        }
      ],
      "stateMutability": "view",
      "type": "function"
    },
    {
      "inputs": [
        {
          "internalType": "bytes32",
          "name": "productId",
          "type": "bytes32"
        }
      ],
      "name": "getProduct",
      "outputs": [
        {
          "components": [
            {
              "internalType": "bytes32",
              "name": "productId",
              "type": "bytes32"
            },
            {
              "internalType": "address",
              "name": "manufacturer",
              "type": "address"
            },
            {
              "internalType": "address",
              "name": "currentOwner",
              "type": "address"
            },
            {
              "internalType": "enum ProductRegistry.ProductStatus",
              "name": "status",
              "type": "uint8"
            },
            {
              "internalType": "uint256",
              "name": "registeredAt",
              "type": "uint256"
            },
            {
              "internalType": "string",
              "name": "metadataURI",
              "type": "string"
            },
            {
              "internalType": "bool",
              "name": "exists",
              "type": "bool"
            }
          ],
          "internalType": "struct ProductRegistry.Product",
          "name": "",
          "type": "tuple"
        }
      ],
      "stateMutability": "view",
      "type": "function"
    },
    {
      "inputs": [
        {
          "internalType": "bytes32",
          "name": "productId",
          "type": "bytes32"
        }
      ],
      "name": "getProductHistory",
      "outputs": [
        {
          "components": [
            {
              "internalType": "address",
              "name": "from",
              "type": "address"
            },
            {
              "internalType": "address",
              "name": "to",
              "type": "address"
            },
            {
              "internalType": "uint256",
              "name": "timestamp",
              "type": "uint256"
            },
            {
              "internalType": "string",
              "name": "location",
              "type": "string"
            },
            {
              "internalType": "bytes32",
              "name": "verificationHash",
              "type": "bytes32"
            }
          ],
          "internalType": "struct ProductRegistry.TransferEvent[]",
          "name": "",
          "type": "tuple[]"
        }
      ],
      "stateMutability": "view",
      "type": "function"
    },
    {
      "inputs": [
        {
          "internalType": "bytes32",
          "name": "role",
          "type": "bytes32"
        }
      ],
      "name": "getRoleAdmin",
      "outputs": [
        {
          "internalType": "bytes32",
          "name": "",
          "type": "bytes32"
        }
      ],
      "stateMutability": "view",
      "type": "function"
    },
    {
      "inputs": [
        {
          "internalType": "bytes32",
          "name": "role",
          "type": "bytes32"
        },
        {
          "internalType": "address",
          "name": "account",
          "type": "address"
        }
      ],
      "name": "grantRole",
      "outputs": [],
      "stateMutability": "nonpayable",
      "type": "function"
    },
    {
      "inputs": [
        {
          "internalType": "bytes32",
          "name": "role",
          "type": "bytes32"
        },
        {
          "internalType": "address",
          "name": "account",
          "type": "address"
        }
      ],
      "name": "hasRole",
      "outputs": [
        {
          "internalType": "bool",
          "name": "",
          "type": "bool"
        }
      ],
      "stateMutability": "view",
      "type": "function"
    },
    {
      "inputs": [
        {
          "internalType": "bytes32",
          "name": "productId",
          "type": "bytes32"
        }
      ],
      "name": "isAuthentic",
      "outputs": [
        {
          "internalType": "bool",
          "name": "",
          "type": "bool"
        }
      ],
      "stateMutability": "view",
      "type": "function"
    },
    {
      "inputs": [
        {
          "internalType": "bytes32",
          "name": "productId",
          "type": "bytes32"
        }
      ],
      "name": "isRegistered",
      "outputs": [
        {
          "internalType": "bool",
          "name": "",
          "type": "bool"
        }
      ],
      "stateMutability": "view",
      "type": "function"
    },
    {
      "inputs": [],
      "name": "pause",
      "outputs": [],
      "stateMutability": "nonpayable",
      "type": "function"
    },
    {
      "inputs": [],
      "name": "paused",
      "outputs": [
        {
          "internalType": "bool",
          "name": "",
          "type": "bool"
        }
      ],
      "stateMutability": "view",
      "type": "function"
    },
    {
      "inputs": [
        {
          "internalType": "bytes32",
          "name": "",
          "type": "bytes32"
        }
      ],
      "name": "products",
      "outputs": [
        {
          "internalType": "bytes32",
          "name": "productId",
          "type": "bytes32"
        },
        {
          "internalType": "address",
          "name": "manufacturer",
          "type": "address"
        },
        {
          "internalType": "address",
          "name": "currentOwner",
          "type": "address"
        },
        {
          "internalType": "enum ProductRegistry.ProductStatus",
          "name": "status",
          "type": "uint8"
        },
        {
          "internalType": "uint256",
          "name": "registeredAt",
          "type": "uint256"
        },
        {
          "internalType": "string",
          "name": "metadataURI",
          "type": "string"
        },
        {
          "internalType": "bool",
          "name": "exists",
          "type": "bool"
        }
      ],
      "stateMutability": "view",
      "type": "function"
    },
    {
      "inputs": [
        {
          "internalType": "bytes32",
          "name": "productId",
          "type": "bytes32"
        },
        {
          "internalType": "bytes32",
          "name": "verificationHash",
          "type": "bytes32"
        }
      ],
      "name": "recordVerification",
      "outputs": [],
      "stateMutability": "nonpayable",
      "type": "function"
    },
    {
      "inputs": [
        {
          "internalType": "string",
          "name": "metadataURI",
          "type": "string"
        }
      ],
      "name": "registerProduct",
      "outputs": [
        {
          "internalType": "bytes32",
          "name": "",
          "type": "bytes32"
        }
      ],
      "stateMutability": "nonpayable",
      "type": "function"
    },
    {
      "inputs": [
        {
          "internalType": "bytes32",
          "name": "role",
          "type": "bytes32"
        },
        {
          "internalType": "address",
          "name": "callerConfirmation",
          "type": "address"
        }
      ],
      "name": "renounceRole",
      "outputs": [],
      "stateMutability": "nonpayable",
      "type": "function"
    },
    {
      "inputs": [],
      "name": "retailerRegistry",
      "outputs": [
        {
          "internalType": "contract RetailerRegistry",
          "name": "",
          "type": "address"
        }
      ],
      "stateMutability": "view",
      "type": "function"
    },
    {
      "inputs": [
        {
          "internalType": "bytes32",
          "name": "role",
          "type": "bytes32"
        },
        {
          "internalType": "address",
          "name": "account",
          "type": "address"
        }
      ],
      "name": "revokeRole",
      "outputs": [],
      "stateMutability": "nonpayable",
      "type": "function"
    },
    {
      "inputs": [
        {
          "internalType": "bytes4",
          "name": "interfaceId",
          "type": "bytes4"
        }
      ],
      "name": "supportsInterface",
      "outputs": [
        {
          "internalType": "bool",
          "name": "",
          "type": "bool"
        }
      ],
      "stateMutability": "view",
      "type": "function"
    },
    {
      "inputs": [
        {
          "internalType": "bytes32",
          "name": "productId",
          "type": "bytes32"
        },
        {
          "internalType": "address",
          "name": "to",
          "type": "address"
        },
        {
          "internalType": "string",
          "name": "location",
          "type": "string"
        },
        {
          "internalType": "bytes32",
          "name": "verificationHash",
          "type": "bytes32"
        }
      ],
      "name": "transferProduct",
      "outputs": [],
      "stateMutability": "nonpayable",
      "type": "function"
    },
    {
      "inputs": [],
      "name": "unpause",
      "outputs": [],
      "stateMutability": "nonpayable",
      "type": "function"
    },
    {
      "inputs": [
        {
          "internalType": "bytes32",
          "name": "productId",
          "type": "bytes32"
        },
        {
          "internalType": "string",
          "name": "newMetadataURI",
          "type": "string"
        }
      ],
      "name": "updateMetadata",
      "outputs": [],
      "stateMutability": "nonpayable",
      "type": "function"
    },
    {
      "inputs": [
        {
          "internalType": "bytes32",
          "name": "productId",
          "type": "bytes32"
        },
        {
          "internalType": "string",
          "name": "newURI",
          "type": "string"
        }
      ],
      "name": "updateMetadataURI",
      "outputs": [],
      "stateMutability": "nonpayable",
      "type": "function"
    },
    {
      "inputs": [
        {
          "internalType": "bytes32",
          "name": "productId",
          "type": "bytes32"
        },
        {
          "internalType": "enum ProductRegistry.ProductStatus",
          "name": "newStatus",
          "type": "uint8"
        }
      ],
      "name": "updateProductStatus",
      "outputs": [],
      "stateMutability": "nonpayable",
      "type": "function"
    },
    {
      "inputs": [
        {
          "internalType": "bytes32",
          "name": "productId",
          "type": "bytes32"
        },
        {
          "internalType": "enum ProductRegistry.ProductStatus",
          "name": "newStatus",
          "type": "uint8"
        }
      ],
      "name": "updateStatus",
      "outputs": [],
      "stateMutability": "nonpayable",
      "type": "function"
    }
  ],
  "bytecode": "0x60a06040523480156200001157600080fd5b506040516200221d3803806200221d83398101604081905262000034916200019f565b600180556001600160a01b038216620000835760405162461bcd60e51b815260206004820152600d60248201526c5a65726f20726567697374727960981b604482015260640160405180910390fd5b6001600160a01b0382166080526200009d600082620000d3565b50620000ca7fbb28eb1a0cfabcecf96003fab466159bc2e051e49d79baf049890044e907244082620000d3565b505050620001d7565b6000828152602081815260408083206001600160a01b038516845290915281205460ff1662000178576000838152602081815260408083206001600160a01b03861684529091529020805460ff191660011790556200012f3390565b6001600160a01b0316826001600160a01b0316847f2f8788117e7eff1d82e926ec794901d17c78024a50270940304540a733656f0d60405160405180910390a45060016200017c565b5060005b92915050565b80516001600160a01b03811681146200019a57600080fd5b919050565b60008060408385031215620001b357600080fd5b620001be8362000182565b9150620001ce6020840162000182565b90509250929050565b608051612023620001fa600039600081816102160152610fb201526120236000f3fe608060405234801561001057600080fd5b50600436106101a95760003560e01c806360c5189e116100f9578063a217fddf11610097578063bf584c4b11610071578063bf584c4b146103e9578063d547741f146103fe578063e43f30a414610411578063e7705db61461043157600080fd5b8063a217fddf146103bb578063a375765e146103c3578063b216ebd6146103d657600080fd5b80638456cb59116100d35780638456cb591461037857806391d1485414610380578063923945d214610393578063965288b0146103a657600080fd5b806360c5189e1461032c578063660930e81461033f578063790543911461035257600080fd5b806327258b22116101665780633a20e9df116101405780633a20e9df146102cd5780633f4ba83a146102ed5780634d9f7f93146102f55780635c975abb1461032157600080fd5b806327258b22146102815780632f2ff15d146102a757806336568abe146102ba57600080fd5b806301ffc9a7146101ae578063054372ed146101d657806309298408146101eb5780630ed71932146101fe57806313ad9f4414610211578063248a9ca314610250575b600080fd5b6101c16101bc3660046118c4565b610458565b60405190151581526020015b60405180910390f35b6101e96101e43660046118f5565b61048f565b005b6101c16101f9366004611929565b610600565b6101e961020c3660046118f5565b610653565b6102387f000000000000000000000000000000000000000000000000000000000000000081565b6040516001600160a01b0390911681526020016101cd565b61027361025e366004611929565b60009081526020819052604090206001015490565b6040519081526020016101cd565b6101c161028f366004611929565b60009081526003602052604090206005015460ff1690565b6101e96102b536600461195e565b61077b565b6101e96102c836600461195e565b6107a6565b6102e06102db366004611929565b6107de565b6040516101cd9190611a08565b6101e9610943565b610238610303366004611929565b6000908152600360205260409020600101546001600160a01b031690565b60025460ff166101c1565b6101e961033a366004611acf565b610966565b61027361034d366004611b1b565b610a4b565b610365610360366004611929565b610d8f565b6040516101cd9796959493929190611b5d565b6101e9610e6b565b6101c161038e36600461195e565b610e8b565b6101e96103a1366004611bb6565b610eb4565b610273600080516020611fce83398151915281565b610273600081565b6101e96103d1366004611acf565b611221565b6101e96103e4366004611c18565b6112aa565b610273600080516020611fae83398151915281565b6101e961040c36600461195e565b611435565b61042461041f366004611929565b61145a565b6040516101cd9190611c3a565b6102737f0ce23c3e399818cfee81a7ab0880f714e53d7672b08df0fa62f2843416e1ea0981565b60006001600160e01b03198216637965db0b60e01b148061048957506301ffc9a760e01b6001600160e01b03198316145b92915050565b610497611596565b6000828152600360205260409020600581015460ff166104d25760405162461bcd60e51b81526004016104c990611ce0565b60405180910390fd5b60028101546001600160a01b03163314806105005750610500600080516020611fce83398151915233610e8b565b61053d5760405162461bcd60e51b815260206004820152600e60248201526d139bdd08185d5d1a1bdc9a5e995960921b60448201526064016104c9565b600281015461055690600160a01b900460ff16836115bc565b6105975760405162461bcd60e51b815260206004820152601260248201527124b73b30b634b2103a3930b739b4ba34b7b760711b60448201526064016104c9565b60028101805483919060ff60a01b1916600160a01b8360048111156105be576105be61198a565b0217905550827fd8e74e9ef57fde612d6ddfbaafef1bdc114dd9dce66f41b932d19adcff9c3c9c836040516105f39190611d03565b60405180910390a2505050565b60008181526003602052604081206005015460ff16801561048957506004600083815260036020526040902060020154600160a01b900460ff16600481111561064b5761064b61198a565b141592915050565b7f0ce23c3e399818cfee81a7ab0880f714e53d7672b08df0fa62f2843416e1ea0961067d816116a4565b610685611596565b6000838152600360205260409020600581015460ff166106b75760405162461bcd60e51b81526004016104c990611ce0565b60028101546106d090600160a01b900460ff16846115bc565b6107115760405162461bcd60e51b815260206004820152601260248201527124b73b30b634b2103a3930b739b4ba34b7b760711b60448201526064016104c9565b60028101805484919060ff60a01b1916600160a01b8360048111156107385761073861198a565b0217905550837fd8e74e9ef57fde612d6ddfbaafef1bdc114dd9dce66f41b932d19adcff9c3c9c8460405161076d9190611d03565b60405180910390a250505050565b600082815260208190526040902060010154610796816116a4565b6107a083836116ae565b50505050565b6001600160a01b03811633146107cf5760405163334bd91960e11b815260040160405180910390fd5b6107d98282611740565b505050565b6040805160e08101825260008082526020820181905291810182905260608082018390526080820183905260a082015260c0810191909152600082815260036020908152604091829020825160e0810184528154815260018201546001600160a01b0390811693820193909352600282015492831693810193909352906060830190600160a01b900460ff16600481111561087b5761087b61198a565b600481111561088c5761088c61198a565b8152602001600382015481526020016004820180546108aa90611d11565b80601f01602080910402602001604051908101604052809291908181526020018280546108d690611d11565b80156109235780601f106108f857610100808354040283529160200191610923565b820191906000526020600020905b81548152906001019060200180831161090657829003601f168201915b50505091835250506005919091015460ff16151560209091015292915050565b600080516020611fae83398151915261095b816116a4565b6109636117ab565b50565b61096e611596565b6000838152600360205260409020600581015460ff166109a05760405162461bcd60e51b81526004016104c990611ce0565b60018101546001600160a01b03163314806109ce57506109ce600080516020611fae83398151915233610e8b565b610a095760405162461bcd60e51b815260206004820152600c60248201526b155b985d5d1a1bdc9a5e995960a21b60448201526064016104c9565b60048101610a18838583611daf565b50837fe36c73fd13989812054eaa73a813bdd65752bda9044a9bdac079e4143c6ab7bd848460405161076d929190611e6f565b6000600080516020611fce833981519152610a65816116a4565b610a6d611596565b600033858542604051602001610a869493929190611e9e565b60408051601f1981840301815291815281516020928301206000818152600390935291206005015490915060ff1615610afa5760405162461bcd60e51b815260206004820152601660248201527550726f6475637420616c72656164792065786973747360501b60448201526064016104c9565b6040805160e081018252828152336020820181905291810191909152606081016000815260200142815260200186868080601f016020809104026020016040519081016040528093929190818152602001838380828437600092018290525093855250506001602093840181905285835260038452604092839020855181559385015190840180546001600160a01b039283166001600160a01b0319918216179091559285015160028501805491909216938116841782556060860151939192506001600160a81b03191617600160a01b836004811115610bdd57610bdd61198a565b02179055506080820151600382015560a08201516004820190610c009082611ecb565b5060c091909101516005909101805491151560ff199092169190911790556000818152600460209081526040808320815160a08101835293845233848401819052428584018190528351808501855260168152754d616e75666163747572696e6720466163696c69747960501b81870152606087015292519194936080850193610cb0938893920192835260609190911b6bffffffffffffffffffffffff19166020830152603482015260540190565b60408051808303601f190181529181528151602092830120909252835460018082018655600095865294829020845160059092020180546001600160a01b03199081166001600160a01b0393841617825592850151958101805490931695909116949094179055810151600283015560608101519091906003820190610d369082611ecb565b50608082015181600401555050336001600160a01b0316817f7ecc8a52aabc9622bf5ed8adde3458cdb35d6940c59bf1052230a49390821c528787604051610d7f929190611e6f565b60405180910390a3949350505050565b60036020819052600091825260409091208054600182015460028301549383015460048401805493956001600160a01b039384169593811694600160a01b90910460ff16939190610ddf90611d11565b80601f0160208091040260200160405190810160405280929190818152602001828054610e0b90611d11565b8015610e585780601f10610e2d57610100808354040283529160200191610e58565b820191906000526020600020905b815481529060010190602001808311610e3b57829003601f168201915b5050506005909301549192505060ff1687565b600080516020611fae833981519152610e83816116a4565b6109636117fd565b6000918252602082815260408084206001600160a01b0393909316845291905290205460ff1690565b610ebc61183a565b610ec4611596565b6000858152600360205260409020600581015460ff16610ef65760405162461bcd60e51b81526004016104c990611ce0565b60028101546001600160a01b03163314610f3e5760405162461bcd60e51b81526020600482015260096024820152682737ba1037bbb732b960b91b60448201526064016104c9565b6001600160a01b038516610f865760405162461bcd60e51b815260206004820152600f60248201526e496e76616c6964206164647265737360881b60448201526064016104c9565b600181015460405163916730cd60e01b81526001600160a01b03918216600482015286821660248201527f00000000000000000000000000000000000000000000000000000000000000009091169063916730cd90604401602060405180830381865afa158015610ffb573d6000803e3d6000fd5b505050506040513d601f19601f8201168201806040525081019061101f9190611f8b565b8061103d575061103d600080516020611fce83398151915286610e8b565b6110815760405162461bcd60e51b81526020600482015260156024820152742ab730baba3437b934bd32b2103932ba30b4b632b960591b60448201526064016104c9565b6002810180546001600160a01b0387166001600160a81b03199091168117600160a01b17909155600087815260046020908152604091829020825160a0810184523381528083019490945242848401528251601f88018390048302810183019093528683529291606083019188908890819084018382808284376000920182905250938552505050602091820186905283546001808201865594825290829020835160059092020180546001600160a01b03199081166001600160a01b0393841617825592840151948101805490931694909116939093179055604081015160028301556060810151909190600382019061117c9082611ecb565b50608082015181600401555050846001600160a01b0316336001600160a01b0316877fa21877001fef61186647f5d821094a656ae01e8f0c8565c9b4d567d119dc19bb426040516111cf91815260200190565b60405180910390a4857fd8e74e9ef57fde612d6ddfbaafef1bdc114dd9dce66f41b932d19adcff9c3c9c60016040516112089190611d03565b60405180910390a25061121a60018055565b5050505050565b611229611596565b6000838152600360205260409020600581015460ff1661125b5760405162461bcd60e51b81526004016104c990611ce0565b60018101546001600160a01b03163314610a095760405162461bcd60e51b815260206004820152601060248201526f2737ba1036b0b73ab330b1ba3ab932b960811b60448201526064016104c9565b7f0ce23c3e399818cfee81a7ab0880f714e53d7672b08df0fa62f2843416e1ea096112d4816116a4565b60008381526003602052604090206005015460ff166113225760405162461bcd60e51b815260206004820152600a602482015269125b9d985b1a5908125160b21b60448201526064016104c9565b6000838152600460209081526040808320815160a08101835260038085528386206002908101546001600160a01b039081168085528388528488019081524285880190815287518089019098526011885270566572696669636174696f6e204e6f646560781b888a015260608601978852608086018c9052865460018181018955978b5298909920855160059099020180549883166001600160a01b0319998a1617815590519581018054969092169590971694909417909355945191840191909155905190928201906113f69082611ecb565b50608082015181600401555050827fa887cd7f9068cb4861e8e421adf1211d0db59502478571f0e1ceb1d596d8aa3e836040516105f391815260200190565b600082815260208190526040902060010154611450816116a4565b6107a08383611740565b606060046000838152602001908152602001600020805480602002602001604051908101604052809291908181526020016000905b8282101561158b5760008481526020908190206040805160a0810182526005860290920180546001600160a01b039081168452600182015416938301939093526002830154908201526003820180549192916060840191906114f090611d11565b80601f016020809104026020016040519081016040528092919081815260200182805461151c90611d11565b80156115695780601f1061153e57610100808354040283529160200191611569565b820191906000526020600020905b81548152906001019060200180831161154c57829003601f168201915b505050505081526020016004820154815250508152602001906001019061148f565b505050509050919050565b60025460ff16156115ba5760405163d93c066560e01b815260040160405180910390fd5b565b6000808360048111156115d1576115d161198a565b1480156115ef575060018260048111156115ed576115ed61198a565b145b156115fc57506001610489565b60018360048111156116105761161061198a565b14801561162e5750600282600481111561162c5761162c61198a565b145b1561163b57506001610489565b600283600481111561164f5761164f61198a565b14801561166d5750600382600481111561166b5761166b61198a565b145b1561167a57506001610489565b600482600481111561168e5761168e61198a565b0361169b57506001610489565b50600092915050565b6109638133611864565b60006116ba8383610e8b565b611738576000838152602081815260408083206001600160a01b03861684529091529020805460ff191660011790556116f03390565b6001600160a01b0316826001600160a01b0316847f2f8788117e7eff1d82e926ec794901d17c78024a50270940304540a733656f0d60405160405180910390a4506001610489565b506000610489565b600061174c8383610e8b565b15611738576000838152602081815260408083206001600160a01b0386168085529252808320805460ff1916905551339286917ff6391f5c32d9c69d2a47ea670b442974b53935d1edc7fd64eb21e047a839171b9190a4506001610489565b6117b36118a1565b6002805460ff191690557f5db9ee0a495bf2e6ff9c91a7834c1ba4fdd244a5e8aa4e537bd38aeae4b073aa335b6040516001600160a01b03909116815260200160405180910390a1565b611805611596565b6002805460ff191660011790557f62e78cea01bee320cd4e420270b5ea74000d11b0c9f74754ebdbfc544b05a2586117e03390565b60026001540361185d57604051633ee5aeb560e01b815260040160405180910390fd5b6002600155565b61186e8282610e8b565b61189d5760405163e2517d3f60e01b81526001600160a01b0382166004820152602481018390526044016104c9565b5050565b60025460ff166115ba57604051638dfc202b60e01b815260040160405180910390fd5b6000602082840312156118d657600080fd5b81356001600160e01b0319811681146118ee57600080fd5b9392505050565b6000806040838503121561190857600080fd5b8235915060208301356005811061191e57600080fd5b809150509250929050565b60006020828403121561193b57600080fd5b5035919050565b80356001600160a01b038116811461195957600080fd5b919050565b6000806040838503121561197157600080fd5b8235915061198160208401611942565b90509250929050565b634e487b7160e01b600052602160045260246000fd5b600581106119be57634e487b7160e01b600052602160045260246000fd5b9052565b6000815180845260005b818110156119e8576020818501810151868301820152016119cc565b506000602082860101526020601f19601f83011685010191505092915050565b60208152815160208201526000602083015160018060a01b03808216604085015280604086015116606085015250506060830151611a4960808401826119a0565b50608083015160a083015260a083015160e060c0840152611a6e6101008401826119c2565b905060c0840151151560e08401528091505092915050565b60008083601f840112611a9857600080fd5b50813567ffffffffffffffff811115611ab057600080fd5b602083019150836020828501011115611ac857600080fd5b9250929050565b600080600060408486031215611ae457600080fd5b83359250602084013567ffffffffffffffff811115611b0257600080fd5b611b0e86828701611a86565b9497909650939450505050565b60008060208385031215611b2e57600080fd5b823567ffffffffffffffff811115611b4557600080fd5b611b5185828601611a86565b90969095509350505050565b8781526001600160a01b038781166020830152861660408201526000611b8660608301876119a0565b84608083015260e060a0830152611ba060e08301856119c2565b905082151560c083015298975050505050505050565b600080600080600060808688031215611bce57600080fd5b85359450611bde60208701611942565b9350604086013567ffffffffffffffff811115611bfa57600080fd5b611c0688828901611a86565b96999598509660600135949350505050565b60008060408385031215611c2b57600080fd5b50508035926020909101359150565b60006020808301818452808551808352604092508286019150828160051b87010184880160005b83811015611cd257888303603f19018552815180516001600160a01b039081168552888201511688850152868101518785015260608082015160a08287018190529190611cb0838801826119c2565b6080948501519790940196909652505094870194925090860190600101611c61565b509098975050505050505050565b602080825260099082015268139bdd08199bdd5b9960ba1b604082015260600190565b6020810161048982846119a0565b600181811c90821680611d2557607f821691505b602082108103611d4557634e487b7160e01b600052602260045260246000fd5b50919050565b634e487b7160e01b600052604160045260246000fd5b601f8211156107d957600081815260208120601f850160051c81016020861015611d885750805b601f850160051c820191505b81811015611da757828155600101611d94565b505050505050565b67ffffffffffffffff831115611dc757611dc7611d4b565b611ddb83611dd58354611d11565b83611d61565b6000601f841160018114611e0f5760008515611df75750838201355b600019600387901b1c1916600186901b17835561121a565b600083815260209020601f19861690835b82811015611e405786850135825560209485019460019092019101611e20565b5086821015611e5d5760001960f88860031b161c19848701351681555b505060018560011b0183555050505050565b60208152816020820152818360408301376000818301604090810191909152601f909201601f19160101919050565b6bffffffffffffffffffffffff198560601b16815282846014830137601492019182015260340192915050565b815167ffffffffffffffff811115611ee557611ee5611d4b565b611ef981611ef38454611d11565b84611d61565b602080601f831160018114611f2e5760008415611f165750858301515b600019600386901b1c1916600185901b178555611da7565b600085815260208120601f198616915b82811015611f5d57888601518255948401946001909101908401611f3e565b5085821015611f7b5787850151600019600388901b60f8161c191681555b5050505050600190811b01905550565b600060208284031215611f9d57600080fd5b815180151581146118ee57600080fdfebb28eb1a0cfabcecf96003fab466159bc2e051e49d79baf049890044e9072440eefb95e842a3287179d933b4460be539a1d5af11aa8b325bb45c5c8dc92de4eda2646970667358221220d074f051fd9f36aee3799bc79cc873053657db1deeb61eeb6c75e2def26b260f64736f6c63430008140033",
  "linkReferences": {},
  "deployedLinkReferences": {}
}