{
  "_format": "hh-sol-artifact-1",
  "contractName": "ProductRegistry",
  "sourceName": "contracts/ProductRegistry.sol",
  "abi": [
    {
      "inputs": [
        {
          "internalType": "address",
          "name": "_retailerRegistry",
          "type": "address"
        },
        {
          "internalType": "address",
          "name": "admin",
          "type": "address"
        }
      ],
      "stateMutability": "nonpayable",
      "type": "constructor"
    },
    {
      "inputs": [],
      "name": "AccessControlBadConfirmation",
      "type": "error"
    },
    {
      "inputs": [
        {
          "internalType": "address",
          "name": "account",
          "type": "address"
        },
        {
          "internalType": "bytes32",
          "name": "neededRole",
          "type": "bytes32"
        }
      ],
      "name": "AccessControlUnauthorizedAccount",
      "type": "error"
    },
    {
      "inputs": [],
      "name": "EnforcedPause",
      "type": "error"
    },
    {
      "inputs": [],
      "name": "ExpectedPause",
      "type": "error"
    },
    {
      "inputs": [],
      "name": "ReentrancyGuardReentrantCall",
      "type": "error"
    },
    {
      "anonymous": false,
      "inputs": [
        {
          "indexed": true,
          "internalType": "bytes32",
          "name": "productId",
          "type": "bytes32"
        },
        {
          "indexed": false,
          "internalType": "string",
          "name": "newMetadataURI",
          "type": "string"
        }
      ],
      "name": "MetadataUpdated",
      "type": "event"
    },
    {
      "anonymous": false,
      "inputs": [
        {
          "indexed": false,
          "internalType": "address",
          "name": "account",
          "type": "address"
        }
      ],
      "name": "Paused",
      "type": "event"
    },
    {
      "anonymous": false,
      "inputs": [
        {
          "indexed": true,
          "internalType": "bytes32",
          "name": "productId",
          "type": "bytes32"
        },
        {
          "indexed": true,
          "internalType": "address",
          "name": "manufacturer",
          "type": "address"
        },
        {
          "indexed": false,
          "internalType": "string",
          "name": "metadataURI",
          "type": "string"
        }
      ],
      "name": "ProductRegistered",
      "type": "event"
    },
    {
      "anonymous": false,
      "inputs": [
        {
          "indexed": true,
          "internalType": "bytes32",
          "name": "productId",
          "type": "bytes32"
        },
        {
          "indexed": false,
          "internalType": "enum ProductRegistry.ProductStatus",
          "name": "newStatus",
          "type": "uint8"
        }
      ],
      "name": "ProductStatusChanged",
      "type": "event"
    },
    {
      "anonymous": false,
      "inputs": [
        {
          "indexed": true,
          "internalType": "bytes32",
          "name": "productId",
          "type": "bytes32"
        },
        {
          "indexed": true,
          "internalType": "address",
          "name": "from",
          "type": "address"
        },
        {
          "indexed": true,
          "internalType": "address",
          "name": "to",
          "type": "address"
        },
        {
          "indexed": false,
          "internalType": "uint256",
          "name": "timestamp",
          "type": "uint256"
        }
      ],
      "name": "ProductTransferred",
      "type": "event"
    },
    {
      "anonymous": false,
      "inputs": [
        {
          "indexed": true,
          "internalType": "bytes32",
          "name": "role",
          "type": "bytes32"
        },
        {
          "indexed": true,
          "internalType": "bytes32",
          "name": "previousAdminRole",
          "type": "bytes32"
        },
        {
          "indexed": true,
          "internalType": "bytes32",
          "name": "newAdminRole",
          "type": "bytes32"
        }
      ],
      "name": "RoleAdminChanged",
      "type": "event"
    },
    {
      "anonymous": false,
      "inputs": [
        {
          "indexed": true,
          "internalType": "bytes32",
          "name": "role",
          "type": "bytes32"
        },
        {
          "indexed": true,
          "internalType": "address",
          "name": "account",
          "type": "address"
        },
        {
          "indexed": true,
          "internalType": "address",
          "name": "sender",
          "type": "address"
        }
      ],
      "name": "RoleGranted",
      "type": "event"
    },
    {
      "anonymous": false,
      "inputs": [
        {
          "indexed": true,
          "internalType": "bytes32",
          "name": "role",
          "type": "bytes32"
        },
        {
          "indexed": true,
          "internalType": "address",
          "name": "account",
          "type": "address"
        },
        {
          "indexed": true,
          "internalType": "address",
          "name": "sender",
          "type": "address"
        }
      ],
      "name": "RoleRevoked",
      "type": "event"
    },
    {
      "anonymous": false,
      "inputs": [
        {
          "indexed": false,
          "internalType": "address",
          "name": "account",
          "type": "address"
        }
      ],
      "name": "Unpaused",
      "type": "event"
    },
    {
      "anonymous": false,
      "inputs": [
        {
          "indexed": true,
          "internalType": "bytes32",
          "name": "productId",
          "type": "bytes32"
        },
        {
          "indexed": false,
          "internalType": "bytes32",
          "name": "verificationHash",
          "type": "bytes32"
        }
      ],
      "name": "VerificationRecorded",
      "type": "event"
    },
    {
      "inputs": [],
      "name": "DEFAULT_ADMIN_ROLE",
      "outputs": [
        {
          "internalType": "bytes32",
          "name": "",
          "type": "bytes32"
        }
      ],
      "stateMutability": "view",
      "type": "function"
    },
    {
      "inputs": [],
      "name": "MANUFACTURER_ROLE",
      "outputs": [
        {
          "internalType": "bytes32",
          "name": "",
          "type": "bytes32"
        }
      ],
      "stateMutability": "view",
      "type": "function"
    },
    {
      "inputs": [],
      "name": "REGISTRY_ADMIN_ROLE",
      "outputs": [
        {
          "internalType": "bytes32",
          "name": "",
          "type": "bytes32"
        }
      ],
      "stateMutability": "view",
      "type": "function"
    },
    {
      "inputs": [],
      "name": "VERIFIER_ROLE",
      "outputs": [
        {
          "internalType": "bytes32",
          "name": "",
          "type": "bytes32"
        }
      ],
      "stateMutability": "view",
      "type": "function"
    },
    {
      "inputs": [
        {
          "internalType": "bytes32",
          "name": "productId",
          "type": "bytes32"
        }
      ],
      "name": "confirmReceipt",
      "outputs": [],
      "stateMutability": "nonpayable",
      "type": "function"
    },
    {
      "inputs": [
        {
          "internalType": "bytes32",
          "name": "productId",
          "type": "bytes32"
        }
      ],
      "name": "getBrandOwner",
      "outputs": [
        {
          "internalType": "address",
          "name": "",
          "type": "address"
        }
      ],
      "stateMutability": "view",
      "type": "function"
    },
    {
      "inputs": [
        {
          "internalType": "bytes32",
          "name": "productId",
          "type": "bytes32"
        }
      ],
      "name": "getProduct",
      "outputs": [
        {
          "components": [
            {
              "internalType": "bytes32",
              "name": "productId",
              "type": "bytes32"
            },
            {
              "internalType": "address",
              "name": "manufacturer",
              "type": "address"
            },
            {
              "internalType": "address",
              "name": "currentOwner",
              "type": "address"
            },
            {
              "internalType": "enum ProductRegistry.ProductStatus",
              "name": "status",
              "type": "uint8"
            },
            {
              "internalType": "uint256",
              "name": "registeredAt",
              "type": "uint256"
            },
            {
              "internalType": "string",
              "name": "metadataURI",
              "type": "string"
            },
            {
              "internalType": "bool",
              "name": "exists",
              "type": "bool"
            }
          ],
          "internalType": "struct ProductRegistry.Product",
          "name": "",
          "type": "tuple"
        }
      ],
      "stateMutability": "view",
      "type": "function"
    },
    {
      "inputs": [
        {
          "internalType": "bytes32",
          "name": "productId",
          "type": "bytes32"
        }
      ],
      "name": "getProductHistory",
      "outputs": [
        {
          "components": [
            {
              "internalType": "address",
              "name": "from",
              "type": "address"
            },
            {
              "internalType": "address",
              "name": "to",
              "type": "address"
            },
            {
              "internalType": "uint256",
              "name": "timestamp",
              "type": "uint256"
            },
            {
              "internalType": "string",
              "name": "location",
              "type": "string"
            },
            {
              "internalType": "bytes32",
              "name": "verificationHash",
              "type": "bytes32"
            }
          ],
          "internalType": "struct ProductRegistry.TransferEvent[]",
          "name": "",
          "type": "tuple[]"
        }
      ],
      "stateMutability": "view",
      "type": "function"
    },
    {
      "inputs": [
        {
          "internalType": "bytes32",
          "name": "role",
          "type": "bytes32"
        }
      ],
      "name": "getRoleAdmin",
      "outputs": [
        {
          "internalType": "bytes32",
          "name": "",
          "type": "bytes32"
        }
      ],
      "stateMutability": "view",
      "type": "function"
    },
    {
      "inputs": [
        {
          "internalType": "bytes32",
          "name": "role",
          "type": "bytes32"
        },
        {
          "internalType": "address",
          "name": "account",
          "type": "address"
        }
      ],
      "name": "grantRole",
      "outputs": [],
      "stateMutability": "nonpayable",
      "type": "function"
    },
    {
      "inputs": [
        {
          "internalType": "bytes32",
          "name": "role",
          "type": "bytes32"
        },
        {
          "internalType": "address",
          "name": "account",
          "type": "address"
        }
      ],
      "name": "hasRole",
      "outputs": [
        {
          "internalType": "bool",
          "name": "",
          "type": "bool"
        }
      ],
      "stateMutability": "view",
      "type": "function"
    },
    {
      "inputs": [
        {
          "internalType": "bytes32",
          "name": "productId",
          "type": "bytes32"
        }
      ],
      "name": "isAuthentic",
      "outputs": [
        {
          "internalType": "bool",
          "name": "",
          "type": "bool"
        }
      ],
      "stateMutability": "view",
      "type": "function"
    },
    {
      "inputs": [
        {
          "internalType": "bytes32",
          "name": "productId",
          "type": "bytes32"
        }
      ],
      "name": "isRegistered",
      "outputs": [
        {
          "internalType": "bool",
          "name": "",
          "type": "bool"
        }
      ],
      "stateMutability": "view",
      "type": "function"
    },
    {
      "inputs": [],
      "name": "pause",
      "outputs": [],
      "stateMutability": "nonpayable",
      "type": "function"
    },
    {
      "inputs": [],
      "name": "paused",
      "outputs": [
        {
          "internalType": "bool",
          "name": "",
          "type": "bool"
        }
      ],
      "stateMutability": "view",
      "type": "function"
    },
    {
      "inputs": [
        {
          "internalType": "bytes32",
          "name": "",
          "type": "bytes32"
        }
      ],
      "name": "products",
      "outputs": [
        {
          "internalType": "bytes32",
          "name": "productId",
          "type": "bytes32"
        },
        {
          "internalType": "address",
          "name": "manufacturer",
          "type": "address"
        },
        {
          "internalType": "address",
          "name": "currentOwner",
          "type": "address"
        },
        {
          "internalType": "enum ProductRegistry.ProductStatus",
          "name": "status",
          "type": "uint8"
        },
        {
          "internalType": "uint256",
          "name": "registeredAt",
          "type": "uint256"
        },
        {
          "internalType": "string",
          "name": "metadataURI",
          "type": "string"
        },
        {
          "internalType": "bool",
          "name": "exists",
          "type": "bool"
        }
      ],
      "stateMutability": "view",
      "type": "function"
    },
    {
      "inputs": [
        {
          "internalType": "bytes32",
          "name": "productId",
          "type": "bytes32"
        },
        {
          "internalType": "bytes32",
          "name": "verificationHash",
          "type": "bytes32"
        }
      ],
      "name": "recordVerification",
      "outputs": [],
      "stateMutability": "nonpayable",
      "type": "function"
    },
    {
      "inputs": [
        {
          "internalType": "string",
          "name": "metadataURI",
          "type": "string"
        }
      ],
      "name": "registerProduct",
      "outputs": [
        {
          "internalType": "bytes32",
          "name": "",
          "type": "bytes32"
        }
      ],
      "stateMutability": "nonpayable",
      "type": "function"
    },
    {
      "inputs": [
        {
          "internalType": "bytes32",
          "name": "role",
          "type": "bytes32"
        },
        {
          "internalType": "address",
          "name": "callerConfirmation",
          "type": "address"
        }
      ],
      "name": "renounceRole",
      "outputs": [],
      "stateMutability": "nonpayable",
      "type": "function"
    },
    {
      "inputs": [],
      "name": "retailerRegistry",
      "outputs": [
        {
          "internalType": "contract RetailerRegistry",
          "name": "",
          "type": "address"
        }
      ],
      "stateMutability": "view",
      "type": "function"
    },
    {
      "inputs": [
        {
          "internalType": "bytes32",
          "name": "role",
          "type": "bytes32"
        },
        {
          "internalType": "address",
          "name": "account",
          "type": "address"
        }
      ],
      "name": "revokeRole",
      "outputs": [],
      "stateMutability": "nonpayable",
      "type": "function"
    },
    {
      "inputs": [
        {
          "internalType": "bytes4",
          "name": "interfaceId",
          "type": "bytes4"
        }
      ],
      "name": "supportsInterface",
      "outputs": [
        {
          "internalType": "bool",
          "name": "",
          "type": "bool"
        }
      ],
      "stateMutability": "view",
      "type": "function"
    },
    {
      "inputs": [
        {
          "internalType": "bytes32",
          "name": "productId",
          "type": "bytes32"
        },
        {
          "internalType": "address",
          "name": "to",
          "type": "address"
        },
        {
          "internalType": "string",
          "name": "location",
          "type": "string"
        },
        {
          "internalType": "bytes32",
          "name": "verificationHash",
          "type": "bytes32"
        }
      ],
      "name": "transferProduct",
      "outputs": [],
      "stateMutability": "nonpayable",
      "type": "function"
    },
    {
      "inputs": [],
      "name": "unpause",
      "outputs": [],
      "stateMutability": "nonpayable",
      "type": "function"
    },
    {
      "inputs": [
        {
          "internalType": "bytes32",
          "name": "productId",
          "type": "bytes32"
        },
        {
          "internalType": "string",
          "name": "newMetadataURI",
          "type": "string"
        }
      ],
      "name": "updateMetadata",
      "outputs": [],
      "stateMutability": "nonpayable",
      "type": "function"
    },
    {
      "inputs": [
        {
          "internalType": "bytes32",
          "name": "productId",
          "type": "bytes32"
        },
        {
          "internalType": "string",
          "name": "newURI",
          "type": "string"
        }
      ],
      "name": "updateMetadataURI",
      "outputs": [],
      "stateMutability": "nonpayable",
      "type": "function"
    },
    {
      "inputs": [
        {
          "internalType": "bytes32",
          "name": "productId",
          "type": "bytes32"
        },
        {
          "internalType": "enum ProductRegistry.ProductStatus",
          "name": "newStatus",
          "type": "uint8"
        }
      ],
      "name": "updateProductStatus",
      "outputs": [],
      "stateMutability": "nonpayable",
      "type": "function"
    },
    {
      "inputs": [
        {
          "internalType": "bytes32",
          "name": "productId",
          "type": "bytes32"
        },
        {
          "internalType": "enum ProductRegistry.ProductStatus",
          "name": "newStatus",
          "type": "uint8"
        }
      ],
      "name": "updateStatus",
      "outputs": [],
      "stateMutability": "nonpayable",
      "type": "function"
    }
  ],
  "bytecode": "0x60a06040523480156200001157600080fd5b506040516200255d3803806200255d83398101604081905262000034916200019f565b600180556001600160a01b038216620000835760405162461bcd60e51b815260206004820152600d60248201526c5a65726f20726567697374727960981b604482015260640160405180910390fd5b6001600160a01b0382166080526200009d600082620000d3565b50620000ca7fbb28eb1a0cfabcecf96003fab466159bc2e051e49d79baf049890044e907244082620000d3565b505050620001d7565b6000828152602081815260408083206001600160a01b038516845290915281205460ff1662000178576000838152602081815260408083206001600160a01b03861684529091529020805460ff191660011790556200012f3390565b6001600160a01b0316826001600160a01b0316847f2f8788117e7eff1d82e926ec794901d17c78024a50270940304540a733656f0d60405160405180910390a45060016200017c565b5060005b92915050565b80516001600160a01b03811681146200019a57600080fd5b919050565b60008060408385031215620001b357600080fd5b620001be8362000182565b9150620001ce6020840162000182565b90509250929050565b608051612363620001fa6000396000818161023101526112d001526123636000f3fe608060405234801561001057600080fd5b50600436106101c45760003560e01c806360c5189e116100f9578063a217fddf11610097578063bf584c4b11610071578063bf584c4b14610417578063d547741f1461042c578063e43f30a41461043f578063e7705db61461045f57600080fd5b8063a217fddf146103e9578063a375765e146103f1578063b216ebd61461040457600080fd5b80638456cb59116100d35780638456cb59146103a657806391d14854146103ae578063923945d2146103c1578063965288b0146103d457600080fd5b806360c5189e1461035a578063660930e81461036d578063790543911461038057600080fd5b80632f2ff15d116101665780633a20e9df116101405780633a20e9df146102fb5780633f4ba83a1461031b5780634d9f7f93146103235780635c975abb1461034f57600080fd5b80632f2ff15d146102c257806334539694146102d557806336568abe146102e857600080fd5b80630ed71932116101a25780630ed719321461021957806313ad9f441461022c578063248a9ca31461026b57806327258b221461029c57600080fd5b806301ffc9a7146101c9578063054372ed146101f15780630929840814610206575b600080fd5b6101dc6101d7366004611bbf565b610486565b60405190151581526020015b60405180910390f35b6102046101ff366004611bf0565b6104bd565b005b6101dc610214366004611c24565b61061c565b610204610227366004611bf0565b61066f565b6102537f000000000000000000000000000000000000000000000000000000000000000081565b6040516001600160a01b0390911681526020016101e8565b61028e610279366004611c24565b60009081526020819052604090206001015490565b6040519081526020016101e8565b6101dc6102aa366004611c24565b60009081526003602052604090206005015460ff1690565b6102046102d0366004611c59565b610785565b6102046102e3366004611c24565b6107b0565b6102046102f6366004611c59565b610a11565b61030e610309366004611c24565b610a49565b6040516101e89190611d03565b610204610bae565b610253610331366004611c24565b6000908152600360205260409020600101546001600160a01b031690565b60025460ff166101dc565b610204610368366004611dca565b610bce565b61028e61037b366004611e16565b610cec565b61039361038e366004611c24565b611072565b6040516101e89796959493929190611e58565b61020461114e565b6101dc6103bc366004611c59565b61116e565b6102046103cf366004611eb1565b611197565b61028e60008051602061230e83398151915281565b61028e600081565b6102046103ff366004611dca565b61151c565b610204610412366004611f13565b6115a5565b61028e6000805160206122ce83398151915281565b61020461043a366004611c59565b611730565b61045261044d366004611c24565b611755565b6040516101e89190611f35565b61028e7f0ce23c3e399818cfee81a7ab0880f714e53d7672b08df0fa62f2843416e1ea0981565b60006001600160e01b03198216637965db0b60e01b14806104b757506301ffc9a760e01b6001600160e01b03198316145b92915050565b6104c5611891565b6000828152600360205260409020600581015460ff166105005760405162461bcd60e51b81526004016104f790611fdb565b60405180910390fd5b60028101546001600160a01b031633148061052e575061052e60008051602061230e8339815191523361116e565b61056b5760405162461bcd60e51b815260206004820152600e60248201526d139bdd08185d5d1a1bdc9a5e995960921b60448201526064016104f7565b600281015461058490600160a01b900460ff16836118b7565b6105c55760405162461bcd60e51b815260206004820152601260248201527124b73b30b634b2103a3930b739b4ba34b7b760711b60448201526064016104f7565b60028101805483919060ff60a01b1916600160a01b8360048111156105ec576105ec611c85565b0217905550826000805160206122ee8339815191528360405161060f9190611ffe565b60405180910390a2505050565b60008181526003602052604081206005015460ff1680156104b757506004600083815260036020526040902060020154600160a01b900460ff16600481111561066757610667611c85565b141592915050565b7f0ce23c3e399818cfee81a7ab0880f714e53d7672b08df0fa62f2843416e1ea096106998161199f565b6106a1611891565b6000838152600360205260409020600581015460ff166106d35760405162461bcd60e51b81526004016104f790611fdb565b60028101546106ec90600160a01b900460ff16846118b7565b61072d5760405162461bcd60e51b815260206004820152601260248201527124b73b30b634b2103a3930b739b4ba34b7b760711b60448201526064016104f7565b60028101805484919060ff60a01b1916600160a01b83600481111561075457610754611c85565b0217905550836000805160206122ee833981519152846040516107779190611ffe565b60405180910390a250505050565b6000828152602081905260409020600101546107a08161199f565b6107aa83836119a9565b50505050565b6107b8611a3b565b6107c0611891565b6000818152600360205260409020600581015460ff166107f25760405162461bcd60e51b81526004016104f790611fdb565b60028101546001600160a01b0316331461083a5760405162461bcd60e51b81526020600482015260096024820152682737ba1037bbb732b960b91b60448201526064016104f7565b60016002820154600160a01b900460ff16600481111561085c5761085c611c85565b146108a25760405162461bcd60e51b8152602060048201526016602482015275141c9bd91d58dd081b9bdd081a5b881d1c985b9cda5d60521b60448201526064016104f7565b6002818101805460ff60a01b1916600160a01b830217905550600460008381526020019081526020016000206040518060a00160405280336001600160a01b03168152602001336001600160a01b031681526020014281526020016040518060600160405280602581526020016122a96025913981526040805160208181018890526bffffffffffffffffffffffff193360601b169282019290925242605482015291019060740160408051808303601f190181529181528151602092830120909252835460018082018655600095865294829020845160059092020180546001600160a01b03199081166001600160a01b03938416178255928501519581018054909316959091169490941790558101516002830155606081015190919060038201906109d090826120aa565b50608082015181600401555050816000805160206122ee83398151915260026040516109fc9190611ffe565b60405180910390a250610a0e60018055565b50565b6001600160a01b0381163314610a3a5760405163334bd91960e11b815260040160405180910390fd5b610a448282611a65565b505050565b6040805160e08101825260008082526020820181905291810182905260608082018390526080820183905260a082015260c0810191909152600082815260036020908152604091829020825160e0810184528154815260018201546001600160a01b0390811693820193909352600282015492831693810193909352906060830190600160a01b900460ff166004811115610ae657610ae6611c85565b6004811115610af757610af7611c85565b815260200160038201548152602001600482018054610b1590612022565b80601f0160208091040260200160405190810160405280929190818152602001828054610b4190612022565b8015610b8e5780601f10610b6357610100808354040283529160200191610b8e565b820191906000526020600020905b815481529060010190602001808311610b7157829003601f168201915b50505091835250506005919091015460ff16151560209091015292915050565b6000805160206122ce833981519152610bc68161199f565b610a0e611ad0565b610bd6611891565b6000838152600360205260409020600581015460ff16610c085760405162461bcd60e51b81526004016104f790611fdb565b60018101546001600160a01b0316331480610c365750610c366000805160206122ce8339815191523361116e565b610c715760405162461bcd60e51b815260206004820152600c60248201526b155b985d5d1a1bdc9a5e995960a21b60448201526064016104f7565b81610caa5760405162461bcd60e51b8152602060048201526009602482015268456d7074792055524960b81b60448201526064016104f7565b60048101610cb983858361216a565b50837fe36c73fd13989812054eaa73a813bdd65752bda9044a9bdac079e4143c6ab7bd848460405161077792919061222a565b600060008051602061230e833981519152610d068161199f565b610d0e611891565b82610d505760405162461bcd60e51b8152602060048201526012602482015271456d707479206d657461646174612055524960701b60448201526064016104f7565b600033858542604051602001610d699493929190612259565b60408051601f1981840301815291815281516020928301206000818152600390935291206005015490915060ff1615610ddd5760405162461bcd60e51b815260206004820152601660248201527550726f6475637420616c72656164792065786973747360501b60448201526064016104f7565b6040805160e081018252828152336020820181905291810191909152606081016000815260200142815260200186868080601f016020809104026020016040519081016040528093929190818152602001838380828437600092018290525093855250506001602093840181905285835260038452604092839020855181559385015190840180546001600160a01b039283166001600160a01b0319918216179091559285015160028501805491909216938116841782556060860151939192506001600160a81b03191617600160a01b836004811115610ec057610ec0611c85565b02179055506080820151600382015560a08201516004820190610ee390826120aa565b5060c091909101516005909101805491151560ff199092169190911790556000818152600460209081526040808320815160a08101835293845233848401819052428584018190528351808501855260168152754d616e75666163747572696e6720466163696c69747960501b81870152606087015292519194936080850193610f93938893920192835260609190911b6bffffffffffffffffffffffff19166020830152603482015260540190565b60408051808303601f190181529181528151602092830120909252835460018082018655600095865294829020845160059092020180546001600160a01b03199081166001600160a01b039384161782559285015195810180549093169590911694909417905581015160028301556060810151909190600382019061101990826120aa565b50608082015181600401555050336001600160a01b0316817f7ecc8a52aabc9622bf5ed8adde3458cdb35d6940c59bf1052230a49390821c52878760405161106292919061222a565b60405180910390a3949350505050565b60036020819052600091825260409091208054600182015460028301549383015460048401805493956001600160a01b039384169593811694600160a01b90910460ff169391906110c290612022565b80601f01602080910402602001604051908101604052809291908181526020018280546110ee90612022565b801561113b5780601f106111105761010080835404028352916020019161113b565b820191906000526020600020905b81548152906001019060200180831161111e57829003601f168201915b5050506005909301549192505060ff1687565b6000805160206122ce8339815191526111668161199f565b610a0e611b22565b6000918252602082815260408084206001600160a01b0393909316845291905290205460ff1690565b61119f611a3b565b6111a7611891565b6000858152600360205260409020600581015460ff166111d95760405162461bcd60e51b81526004016104f790611fdb565b60028101546001600160a01b031633146112215760405162461bcd60e51b81526020600482015260096024820152682737ba1037bbb732b960b91b60448201526064016104f7565b6001600160a01b0385166112695760405162461bcd60e51b815260206004820152600f60248201526e496e76616c6964206164647265737360881b60448201526064016104f7565b600061128360008051602061230e8339815191528761116e565b801561129e575060018201546001600160a01b038781169116145b600183015460405163916730cd60e01b81526001600160a01b03918216600482015288821660248201529192506000917f00000000000000000000000000000000000000000000000000000000000000009091169063916730cd90604401602060405180830381865afa158015611319573d6000803e3d6000fd5b505050506040513d601f19601f8201168201806040525081019061133d9190612286565b905080806113485750815b61138c5760405162461bcd60e51b81526020600482015260156024820152742ab730baba3437b934bd32b2103932ba30b4b632b960591b60448201526064016104f7565b6002830180546001600160a01b0389166001600160a81b03199091168117600160a01b17909155600089815260046020908152604091829020825160a0810184523381528083019490945242848401528251601f8a01839004830281018301909352888352929160608301918a908a90819084018382808284376000920182905250938552505050602091820188905283546001808201865594825290829020835160059092020180546001600160a01b03199081166001600160a01b0393841617825592840151948101805490931694909116939093179055604081015160028301556060810151909190600382019061148790826120aa565b50608082015181600401555050866001600160a01b0316336001600160a01b0316897fa21877001fef61186647f5d821094a656ae01e8f0c8565c9b4d567d119dc19bb426040516114da91815260200190565b60405180910390a4876000805160206122ee83398151915260016040516115019190611ffe565b60405180910390a250505061151560018055565b5050505050565b611524611891565b6000838152600360205260409020600581015460ff166115565760405162461bcd60e51b81526004016104f790611fdb565b60018101546001600160a01b03163314610caa5760405162461bcd60e51b815260206004820152601060248201526f2737ba1036b0b73ab330b1ba3ab932b960811b60448201526064016104f7565b7f0ce23c3e399818cfee81a7ab0880f714e53d7672b08df0fa62f2843416e1ea096115cf8161199f565b60008381526003602052604090206005015460ff1661161d5760405162461bcd60e51b815260206004820152600a602482015269125b9d985b1a5908125160b21b60448201526064016104f7565b6000838152600460209081526040808320815160a08101835260038085528386206002908101546001600160a01b039081168085528388528488019081524285880190815287518089019098526011885270566572696669636174696f6e204e6f646560781b888a015260608601978852608086018c9052865460018181018955978b5298909920855160059099020180549883166001600160a01b0319998a1617815590519581018054969092169590971694909417909355945191840191909155905190928201906116f190826120aa565b50608082015181600401555050827fa887cd7f9068cb4861e8e421adf1211d0db59502478571f0e1ceb1d596d8aa3e8360405161060f91815260200190565b60008281526020819052604090206001015461174b8161199f565b6107aa8383611a65565b606060046000838152602001908152602001600020805480602002602001604051908101604052809291908181526020016000905b828210156118865760008481526020908190206040805160a0810182526005860290920180546001600160a01b039081168452600182015416938301939093526002830154908201526003820180549192916060840191906117eb90612022565b80601f016020809104026020016040519081016040528092919081815260200182805461181790612022565b80156118645780601f1061183957610100808354040283529160200191611864565b820191906000526020600020905b81548152906001019060200180831161184757829003601f168201915b505050505081526020016004820154815250508152602001906001019061178a565b505050509050919050565b60025460ff16156118b55760405163d93c066560e01b815260040160405180910390fd5b565b6000808360048111156118cc576118cc611c85565b1480156118ea575060018260048111156118e8576118e8611c85565b145b156118f7575060016104b7565b600183600481111561190b5761190b611c85565b1480156119295750600282600481111561192757611927611c85565b145b15611936575060016104b7565b600283600481111561194a5761194a611c85565b1480156119685750600382600481111561196657611966611c85565b145b15611975575060016104b7565b600482600481111561198957611989611c85565b03611996575060016104b7565b50600092915050565b610a0e8133611b5f565b60006119b5838361116e565b611a33576000838152602081815260408083206001600160a01b03861684529091529020805460ff191660011790556119eb3390565b6001600160a01b0316826001600160a01b0316847f2f8788117e7eff1d82e926ec794901d17c78024a50270940304540a733656f0d60405160405180910390a45060016104b7565b5060006104b7565b600260015403611a5e57604051633ee5aeb560e01b815260040160405180910390fd5b6002600155565b6000611a71838361116e565b15611a33576000838152602081815260408083206001600160a01b0386168085529252808320805460ff1916905551339286917ff6391f5c32d9c69d2a47ea670b442974b53935d1edc7fd64eb21e047a839171b9190a45060016104b7565b611ad8611b9c565b6002805460ff191690557f5db9ee0a495bf2e6ff9c91a7834c1ba4fdd244a5e8aa4e537bd38aeae4b073aa335b6040516001600160a01b03909116815260200160405180910390a1565b611b2a611891565b6002805460ff191660011790557f62e78cea01bee320cd4e420270b5ea74000d11b0c9f74754ebdbfc544b05a258611b053390565b611b69828261116e565b611b985760405163e2517d3f60e01b81526001600160a01b0382166004820152602481018390526044016104f7565b5050565b60025460ff166118b557604051638dfc202b60e01b815260040160405180910390fd5b600060208284031215611bd157600080fd5b81356001600160e01b031981168114611be957600080fd5b9392505050565b60008060408385031215611c0357600080fd5b82359150602083013560058110611c1957600080fd5b809150509250929050565b600060208284031215611c3657600080fd5b5035919050565b80356001600160a01b0381168114611c5457600080fd5b919050565b60008060408385031215611c6c57600080fd5b82359150611c7c60208401611c3d565b90509250929050565b634e487b7160e01b600052602160045260246000fd5b60058110611cb957634e487b7160e01b600052602160045260246000fd5b9052565b6000815180845260005b81811015611ce357602081850181015186830182015201611cc7565b506000602082860101526020601f19601f83011685010191505092915050565b60208152815160208201526000602083015160018060a01b03808216604085015280604086015116606085015250506060830151611d446080840182611c9b565b50608083015160a083015260a083015160e060c0840152611d69610100840182611cbd565b905060c0840151151560e08401528091505092915050565b60008083601f840112611d9357600080fd5b50813567ffffffffffffffff811115611dab57600080fd5b602083019150836020828501011115611dc357600080fd5b9250929050565b600080600060408486031215611ddf57600080fd5b83359250602084013567ffffffffffffffff811115611dfd57600080fd5b611e0986828701611d81565b9497909650939450505050565b60008060208385031215611e2957600080fd5b823567ffffffffffffffff811115611e4057600080fd5b611e4c85828601611d81565b90969095509350505050565b8781526001600160a01b038781166020830152861660408201526000611e816060830187611c9b565b84608083015260e060a0830152611e9b60e0830185611cbd565b905082151560c083015298975050505050505050565b600080600080600060808688031215611ec957600080fd5b85359450611ed960208701611c3d565b9350604086013567ffffffffffffffff811115611ef557600080fd5b611f0188828901611d81565b96999598509660600135949350505050565b60008060408385031215611f2657600080fd5b50508035926020909101359150565b60006020808301818452808551808352604092508286019150828160051b87010184880160005b83811015611fcd57888303603f19018552815180516001600160a01b039081168552888201511688850152868101518785015260608082015160a08287018190529190611fab83880182611cbd565b6080948501519790940196909652505094870194925090860190600101611f5c565b509098975050505050505050565b602080825260099082015268139bdd08199bdd5b9960ba1b604082015260600190565b602081016104b78284611c9b565b634e487b7160e01b600052604160045260246000fd5b600181811c9082168061203657607f821691505b60208210810361205657634e487b7160e01b600052602260045260246000fd5b50919050565b601f821115610a4457600081815260208120601f850160051c810160208610156120835750805b601f850160051c820191505b818110156120a25782815560010161208f565b505050505050565b815167ffffffffffffffff8111156120c4576120c461200c565b6120d8816120d28454612022565b8461205c565b602080601f83116001811461210d57600084156120f55750858301515b600019600386901b1c1916600185901b1785556120a2565b600085815260208120601f198616915b8281101561213c5788860151825594840194600190910190840161211d565b508582101561215a5787850151600019600388901b60f8161c191681555b5050505050600190811b01905550565b67ffffffffffffffff8311156121825761218261200c565b612196836121908354612022565b8361205c565b6000601f8411600181146121ca57600085156121b25750838201355b600019600387901b1c1916600186901b178355611515565b600083815260209020601f19861690835b828110156121fb57868501358255602094850194600190920191016121db565b50868210156122185760001960f88860031b161c19848701351681555b505060018560011b0183555050505050565b60208152816020820152818360408301376000818301604090810191909152601f909201601f19160101919050565b6bffffffffffffffffffffffff198560601b16815282846014830137601492019182015260340192915050565b60006020828403121561229857600080fd5b81518015158114611be957600080fdfe52657461696c6572204c6f636174696f6e202d205265636569707420436f6e6669726d6564bb28eb1a0cfabcecf96003fab466159bc2e051e49d79baf049890044e9072440d8e74e9ef57fde612d6ddfbaafef1bdc114dd9dce66f41b932d19adcff9c3c9ceefb95e842a3287179d933b4460be539a1d5af11aa8b325bb45c5c8dc92de4eda2646970667358221220fa4100c5a2d2f039bc0c0e9985a9d5c2de77bbe3b293173a1a7e3ade9baad56d64736f6c63430008140033",
  "linkReferences": {},
  "deployedLinkReferences": {}
}