{
  "_format": "hh-sol-artifact-1",
  "contractName": "ProductRegistry",
  "sourceName": "contracts/ProductRegistry.sol",
  "abi": [
    {
      "inputs": [
        {
          "internalType": "address",
          "name": "_retailerRegistry",
          "type": "address"
        },
        {
          "internalType": "address",
          "name": "admin",
          "type": "address"
        }
      ],
      "stateMutability": "nonpayable",
      "type": "constructor"
    },
    {
      "inputs": [],
      "name": "AccessControlBadConfirmation",
      "type": "error"
    },
    {
      "inputs": [
        {
          "internalType": "address",
          "name": "account",
          "type": "address"
        },
        {
          "internalType": "bytes32",
          "name": "neededRole",
          "type": "bytes32"
        }
      ],
      "name": "AccessControlUnauthorizedAccount",
      "type": "error"
    },
    {
      "inputs": [],
      "name": "EnforcedPause",
      "type": "error"
    },
    {
      "inputs": [],
      "name": "ExpectedPause",
      "type": "error"
    },
    {
      "inputs": [],
      "name": "ReentrancyGuardReentrantCall",
      "type": "error"
    },
    {
      "anonymous": false,
      "inputs": [
        {
          "indexed": true,
          "internalType": "bytes32",
          "name": "productId",
          "type": "bytes32"
        },
        {
          "indexed": false,
          "internalType": "string",
          "name": "newMetadataURI",
          "type": "string"
        }
      ],
      "name": "MetadataUpdated",
      "type": "event"
    },
    {
      "anonymous": false,
      "inputs": [
        {
          "indexed": false,
          "internalType": "address",
          "name": "account",
          "type": "address"
        }
      ],
      "name": "Paused",
      "type": "event"
    },
    {
      "anonymous": false,
      "inputs": [
        {
          "indexed": true,
          "internalType": "bytes32",
          "name": "productId",
          "type": "bytes32"
        },
        {
          "indexed": true,
          "internalType": "address",
          "name": "manufacturer",
          "type": "address"
        },
        {
          "indexed": false,
          "internalType": "string",
          "name": "metadataURI",
          "type": "string"
        }
      ],
      "name": "ProductRegistered",
      "type": "event"
    },
    {
      "anonymous": false,
      "inputs": [
        {
          "indexed": true,
          "internalType": "bytes32",
          "name": "productId",
          "type": "bytes32"
        },
        {
          "indexed": false,
          "internalType": "enum ProductRegistry.ProductStatus",
          "name": "newStatus",
          "type": "uint8"
        }
      ],
      "name": "ProductStatusChanged",
      "type": "event"
    },
    {
      "anonymous": false,
      "inputs": [
        {
          "indexed": true,
          "internalType": "bytes32",
          "name": "productId",
          "type": "bytes32"
        },
        {
          "indexed": true,
          "internalType": "address",
          "name": "from",
          "type": "address"
        },
        {
          "indexed": true,
          "internalType": "address",
          "name": "to",
          "type": "address"
        },
        {
          "indexed": false,
          "internalType": "uint256",
          "name": "timestamp",
          "type": "uint256"
        }
      ],
      "name": "ProductTransferred",
      "type": "event"
    },
    {
      "anonymous": false,
      "inputs": [
        {
          "indexed": true,
          "internalType": "bytes32",
          "name": "role",
          "type": "bytes32"
        },
        {
          "indexed": true,
          "internalType": "bytes32",
          "name": "previousAdminRole",
          "type": "bytes32"
        },
        {
          "indexed": true,
          "internalType": "bytes32",
          "name": "newAdminRole",
          "type": "bytes32"
        }
      ],
      "name": "RoleAdminChanged",
      "type": "event"
    },
    {
      "anonymous": false,
      "inputs": [
        {
          "indexed": true,
          "internalType": "bytes32",
          "name": "role",
          "type": "bytes32"
        },
        {
          "indexed": true,
          "internalType": "address",
          "name": "account",
          "type": "address"
        },
        {
          "indexed": true,
          "internalType": "address",
          "name": "sender",
          "type": "address"
        }
      ],
      "name": "RoleGranted",
      "type": "event"
    },
    {
      "anonymous": false,
      "inputs": [
        {
          "indexed": true,
          "internalType": "bytes32",
          "name": "role",
          "type": "bytes32"
        },
        {
          "indexed": true,
          "internalType": "address",
          "name": "account",
          "type": "address"
        },
        {
          "indexed": true,
          "internalType": "address",
          "name": "sender",
          "type": "address"
        }
      ],
      "name": "RoleRevoked",
      "type": "event"
    },
    {
      "anonymous": false,
      "inputs": [
        {
          "indexed": false,
          "internalType": "address",
          "name": "account",
          "type": "address"
        }
      ],
      "name": "Unpaused",
      "type": "event"
    },
    {
      "anonymous": false,
      "inputs": [
        {
          "indexed": true,
          "internalType": "bytes32",
          "name": "productId",
          "type": "bytes32"
        },
        {
          "indexed": false,
          "internalType": "bytes32",
          "name": "verificationHash",
          "type": "bytes32"
        }
      ],
      "name": "VerificationRecorded",
      "type": "event"
    },
    {
      "inputs": [],
      "name": "DEFAULT_ADMIN_ROLE",
      "outputs": [
        {
          "internalType": "bytes32",
          "name": "",
          "type": "bytes32"
        }
      ],
      "stateMutability": "view",
      "type": "function"
    },
    {
      "inputs": [],
      "name": "MANUFACTURER_ROLE",
      "outputs": [
        {
          "internalType": "bytes32",
          "name": "",
          "type": "bytes32"
        }
      ],
      "stateMutability": "view",
      "type": "function"
    },
    {
      "inputs": [],
      "name": "REGISTRY_ADMIN_ROLE",
      "outputs": [
        {
          "internalType": "bytes32",
          "name": "",
          "type": "bytes32"
        }
      ],
      "stateMutability": "view",
      "type": "function"
    },
    {
      "inputs": [],
      "name": "VERIFIER_ROLE",
      "outputs": [
        {
          "internalType": "bytes32",
          "name": "",
          "type": "bytes32"
        }
      ],
      "stateMutability": "view",
      "type": "function"
    },
    {
      "inputs": [
        {
          "internalType": "bytes32",
          "name": "productId",
          "type": "bytes32"
        }
      ],
      "name": "clearDisputed",
      "outputs": [],
      "stateMutability": "nonpayable",
      "type": "function"
    },
    {
      "inputs": [
        {
          "internalType": "bytes32",
          "name": "productId",
          "type": "bytes32"
        }
      ],
      "name": "confirmReceipt",
      "outputs": [],
      "stateMutability": "nonpayable",
      "type": "function"
    },
    {
      "inputs": [
        {
          "internalType": "bytes32",
          "name": "productId",
          "type": "bytes32"
        }
      ],
      "name": "getBrandOwner",
      "outputs": [
        {
          "internalType": "address",
          "name": "",
          "type": "address"
        }
      ],
      "stateMutability": "view",
      "type": "function"
    },
    {
      "inputs": [
        {
          "internalType": "bytes32",
          "name": "productId",
          "type": "bytes32"
        }
      ],
      "name": "getProduct",
      "outputs": [
        {
          "components": [
            {
              "internalType": "bytes32",
              "name": "productId",
              "type": "bytes32"
            },
            {
              "internalType": "address",
              "name": "manufacturer",
              "type": "address"
            },
            {
              "internalType": "address",
              "name": "currentOwner",
              "type": "address"
            },
            {
              "internalType": "enum ProductRegistry.ProductStatus",
              "name": "status",
              "type": "uint8"
            },
            {
              "internalType": "uint256",
              "name": "registeredAt",
              "type": "uint256"
            },
            {
              "internalType": "string",
              "name": "metadataURI",
              "type": "string"
            },
            {
              "internalType": "bool",
              "name": "exists",
              "type": "bool"
            },
            {
              "internalType": "bool",
              "name": "isVerified",
              "type": "bool"
            }
          ],
          "internalType": "struct ProductRegistry.Product",
          "name": "",
          "type": "tuple"
        }
      ],
      "stateMutability": "view",
      "type": "function"
    },
    {
      "inputs": [
        {
          "internalType": "bytes32",
          "name": "productId",
          "type": "bytes32"
        }
      ],
      "name": "getProductHistory",
      "outputs": [
        {
          "components": [
            {
              "internalType": "address",
              "name": "from",
              "type": "address"
            },
            {
              "internalType": "address",
              "name": "to",
              "type": "address"
            },
            {
              "internalType": "uint256",
              "name": "timestamp",
              "type": "uint256"
            },
            {
              "internalType": "string",
              "name": "location",
              "type": "string"
            },
            {
              "internalType": "bytes32",
              "name": "verificationHash",
              "type": "bytes32"
            }
          ],
          "internalType": "struct ProductRegistry.TransferEvent[]",
          "name": "",
          "type": "tuple[]"
        }
      ],
      "stateMutability": "view",
      "type": "function"
    },
    {
      "inputs": [
        {
          "internalType": "bytes32",
          "name": "role",
          "type": "bytes32"
        }
      ],
      "name": "getRoleAdmin",
      "outputs": [
        {
          "internalType": "bytes32",
          "name": "",
          "type": "bytes32"
        }
      ],
      "stateMutability": "view",
      "type": "function"
    },
    {
      "inputs": [
        {
          "internalType": "bytes32",
          "name": "role",
          "type": "bytes32"
        },
        {
          "internalType": "address",
          "name": "account",
          "type": "address"
        }
      ],
      "name": "grantRole",
      "outputs": [],
      "stateMutability": "nonpayable",
      "type": "function"
    },
    {
      "inputs": [
        {
          "internalType": "bytes32",
          "name": "role",
          "type": "bytes32"
        },
        {
          "internalType": "address",
          "name": "account",
          "type": "address"
        }
      ],
      "name": "hasRole",
      "outputs": [
        {
          "internalType": "bool",
          "name": "",
          "type": "bool"
        }
      ],
      "stateMutability": "view",
      "type": "function"
    },
    {
      "inputs": [
        {
          "internalType": "bytes32",
          "name": "productId",
          "type": "bytes32"
        }
      ],
      "name": "isAuthentic",
      "outputs": [
        {
          "internalType": "bool",
          "name": "",
          "type": "bool"
        }
      ],
      "stateMutability": "view",
      "type": "function"
    },
    {
      "inputs": [
        {
          "internalType": "bytes32",
          "name": "productId",
          "type": "bytes32"
        }
      ],
      "name": "isRegistered",
      "outputs": [
        {
          "internalType": "bool",
          "name": "",
          "type": "bool"
        }
      ],
      "stateMutability": "view",
      "type": "function"
    },
    {
      "inputs": [
        {
          "internalType": "bytes32",
          "name": "productId",
          "type": "bytes32"
        }
      ],
      "name": "markAsDisputed",
      "outputs": [],
      "stateMutability": "nonpayable",
      "type": "function"
    },
    {
      "inputs": [
        {
          "internalType": "bytes32",
          "name": "productId",
          "type": "bytes32"
        },
        {
          "internalType": "address",
          "name": "customer",
          "type": "address"
        }
      ],
      "name": "markAsSold",
      "outputs": [],
      "stateMutability": "nonpayable",
      "type": "function"
    },
    {
      "inputs": [],
      "name": "pause",
      "outputs": [],
      "stateMutability": "nonpayable",
      "type": "function"
    },
    {
      "inputs": [],
      "name": "paused",
      "outputs": [
        {
          "internalType": "bool",
          "name": "",
          "type": "bool"
        }
      ],
      "stateMutability": "view",
      "type": "function"
    },
    {
      "inputs": [
        {
          "internalType": "bytes32",
          "name": "",
          "type": "bytes32"
        }
      ],
      "name": "products",
      "outputs": [
        {
          "internalType": "bytes32",
          "name": "productId",
          "type": "bytes32"
        },
        {
          "internalType": "address",
          "name": "manufacturer",
          "type": "address"
        },
        {
          "internalType": "address",
          "name": "currentOwner",
          "type": "address"
        },
        {
          "internalType": "enum ProductRegistry.ProductStatus",
          "name": "status",
          "type": "uint8"
        },
        {
          "internalType": "uint256",
          "name": "registeredAt",
          "type": "uint256"
        },
        {
          "internalType": "string",
          "name": "metadataURI",
          "type": "string"
        },
        {
          "internalType": "bool",
          "name": "exists",
          "type": "bool"
        },
        {
          "internalType": "bool",
          "name": "isVerified",
          "type": "bool"
        }
      ],
      "stateMutability": "view",
      "type": "function"
    },
    {
      "inputs": [
        {
          "internalType": "bytes32",
          "name": "productId",
          "type": "bytes32"
        },
        {
          "internalType": "bytes32",
          "name": "verificationHash",
          "type": "bytes32"
        }
      ],
      "name": "recordVerification",
      "outputs": [],
      "stateMutability": "nonpayable",
      "type": "function"
    },
    {
      "inputs": [
        {
          "internalType": "string",
          "name": "metadataURI",
          "type": "string"
        }
      ],
      "name": "registerProduct",
      "outputs": [
        {
          "internalType": "bytes32",
          "name": "",
          "type": "bytes32"
        }
      ],
      "stateMutability": "nonpayable",
      "type": "function"
    },
    {
      "inputs": [
        {
          "internalType": "bytes32",
          "name": "role",
          "type": "bytes32"
        },
        {
          "internalType": "address",
          "name": "callerConfirmation",
          "type": "address"
        }
      ],
      "name": "renounceRole",
      "outputs": [],
      "stateMutability": "nonpayable",
      "type": "function"
    },
    {
      "inputs": [],
      "name": "retailerRegistry",
      "outputs": [
        {
          "internalType": "contract RetailerRegistry",
          "name": "",
          "type": "address"
        }
      ],
      "stateMutability": "view",
      "type": "function"
    },
    {
      "inputs": [
        {
          "internalType": "bytes32",
          "name": "role",
          "type": "bytes32"
        },
        {
          "internalType": "address",
          "name": "account",
          "type": "address"
        }
      ],
      "name": "revokeRole",
      "outputs": [],
      "stateMutability": "nonpayable",
      "type": "function"
    },
    {
      "inputs": [
        {
          "internalType": "bytes4",
          "name": "interfaceId",
          "type": "bytes4"
        }
      ],
      "name": "supportsInterface",
      "outputs": [
        {
          "internalType": "bool",
          "name": "",
          "type": "bool"
        }
      ],
      "stateMutability": "view",
      "type": "function"
    },
    {
      "inputs": [
        {
          "internalType": "bytes32",
          "name": "productId",
          "type": "bytes32"
        },
        {
          "internalType": "address",
          "name": "to",
          "type": "address"
        },
        {
          "internalType": "string",
          "name": "location",
          "type": "string"
        },
        {
          "internalType": "bytes32",
          "name": "verificationHash",
          "type": "bytes32"
        }
      ],
      "name": "transferProduct",
      "outputs": [],
      "stateMutability": "nonpayable",
      "type": "function"
    },
    {
      "inputs": [],
      "name": "unpause",
      "outputs": [],
      "stateMutability": "nonpayable",
      "type": "function"
    },
    {
      "inputs": [
        {
          "internalType": "bytes32",
          "name": "productId",
          "type": "bytes32"
        },
        {
          "internalType": "string",
          "name": "newMetadataURI",
          "type": "string"
        }
      ],
      "name": "updateMetadata",
      "outputs": [],
      "stateMutability": "nonpayable",
      "type": "function"
    },
    {
      "inputs": [
        {
          "internalType": "bytes32",
          "name": "productId",
          "type": "bytes32"
        },
        {
          "internalType": "string",
          "name": "newURI",
          "type": "string"
        }
      ],
      "name": "updateMetadataURI",
      "outputs": [],
      "stateMutability": "nonpayable",
      "type": "function"
    },
    {
      "inputs": [
        {
          "internalType": "bytes32",
          "name": "productId",
          "type": "bytes32"
        },
        {
          "internalType": "enum ProductRegistry.ProductStatus",
          "name": "newStatus",
          "type": "uint8"
        }
      ],
      "name": "updateProductStatus",
      "outputs": [],
      "stateMutability": "nonpayable",
      "type": "function"
    },
    {
      "inputs": [
        {
          "internalType": "bytes32",
          "name": "productId",
          "type": "bytes32"
        },
        {
          "internalType": "enum ProductRegistry.ProductStatus",
          "name": "newStatus",
          "type": "uint8"
        }
      ],
      "name": "updateStatus",
      "outputs": [],
      "stateMutability": "nonpayable",
      "type": "function"
    }
  ],
  "bytecode": "0x60a06040523480156200001157600080fd5b5060405162002ccf38038062002ccf83398101604081905262000034916200019f565b600180556001600160a01b038216620000835760405162461bcd60e51b815260206004820152600d60248201526c5a65726f20726567697374727960981b604482015260640160405180910390fd5b6001600160a01b0382166080526200009d600082620000d3565b50620000ca7fbb28eb1a0cfabcecf96003fab466159bc2e051e49d79baf049890044e907244082620000d3565b505050620001d7565b6000828152602081815260408083206001600160a01b038516845290915281205460ff1662000178576000838152602081815260408083206001600160a01b03861684529091529020805460ff191660011790556200012f3390565b6001600160a01b0316826001600160a01b0316847f2f8788117e7eff1d82e926ec794901d17c78024a50270940304540a733656f0d60405160405180910390a45060016200017c565b5060005b92915050565b80516001600160a01b03811681146200019a57600080fd5b919050565b60008060408385031215620001b357600080fd5b620001be8362000182565b9150620001ce6020840162000182565b90509250929050565b608051612ace620002016000396000818161025201528181610dac015261192f0152612ace6000f3fe608060405234801561001057600080fd5b50600436106101e55760003560e01c806360c5189e1161010f578063965288b0116100a2578063bf584c4b11610071578063bf584c4b14610472578063d547741f14610487578063e43f30a41461049a578063e7705db6146104ba57600080fd5b8063965288b01461042f578063a217fddf14610444578063a375765e1461044c578063b216ebd61461045f57600080fd5b80637e84eb4b116100de5780637e84eb4b146103ee5780638456cb591461040157806391d1485414610409578063923945d21461041c57600080fd5b806360c5189e1461038e578063660930e8146103a157806379054391146103b45780637c5fb17c146103db57600080fd5b80632f2ff15d116101875780633f4ba83a116101565780633f4ba83a1461033c5780634d9f7f931461034457806357f94987146103705780635c975abb1461038357600080fd5b80632f2ff15d146102e357806334539694146102f657806336568abe146103095780633a20e9df1461031c57600080fd5b80630ed71932116101c35780630ed719321461023a57806313ad9f441461024d578063248a9ca31461028c57806327258b22146102bd57600080fd5b806301ffc9a7146101ea578063054372ed146102125780630929840814610227575b600080fd5b6101fd6101f8366004612299565b6104cf565b60405190151581526020015b60405180910390f35b6102256102203660046122ca565b610506565b005b6101fd6102353660046122fe565b610665565b6102256102483660046122ca565b6106b8565b6102747f000000000000000000000000000000000000000000000000000000000000000081565b6040516001600160a01b039091168152602001610209565b6102af61029a3660046122fe565b60009081526020819052604090206001015490565b604051908152602001610209565b6101fd6102cb3660046122fe565b60009081526003602052604090206005015460ff1690565b6102256102f1366004612333565b6107bc565b6102256103043660046122fe565b6107e7565b610225610317366004612333565b610aa3565b61032f61032a3660046122fe565b610adb565b60405161020991906123dd565b610225610c59565b6102746103523660046122fe565b6000908152600360205260409020600101546001600160a01b031690565b61022561037e3660046122fe565b610c79565b60025460ff166101fd565b61022561039c3660046124ba565b610ea3565b6102af6103af366004612506565b610fc1565b6103c76103c23660046122fe565b611340565b604051610209989796959493929190612548565b6102256103e93660046122fe565b611425565b6102256103fc366004612333565b6114ad565b6102256117ad565b6101fd610417366004612333565b6117cd565b61022561042a3660046125a9565b6117f6565b6102af600080516020612a5983398151915281565b6102af600081565b61022561045a3660046124ba565b611bef565b61022561046d36600461260b565b611c78565b6102af600080516020612a1983398151915281565b610225610495366004612333565b611e0e565b6104ad6104a83660046122fe565b611e33565b604051610209919061262d565b6102af600080516020612a7983398151915281565b60006001600160e01b03198216637965db0b60e01b148061050057506301ffc9a760e01b6001600160e01b03198316145b92915050565b61050e611f6f565b6000828152600360205260409020600581015460ff166105495760405162461bcd60e51b8152600401610540906126d3565b60405180910390fd5b60028101546001600160a01b03163314806105775750610577600080516020612a59833981519152336117cd565b6105b45760405162461bcd60e51b815260206004820152600e60248201526d139bdd08185d5d1a1bdc9a5e995960921b6044820152606401610540565b60028101546105cd90600160a01b900460ff1683611f95565b61060e5760405162461bcd60e51b815260206004820152601260248201527124b73b30b634b2103a3930b739b4ba34b7b760711b6044820152606401610540565b60028101805483919060ff60a01b1916600160a01b8360048111156106355761063561235f565b021790555082600080516020612a398339815191528360405161065891906126f6565b60405180910390a2505050565b60008181526003602052604081206005015460ff16801561050057506004600083815260036020526040902060020154600160a01b900460ff1660048111156106b0576106b061235f565b141592915050565b600080516020612a798339815191526106d08161207d565b6106d8611f6f565b6000838152600360205260409020600581015460ff1661070a5760405162461bcd60e51b8152600401610540906126d3565b600281015461072390600160a01b900460ff1684611f95565b6107645760405162461bcd60e51b815260206004820152601260248201527124b73b30b634b2103a3930b739b4ba34b7b760711b6044820152606401610540565b60028101805484919060ff60a01b1916600160a01b83600481111561078b5761078b61235f565b021790555083600080516020612a39833981519152846040516107ae91906126f6565b60405180910390a250505050565b6000828152602081905260409020600101546107d78161207d565b6107e18383612087565b50505050565b6107ef612119565b6107f7611f6f565b6000818152600360205260409020600581015460ff166108295760405162461bcd60e51b8152600401610540906126d3565b60028101546001600160a01b031633146108715760405162461bcd60e51b81526020600482015260096024820152682737ba1037bbb732b960b91b6044820152606401610540565b60016002820154600160a01b900460ff1660048111156108935761089361235f565b14806108be575060046002820154600160a01b900460ff1660048111156108bc576108bc61235f565b145b6109035760405162461bcd60e51b8152602060048201526016602482015275141c9bd91d58dd081b9bdd081a5b881d1c985b9cda5d60521b6044820152606401610540565b60046002820154600160a01b900460ff1660048111156109255761092561235f565b146109405760028101805460ff60a01b1916600160a11b1790555b600460008381526020019081526020016000206040518060a00160405280336001600160a01b03168152602001336001600160a01b031681526020014281526020016040518060600160405280602581526020016129f46025913981526020018433426040516020016109b593929190612704565b60408051808303601f190181529181528151602092830120909252835460018082018655600095865294829020845160059092020180546001600160a01b03199081166001600160a01b0393841617825592850151958101805490931695909116949094179055810151600283015560608101519091906003820190610a3b90826127ca565b50608091909101516004918201556002820154600160a01b900460ff166004811115610a6957610a6961235f565b14610a965781600080516020612a398339815191526002604051610a8d91906126f6565b60405180910390a25b50610aa060018055565b50565b6001600160a01b0381163314610acc5760405163334bd91960e11b815260040160405180910390fd5b610ad68282612143565b505050565b604080516101008101825260008082526020820181905291810182905260608082018390526080820183905260a082015260c0810182905260e08101919091526000828152600360209081526040918290208251610100810184528154815260018201546001600160a01b0390811693820193909352600282015492831693810193909352906060830190600160a01b900460ff166004811115610b8157610b8161235f565b6004811115610b9257610b9261235f565b815260200160038201548152602001600482018054610bb090612742565b80601f0160208091040260200160405190810160405280929190818152602001828054610bdc90612742565b8015610c295780601f10610bfe57610100808354040283529160200191610c29565b820191906000526020600020905b815481529060010190602001808311610c0c57829003601f168201915b50505091835250506005919091015460ff8082161515602084015261010090910416151560409091015292915050565b600080516020612a19833981519152610c718161207d565b610aa06121ae565b600080516020612a79833981519152610c918161207d565b610c99611f6f565b6000828152600360205260409020600581015460ff16610ccb5760405162461bcd60e51b81526004016105409061288a565b60046002820154600160a01b900460ff166004811115610ced57610ced61235f565b14610d295760405162461bcd60e51b815260206004820152600c60248201526b139bdd08191a5cdc1d5d195960a21b6044820152606401610540565b60028101546000908190610d5590600080516020612a59833981519152906001600160a01b03166117cd565b8015610d755750600183015460028401546001600160a01b039081169116145b6001840154600285015460405163916730cd60e01b81526001600160a01b03928316600482015290821660248201529192506000917f00000000000000000000000000000000000000000000000000000000000000009091169063916730cd90604401602060405180830381865afa158015610df5573d6000803e3d6000fd5b505050506040513d601f19601f82011682018060405250810190610e1991906128b5565b905081158015610e27575080155b15610e355760039250610e49565b8015610e445760029250610e49565b600092505b60028401805484919060ff60a01b1916600160a01b836004811115610e7057610e7061235f565b021790555085600080516020612a3983398151915284604051610e9391906126f6565b60405180910390a2505050505050565b610eab611f6f565b6000838152600360205260409020600581015460ff16610edd5760405162461bcd60e51b8152600401610540906126d3565b60018101546001600160a01b0316331480610f0b5750610f0b600080516020612a19833981519152336117cd565b610f465760405162461bcd60e51b815260206004820152600c60248201526b155b985d5d1a1bdc9a5e995960a21b6044820152606401610540565b81610f7f5760405162461bcd60e51b8152602060048201526009602482015268456d7074792055524960b81b6044820152606401610540565b60048101610f8e8385836128d7565b50837fe36c73fd13989812054eaa73a813bdd65752bda9044a9bdac079e4143c6ab7bd84846040516107ae929190612997565b6000600080516020612a59833981519152610fdb8161207d565b610fe3611f6f565b826110255760405162461bcd60e51b8152602060048201526012602482015271456d707479206d657461646174612055524960701b6044820152606401610540565b60003385854260405160200161103e94939291906129c6565b60408051601f1981840301815291815281516020928301206000818152600390935291206005015490915060ff16156110b25760405162461bcd60e51b815260206004820152601660248201527550726f6475637420616c72656164792065786973747360501b6044820152606401610540565b6040805161010081018252828152336020820181905291810191909152606081016000815260200142815260200186868080601f016020809104026020016040519081016040528093929190818152602001838380828437600092018290525093855250506001602080850182905260409485018490528684526003815292849020855181559285015190830180546001600160a01b039283166001600160a01b031991821617909155938501516002840180549190921694811685178255606086015193949192506001600160a81b03191617600160a01b83600481111561119d5761119d61235f565b02179055506080820151600382015560a082015160048201906111c090826127ca565b5060c08201516005909101805460e09093015115156101000261ff00199215159290921661ffff19909316929092171790556000818152600460209081526040808320815160a08101835293845233848401819052428584018190528351808501855260168152754d616e75666163747572696e6720466163696c69747960501b818701526060870152925191949360808501936112619388939201612704565b60408051808303601f190181529181528151602092830120909252835460018082018655600095865294829020845160059092020180546001600160a01b03199081166001600160a01b03938416178255928501519581018054909316959091169490941790558101516002830155606081015190919060038201906112e790826127ca565b50608082015181600401555050336001600160a01b0316817f7ecc8a52aabc9622bf5ed8adde3458cdb35d6940c59bf1052230a49390821c528787604051611330929190612997565b60405180910390a3949350505050565b60036020819052600091825260409091208054600182015460028301549383015460048401805493956001600160a01b039384169593811694600160a01b90910460ff1693919061139090612742565b80601f01602080910402602001604051908101604052809291908181526020018280546113bc90612742565b80156114095780601f106113de57610100808354040283529160200191611409565b820191906000526020600020905b8154815290600101906020018083116113ec57829003601f168201915b5050506005909301549192505060ff8082169161010090041688565b600080516020612a7983398151915261143d8161207d565b611445611f6f565b6000828152600360205260409020600581015460ff166114775760405162461bcd60e51b81526004016105409061288a565b60028101805460ff60a01b1916600160a21b1790556040518390600080516020612a3983398151915290610658906004906126f6565b6114b5612119565b6114bd611f6f565b6000828152600360205260409020600581015460ff166114ef5760405162461bcd60e51b81526004016105409061288a565b60028101546001600160a01b0316331461153f5760405162461bcd60e51b81526020600482015260116024820152702737ba10383937b23ab1ba1037bbb732b960791b6044820152606401610540565b600280820154600160a01b900460ff1660048111156115605761156061235f565b146115ad5760405162461bcd60e51b815260206004820152601b60248201527f50726f64756374206d7573742062652061742072657461696c657200000000006044820152606401610540565b6001600160a01b0382166116035760405162461bcd60e51b815260206004820152601860248201527f496e76616c696420637573746f6d6572206164647265737300000000000000006044820152606401610540565b6002810180546001600160a01b0384166001600160a81b03199091168117600360a01b17909155600084815260046020908152604091829020825160a081018452338152808301949094524284840181905283518085018552601081526f29b7b632103a379021bab9ba37b6b2b960811b818501526060860152925190939260808401926116979289928992909101612704565b60408051808303601f190181529181528151602092830120909252835460018082018655600095865294829020845160059092020180546001600160a01b03199081166001600160a01b039384161782559285015195810180549093169590911694909417905581015160028301556060810151909190600382019061171d90826127ca565b50608082015181600401555050816001600160a01b0316336001600160a01b0316847fa21877001fef61186647f5d821094a656ae01e8f0c8565c9b4d567d119dc19bb4260405161177091815260200190565b60405180910390a482600080516020612a39833981519152600360405161179791906126f6565b60405180910390a2506117a960018055565b5050565b600080516020612a198339815191526117c58161207d565b610aa0612200565b6000918252602082815260408084206001600160a01b0393909316845291905290205460ff1690565b6117fe612119565b611806611f6f565b6000858152600360205260409020600581015460ff166118385760405162461bcd60e51b8152600401610540906126d3565b60028101546001600160a01b031633146118805760405162461bcd60e51b81526020600482015260096024820152682737ba1037bbb732b960b91b6044820152606401610540565b6001600160a01b0385166118c85760405162461bcd60e51b815260206004820152600f60248201526e496e76616c6964206164647265737360881b6044820152606401610540565b60006118e2600080516020612a59833981519152876117cd565b80156118fd575060018201546001600160a01b038781169116145b600183015460405163916730cd60e01b81526001600160a01b03918216600482015288821660248201529192506000917f00000000000000000000000000000000000000000000000000000000000000009091169063916730cd90604401602060405180830381865afa158015611978573d6000803e3d6000fd5b505050506040513d601f19601f8201168201806040525081019061199c91906128b5565b905080806119a75750815b6119eb5760405162461bcd60e51b81526020600482015260156024820152742ab730baba3437b934bd32b2103932ba30b4b632b960591b6044820152606401610540565b6002830180546001600160a01b0319166001600160a01b03891617905560046002840154600160a01b900460ff166004811115611a2a57611a2a61235f565b14611a455760028301805460ff60a01b1916600160a01b1790555b600460008981526020019081526020016000206040518060a00160405280336001600160a01b03168152602001896001600160a01b0316815260200142815260200188888080601f0160208091040260200160405190810160405280939291908181526020018383808284376000920182905250938552505050602091820188905283546001808201865594825290829020835160059092020180546001600160a01b03199081166001600160a01b03938416178255928401519481018054909316949091169390931790556040810151600283015560608101519091906003820190611b3290826127ca565b50608082015181600401555050866001600160a01b0316336001600160a01b0316897fa21877001fef61186647f5d821094a656ae01e8f0c8565c9b4d567d119dc19bb42604051611b8591815260200190565b60405180910390a460046002840154600160a01b900460ff166004811115611baf57611baf61235f565b14611bdc5787600080516020612a398339815191526001604051611bd391906126f6565b60405180910390a25b505050611be860018055565b5050505050565b611bf7611f6f565b6000838152600360205260409020600581015460ff16611c295760405162461bcd60e51b8152600401610540906126d3565b60018101546001600160a01b03163314610f7f5760405162461bcd60e51b815260206004820152601060248201526f2737ba1036b0b73ab330b1ba3ab932b960811b6044820152606401610540565b600080516020612a79833981519152611c908161207d565b60008381526003602052604090206005015460ff16611cde5760405162461bcd60e51b815260206004820152600a602482015269125b9d985b1a5908125160b21b6044820152606401610540565b60008381526003602081815260408084206005808201805461ff001981166101009182900460ff161590910217905560048452828620835160a0810185526002808501546001600160a01b03908116808452838901908152428489019081528851808a019099526011895270566572696669636174696f6e204e6f646560781b898b015260608501988952608085018e9052855460018181018855968d5299909b2084519990960290950180546001600160a01b031990811699831699909917815594519385018054909816931692909217909555955195810195909555905190939192820190611dcf90826127ca565b50608082015181600401555050837fa887cd7f9068cb4861e8e421adf1211d0db59502478571f0e1ceb1d596d8aa3e846040516107ae91815260200190565b600082815260208190526040902060010154611e298161207d565b6107e18383612143565b606060046000838152602001908152602001600020805480602002602001604051908101604052809291908181526020016000905b82821015611f645760008481526020908190206040805160a0810182526005860290920180546001600160a01b03908116845260018201541693830193909352600283015490820152600382018054919291606084019190611ec990612742565b80601f0160208091040260200160405190810160405280929190818152602001828054611ef590612742565b8015611f425780601f10611f1757610100808354040283529160200191611f42565b820191906000526020600020905b815481529060010190602001808311611f2557829003601f168201915b5050505050815260200160048201548152505081526020019060010190611e68565b505050509050919050565b60025460ff1615611f935760405163d93c066560e01b815260040160405180910390fd5b565b600080836004811115611faa57611faa61235f565b148015611fc857506001826004811115611fc657611fc661235f565b145b15611fd557506001610500565b6001836004811115611fe957611fe961235f565b148015612007575060028260048111156120055761200561235f565b145b1561201457506001610500565b60028360048111156120285761202861235f565b148015612046575060038260048111156120445761204461235f565b145b1561205357506001610500565b60048260048111156120675761206761235f565b0361207457506001610500565b50600092915050565b610aa0813361223d565b600061209383836117cd565b612111576000838152602081815260408083206001600160a01b03861684529091529020805460ff191660011790556120c93390565b6001600160a01b0316826001600160a01b0316847f2f8788117e7eff1d82e926ec794901d17c78024a50270940304540a733656f0d60405160405180910390a4506001610500565b506000610500565b60026001540361213c57604051633ee5aeb560e01b815260040160405180910390fd5b6002600155565b600061214f83836117cd565b15612111576000838152602081815260408083206001600160a01b0386168085529252808320805460ff1916905551339286917ff6391f5c32d9c69d2a47ea670b442974b53935d1edc7fd64eb21e047a839171b9190a4506001610500565b6121b6612276565b6002805460ff191690557f5db9ee0a495bf2e6ff9c91a7834c1ba4fdd244a5e8aa4e537bd38aeae4b073aa335b6040516001600160a01b03909116815260200160405180910390a1565b612208611f6f565b6002805460ff191660011790557f62e78cea01bee320cd4e420270b5ea74000d11b0c9f74754ebdbfc544b05a2586121e33390565b61224782826117cd565b6117a95760405163e2517d3f60e01b81526001600160a01b038216600482015260248101839052604401610540565b60025460ff16611f9357604051638dfc202b60e01b815260040160405180910390fd5b6000602082840312156122ab57600080fd5b81356001600160e01b0319811681146122c357600080fd5b9392505050565b600080604083850312156122dd57600080fd5b823591506020830135600581106122f357600080fd5b809150509250929050565b60006020828403121561231057600080fd5b5035919050565b80356001600160a01b038116811461232e57600080fd5b919050565b6000806040838503121561234657600080fd5b8235915061235660208401612317565b90509250929050565b634e487b7160e01b600052602160045260246000fd5b6005811061239357634e487b7160e01b600052602160045260246000fd5b9052565b6000815180845260005b818110156123bd576020818501810151868301820152016123a1565b506000602082860101526020601f19601f83011685010191505092915050565b60208152815160208201526000602083015160018060a01b0380821660408501528060408601511660608501525050606083015161241e6080840182612375565b50608083015160a083015260a08301516101008060c0850152612445610120850183612397565b915060c085015161245a60e086018215159052565b5060e0850151801515858301525090949350505050565b60008083601f84011261248357600080fd5b50813567ffffffffffffffff81111561249b57600080fd5b6020830191508360208285010111156124b357600080fd5b9250929050565b6000806000604084860312156124cf57600080fd5b83359250602084013567ffffffffffffffff8111156124ed57600080fd5b6124f986828701612471565b9497909650939450505050565b6000806020838503121561251957600080fd5b823567ffffffffffffffff81111561253057600080fd5b61253c85828601612471565b90969095509350505050565b8881526001600160a01b0388811660208301528716604082015260006101006125746060840189612375565b8660808401528060a084015261258c81840187612397565b94151560c0840152505090151560e0909101529695505050505050565b6000806000806000608086880312156125c157600080fd5b853594506125d160208701612317565b9350604086013567ffffffffffffffff8111156125ed57600080fd5b6125f988828901612471565b96999598509660600135949350505050565b6000806040838503121561261e57600080fd5b50508035926020909101359150565b60006020808301818452808551808352604092508286019150828160051b87010184880160005b838110156126c557888303603f19018552815180516001600160a01b039081168552888201511688850152868101518785015260608082015160a082870181905291906126a383880182612397565b6080948501519790940196909652505094870194925090860190600101612654565b509098975050505050505050565b602080825260099082015268139bdd08199bdd5b9960ba1b604082015260600190565b602081016105008284612375565b92835260609190911b6bffffffffffffffffffffffff19166020830152603482015260540190565b634e487b7160e01b600052604160045260246000fd5b600181811c9082168061275657607f821691505b60208210810361277657634e487b7160e01b600052602260045260246000fd5b50919050565b601f821115610ad657600081815260208120601f850160051c810160208610156127a35750805b601f850160051c820191505b818110156127c2578281556001016127af565b505050505050565b815167ffffffffffffffff8111156127e4576127e461272c565b6127f8816127f28454612742565b8461277c565b602080601f83116001811461282d57600084156128155750858301515b600019600386901b1c1916600185901b1785556127c2565b600085815260208120601f198616915b8281101561285c5788860151825594840194600190910190840161283d565b508582101561287a5787850151600019600388901b60f8161c191681555b5050505050600190811b01905550565b602080825260119082015270141c9bd91d58dd081b9bdd08199bdd5b99607a1b604082015260600190565b6000602082840312156128c757600080fd5b815180151581146122c357600080fd5b67ffffffffffffffff8311156128ef576128ef61272c565b612903836128fd8354612742565b8361277c565b6000601f841160018114612937576000851561291f5750838201355b600019600387901b1c1916600186901b178355611be8565b600083815260209020601f19861690835b828110156129685786850135825560209485019460019092019101612948565b50868210156129855760001960f88860031b161c19848701351681555b505060018560011b0183555050505050565b60208152816020820152818360408301376000818301604090810191909152601f909201601f19160101919050565b6bffffffffffffffffffffffff198560601b1681528284601483013760149201918201526034019291505056fe52657461696c6572204c6f636174696f6e202d205265636569707420436f6e6669726d6564bb28eb1a0cfabcecf96003fab466159bc2e051e49d79baf049890044e9072440d8e74e9ef57fde612d6ddfbaafef1bdc114dd9dce66f41b932d19adcff9c3c9ceefb95e842a3287179d933b4460be539a1d5af11aa8b325bb45c5c8dc92de4ed0ce23c3e399818cfee81a7ab0880f714e53d7672b08df0fa62f2843416e1ea09a264697066735822122070a057a99cea8cf41fcf273f398e4d9e70f877cd4b4bc3daa01357e2540d740364736f6c63430008140033",
  "linkReferences": {},
  "deployedLinkReferences": {}
}