{
  "_format": "hh-sol-artifact-1",
  "contractName": "ProductRegistry",
  "sourceName": "contracts/ProductRegistry.sol",
  "abi": [
    {
      "inputs": [
        {
          "internalType": "address",
          "name": "_retailerRegistry",
          "type": "address"
        },
        {
          "internalType": "address",
          "name": "admin",
          "type": "address"
        }
      ],
      "stateMutability": "nonpayable",
      "type": "constructor"
    },
    {
      "inputs": [],
      "name": "AccessControlBadConfirmation",
      "type": "error"
    },
    {
      "inputs": [
        {
          "internalType": "address",
          "name": "account",
          "type": "address"
        },
        {
          "internalType": "bytes32",
          "name": "neededRole",
          "type": "bytes32"
        }
      ],
      "name": "AccessControlUnauthorizedAccount",
      "type": "error"
    },
    {
      "inputs": [],
      "name": "EnforcedPause",
      "type": "error"
    },
    {
      "inputs": [],
      "name": "ExpectedPause",
      "type": "error"
    },
    {
      "inputs": [],
      "name": "ReentrancyGuardReentrantCall",
      "type": "error"
    },
    {
      "anonymous": false,
      "inputs": [
        {
          "indexed": true,
          "internalType": "bytes32",
          "name": "productId",
          "type": "bytes32"
        },
        {
          "indexed": false,
          "internalType": "string",
          "name": "newMetadataURI",
          "type": "string"
        }
      ],
      "name": "MetadataUpdated",
      "type": "event"
    },
    {
      "anonymous": false,
      "inputs": [
        {
          "indexed": false,
          "internalType": "address",
          "name": "account",
          "type": "address"
        }
      ],
      "name": "Paused",
      "type": "event"
    },
    {
      "anonymous": false,
      "inputs": [
        {
          "indexed": true,
          "internalType": "bytes32",
          "name": "productId",
          "type": "bytes32"
        },
        {
          "indexed": true,
          "internalType": "address",
          "name": "manufacturer",
          "type": "address"
        },
        {
          "indexed": false,
          "internalType": "string",
          "name": "metadataURI",
          "type": "string"
        }
      ],
      "name": "ProductRegistered",
      "type": "event"
    },
    {
      "anonymous": false,
      "inputs": [
        {
          "indexed": true,
          "internalType": "bytes32",
          "name": "productId",
          "type": "bytes32"
        },
        {
          "indexed": false,
          "internalType": "enum ProductRegistry.ProductStatus",
          "name": "newStatus",
          "type": "uint8"
        }
      ],
      "name": "ProductStatusChanged",
      "type": "event"
    },
    {
      "anonymous": false,
      "inputs": [
        {
          "indexed": true,
          "internalType": "bytes32",
          "name": "productId",
          "type": "bytes32"
        },
        {
          "indexed": true,
          "internalType": "address",
          "name": "from",
          "type": "address"
        },
        {
          "indexed": true,
          "internalType": "address",
          "name": "to",
          "type": "address"
        },
        {
          "indexed": false,
          "internalType": "uint256",
          "name": "timestamp",
          "type": "uint256"
        }
      ],
      "name": "ProductTransferred",
      "type": "event"
    },
    {
      "anonymous": false,
      "inputs": [
        {
          "indexed": true,
          "internalType": "bytes32",
          "name": "role",
          "type": "bytes32"
        },
        {
          "indexed": true,
          "internalType": "bytes32",
          "name": "previousAdminRole",
          "type": "bytes32"
        },
        {
          "indexed": true,
          "internalType": "bytes32",
          "name": "newAdminRole",
          "type": "bytes32"
        }
      ],
      "name": "RoleAdminChanged",
      "type": "event"
    },
    {
      "anonymous": false,
      "inputs": [
        {
          "indexed": true,
          "internalType": "bytes32",
          "name": "role",
          "type": "bytes32"
        },
        {
          "indexed": true,
          "internalType": "address",
          "name": "account",
          "type": "address"
        },
        {
          "indexed": true,
          "internalType": "address",
          "name": "sender",
          "type": "address"
        }
      ],
      "name": "RoleGranted",
      "type": "event"
    },
    {
      "anonymous": false,
      "inputs": [
        {
          "indexed": true,
          "internalType": "bytes32",
          "name": "role",
          "type": "bytes32"
        },
        {
          "indexed": true,
          "internalType": "address",
          "name": "account",
          "type": "address"
        },
        {
          "indexed": true,
          "internalType": "address",
          "name": "sender",
          "type": "address"
        }
      ],
      "name": "RoleRevoked",
      "type": "event"
    },
    {
      "anonymous": false,
      "inputs": [
        {
          "indexed": false,
          "internalType": "address",
          "name": "account",
          "type": "address"
        }
      ],
      "name": "Unpaused",
      "type": "event"
    },
    {
      "anonymous": false,
      "inputs": [
        {
          "indexed": true,
          "internalType": "bytes32",
          "name": "productId",
          "type": "bytes32"
        },
        {
          "indexed": false,
          "internalType": "bytes32",
          "name": "verificationHash",
          "type": "bytes32"
        }
      ],
      "name": "VerificationRecorded",
      "type": "event"
    },
    {
      "inputs": [],
      "name": "DEFAULT_ADMIN_ROLE",
      "outputs": [
        {
          "internalType": "bytes32",
          "name": "",
          "type": "bytes32"
        }
      ],
      "stateMutability": "view",
      "type": "function"
    },
    {
      "inputs": [],
      "name": "MANUFACTURER_ROLE",
      "outputs": [
        {
          "internalType": "bytes32",
          "name": "",
          "type": "bytes32"
        }
      ],
      "stateMutability": "view",
      "type": "function"
    },
    {
      "inputs": [],
      "name": "REGISTRY_ADMIN_ROLE",
      "outputs": [
        {
          "internalType": "bytes32",
          "name": "",
          "type": "bytes32"
        }
      ],
      "stateMutability": "view",
      "type": "function"
    },
    {
      "inputs": [],
      "name": "VERIFIER_ROLE",
      "outputs": [
        {
          "internalType": "bytes32",
          "name": "",
          "type": "bytes32"
        }
      ],
      "stateMutability": "view",
      "type": "function"
    },
    {
      "inputs": [
        {
          "internalType": "bytes32",
          "name": "productId",
          "type": "bytes32"
        }
      ],
      "name": "confirmReceipt",
      "outputs": [],
      "stateMutability": "nonpayable",
      "type": "function"
    },
    {
      "inputs": [
        {
          "internalType": "bytes32",
          "name": "productId",
          "type": "bytes32"
        }
      ],
      "name": "getBrandOwner",
      "outputs": [
        {
          "internalType": "address",
          "name": "",
          "type": "address"
        }
      ],
      "stateMutability": "view",
      "type": "function"
    },
    {
      "inputs": [
        {
          "internalType": "bytes32",
          "name": "productId",
          "type": "bytes32"
        }
      ],
      "name": "getProduct",
      "outputs": [
        {
          "components": [
            {
              "internalType": "bytes32",
              "name": "productId",
              "type": "bytes32"
            },
            {
              "internalType": "address",
              "name": "manufacturer",
              "type": "address"
            },
            {
              "internalType": "address",
              "name": "currentOwner",
              "type": "address"
            },
            {
              "internalType": "enum ProductRegistry.ProductStatus",
              "name": "status",
              "type": "uint8"
            },
            {
              "internalType": "uint256",
              "name": "registeredAt",
              "type": "uint256"
            },
            {
              "internalType": "string",
              "name": "metadataURI",
              "type": "string"
            },
            {
              "internalType": "bool",
              "name": "exists",
              "type": "bool"
            }
          ],
          "internalType": "struct ProductRegistry.Product",
          "name": "",
          "type": "tuple"
        }
      ],
      "stateMutability": "view",
      "type": "function"
    },
    {
      "inputs": [
        {
          "internalType": "bytes32",
          "name": "productId",
          "type": "bytes32"
        }
      ],
      "name": "getProductHistory",
      "outputs": [
        {
          "components": [
            {
              "internalType": "address",
              "name": "from",
              "type": "address"
            },
            {
              "internalType": "address",
              "name": "to",
              "type": "address"
            },
            {
              "internalType": "uint256",
              "name": "timestamp",
              "type": "uint256"
            },
            {
              "internalType": "string",
              "name": "location",
              "type": "string"
            },
            {
              "internalType": "bytes32",
              "name": "verificationHash",
              "type": "bytes32"
            }
          ],
          "internalType": "struct ProductRegistry.TransferEvent[]",
          "name": "",
          "type": "tuple[]"
        }
      ],
      "stateMutability": "view",
      "type": "function"
    },
    {
      "inputs": [
        {
          "internalType": "bytes32",
          "name": "role",
          "type": "bytes32"
        }
      ],
      "name": "getRoleAdmin",
      "outputs": [
        {
          "internalType": "bytes32",
          "name": "",
          "type": "bytes32"
        }
      ],
      "stateMutability": "view",
      "type": "function"
    },
    {
      "inputs": [
        {
          "internalType": "bytes32",
          "name": "role",
          "type": "bytes32"
        },
        {
          "internalType": "address",
          "name": "account",
          "type": "address"
        }
      ],
      "name": "grantRole",
      "outputs": [],
      "stateMutability": "nonpayable",
      "type": "function"
    },
    {
      "inputs": [
        {
          "internalType": "bytes32",
          "name": "role",
          "type": "bytes32"
        },
        {
          "internalType": "address",
          "name": "account",
          "type": "address"
        }
      ],
      "name": "hasRole",
      "outputs": [
        {
          "internalType": "bool",
          "name": "",
          "type": "bool"
        }
      ],
      "stateMutability": "view",
      "type": "function"
    },
    {
      "inputs": [
        {
          "internalType": "bytes32",
          "name": "productId",
          "type": "bytes32"
        }
      ],
      "name": "isAuthentic",
      "outputs": [
        {
          "internalType": "bool",
          "name": "",
          "type": "bool"
        }
      ],
      "stateMutability": "view",
      "type": "function"
    },
    {
      "inputs": [
        {
          "internalType": "bytes32",
          "name": "productId",
          "type": "bytes32"
        }
      ],
      "name": "isRegistered",
      "outputs": [
        {
          "internalType": "bool",
          "name": "",
          "type": "bool"
        }
      ],
      "stateMutability": "view",
      "type": "function"
    },
    {
      "inputs": [
        {
          "internalType": "bytes32",
          "name": "productId",
          "type": "bytes32"
        },
        {
          "internalType": "address",
          "name": "customer",
          "type": "address"
        }
      ],
      "name": "markAsSold",
      "outputs": [],
      "stateMutability": "nonpayable",
      "type": "function"
    },
    {
      "inputs": [],
      "name": "pause",
      "outputs": [],
      "stateMutability": "nonpayable",
      "type": "function"
    },
    {
      "inputs": [],
      "name": "paused",
      "outputs": [
        {
          "internalType": "bool",
          "name": "",
          "type": "bool"
        }
      ],
      "stateMutability": "view",
      "type": "function"
    },
    {
      "inputs": [
        {
          "internalType": "bytes32",
          "name": "",
          "type": "bytes32"
        }
      ],
      "name": "products",
      "outputs": [
        {
          "internalType": "bytes32",
          "name": "productId",
          "type": "bytes32"
        },
        {
          "internalType": "address",
          "name": "manufacturer",
          "type": "address"
        },
        {
          "internalType": "address",
          "name": "currentOwner",
          "type": "address"
        },
        {
          "internalType": "enum ProductRegistry.ProductStatus",
          "name": "status",
          "type": "uint8"
        },
        {
          "internalType": "uint256",
          "name": "registeredAt",
          "type": "uint256"
        },
        {
          "internalType": "string",
          "name": "metadataURI",
          "type": "string"
        },
        {
          "internalType": "bool",
          "name": "exists",
          "type": "bool"
        }
      ],
      "stateMutability": "view",
      "type": "function"
    },
    {
      "inputs": [
        {
          "internalType": "bytes32",
          "name": "productId",
          "type": "bytes32"
        },
        {
          "internalType": "bytes32",
          "name": "verificationHash",
          "type": "bytes32"
        }
      ],
      "name": "recordVerification",
      "outputs": [],
      "stateMutability": "nonpayable",
      "type": "function"
    },
    {
      "inputs": [
        {
          "internalType": "string",
          "name": "metadataURI",
          "type": "string"
        }
      ],
      "name": "registerProduct",
      "outputs": [
        {
          "internalType": "bytes32",
          "name": "",
          "type": "bytes32"
        }
      ],
      "stateMutability": "nonpayable",
      "type": "function"
    },
    {
      "inputs": [
        {
          "internalType": "bytes32",
          "name": "role",
          "type": "bytes32"
        },
        {
          "internalType": "address",
          "name": "callerConfirmation",
          "type": "address"
        }
      ],
      "name": "renounceRole",
      "outputs": [],
      "stateMutability": "nonpayable",
      "type": "function"
    },
    {
      "inputs": [],
      "name": "retailerRegistry",
      "outputs": [
        {
          "internalType": "contract RetailerRegistry",
          "name": "",
          "type": "address"
        }
      ],
      "stateMutability": "view",
      "type": "function"
    },
    {
      "inputs": [
        {
          "internalType": "bytes32",
          "name": "role",
          "type": "bytes32"
        },
        {
          "internalType": "address",
          "name": "account",
          "type": "address"
        }
      ],
      "name": "revokeRole",
      "outputs": [],
      "stateMutability": "nonpayable",
      "type": "function"
    },
    {
      "inputs": [
        {
          "internalType": "bytes4",
          "name": "interfaceId",
          "type": "bytes4"
        }
      ],
      "name": "supportsInterface",
      "outputs": [
        {
          "internalType": "bool",
          "name": "",
          "type": "bool"
        }
      ],
      "stateMutability": "view",
      "type": "function"
    },
    {
      "inputs": [
        {
          "internalType": "bytes32",
          "name": "productId",
          "type": "bytes32"
        },
        {
          "internalType": "address",
          "name": "to",
          "type": "address"
        },
        {
          "internalType": "string",
          "name": "location",
          "type": "string"
        },
        {
          "internalType": "bytes32",
          "name": "verificationHash",
          "type": "bytes32"
        }
      ],
      "name": "transferProduct",
      "outputs": [],
      "stateMutability": "nonpayable",
      "type": "function"
    },
    {
      "inputs": [],
      "name": "unpause",
      "outputs": [],
      "stateMutability": "nonpayable",
      "type": "function"
    },
    {
      "inputs": [
        {
          "internalType": "bytes32",
          "name": "productId",
          "type": "bytes32"
        },
        {
          "internalType": "string",
          "name": "newMetadataURI",
          "type": "string"
        }
      ],
      "name": "updateMetadata",
      "outputs": [],
      "stateMutability": "nonpayable",
      "type": "function"
    },
    {
      "inputs": [
        {
          "internalType": "bytes32",
          "name": "productId",
          "type": "bytes32"
        },
        {
          "internalType": "string",
          "name": "newURI",
          "type": "string"
        }
      ],
      "name": "updateMetadataURI",
      "outputs": [],
      "stateMutability": "nonpayable",
      "type": "function"
    },
    {
      "inputs": [
        {
          "internalType": "bytes32",
          "name": "productId",
          "type": "bytes32"
        },
        {
          "internalType": "enum ProductRegistry.ProductStatus",
          "name": "newStatus",
          "type": "uint8"
        }
      ],
      "name": "updateProductStatus",
      "outputs": [],
      "stateMutability": "nonpayable",
      "type": "function"
    },
    {
      "inputs": [
        {
          "internalType": "bytes32",
          "name": "productId",
          "type": "bytes32"
        },
        {
          "internalType": "enum ProductRegistry.ProductStatus",
          "name": "newStatus",
          "type": "uint8"
        }
      ],
      "name": "updateStatus",
      "outputs": [],
      "stateMutability": "nonpayable",
      "type": "function"
    }
  ],
  "bytecode": "0x60a06040523480156200001157600080fd5b50604051620028843803806200288483398101604081905262000034916200019f565b600180556001600160a01b038216620000835760405162461bcd60e51b815260206004820152600d60248201526c5a65726f20726567697374727960981b604482015260640160405180910390fd5b6001600160a01b0382166080526200009d600082620000d3565b50620000ca7fbb28eb1a0cfabcecf96003fab466159bc2e051e49d79baf049890044e907244082620000d3565b505050620001d7565b6000828152602081815260408083206001600160a01b038516845290915281205460ff1662000178576000838152602081815260408083206001600160a01b03861684529091529020805460ff191660011790556200012f3390565b6001600160a01b0316826001600160a01b0316847f2f8788117e7eff1d82e926ec794901d17c78024a50270940304540a733656f0d60405160405180910390a45060016200017c565b5060005b92915050565b80516001600160a01b03811681146200019a57600080fd5b919050565b60008060408385031215620001b357600080fd5b620001be8362000182565b9150620001ce6020840162000182565b90509250929050565b60805161268a620001fa6000396000818161023c01526115d3015261268a6000f3fe608060405234801561001057600080fd5b50600436106101cf5760003560e01c806360c5189e11610104578063965288b0116100a2578063bf584c4b11610071578063bf584c4b14610435578063d547741f1461044a578063e43f30a41461045d578063e7705db61461047d57600080fd5b8063965288b0146103f2578063a217fddf14610407578063a375765e1461040f578063b216ebd61461042257600080fd5b80637e84eb4b116100de5780637e84eb4b146103b15780638456cb59146103c457806391d14854146103cc578063923945d2146103df57600080fd5b806360c5189e14610365578063660930e814610378578063790543911461038b57600080fd5b80632f2ff15d116101715780633a20e9df1161014b5780633a20e9df146103065780633f4ba83a146103265780634d9f7f931461032e5780635c975abb1461035a57600080fd5b80632f2ff15d146102cd57806334539694146102e057806336568abe146102f357600080fd5b80630ed71932116101ad5780630ed719321461022457806313ad9f4414610237578063248a9ca31461027657806327258b22146102a757600080fd5b806301ffc9a7146101d4578063054372ed146101fc5780630929840814610211575b600080fd5b6101e76101e2366004611ebe565b6104a4565b60405190151581526020015b60405180910390f35b61020f61020a366004611eef565b6104db565b005b6101e761021f366004611f23565b61063a565b61020f610232366004611eef565b61068d565b61025e7f000000000000000000000000000000000000000000000000000000000000000081565b6040516001600160a01b0390911681526020016101f3565b610299610284366004611f23565b60009081526020819052604090206001015490565b6040519081526020016101f3565b6101e76102b5366004611f23565b60009081526003602052604090206005015460ff1690565b61020f6102db366004611f58565b6107a3565b61020f6102ee366004611f23565b6107ce565b61020f610301366004611f58565b610a15565b610319610314366004611f23565b610a4d565b6040516101f39190612002565b61020f610bb2565b61025e61033c366004611f23565b6000908152600360205260409020600101546001600160a01b031690565b60025460ff166101e7565b61020f6103733660046120c9565b610bd2565b610299610386366004612115565b610cf0565b61039e610399366004611f23565b611051565b6040516101f39796959493929190612157565b61020f6103bf366004611f58565b61112d565b61020f611451565b6101e76103da366004611f58565b611471565b61020f6103ed3660046121b0565b61149a565b61029960008051602061263583398151915281565b610299600081565b61020f61041d3660046120c9565b61181f565b61020f610430366004612212565b6118a8565b6102996000805160206125f583398151915281565b61020f610458366004611f58565b611a33565b61047061046b366004611f23565b611a58565b6040516101f39190612234565b6102997f0ce23c3e399818cfee81a7ab0880f714e53d7672b08df0fa62f2843416e1ea0981565b60006001600160e01b03198216637965db0b60e01b14806104d557506301ffc9a760e01b6001600160e01b03198316145b92915050565b6104e3611b94565b6000828152600360205260409020600581015460ff1661051e5760405162461bcd60e51b8152600401610515906122da565b60405180910390fd5b60028101546001600160a01b031633148061054c575061054c60008051602061263583398151915233611471565b6105895760405162461bcd60e51b815260206004820152600e60248201526d139bdd08185d5d1a1bdc9a5e995960921b6044820152606401610515565b60028101546105a290600160a01b900460ff1683611bba565b6105e35760405162461bcd60e51b815260206004820152601260248201527124b73b30b634b2103a3930b739b4ba34b7b760711b6044820152606401610515565b60028101805483919060ff60a01b1916600160a01b83600481111561060a5761060a611f84565b0217905550826000805160206126158339815191528360405161062d91906122fd565b60405180910390a2505050565b60008181526003602052604081206005015460ff1680156104d557506004600083815260036020526040902060020154600160a01b900460ff16600481111561068557610685611f84565b141592915050565b7f0ce23c3e399818cfee81a7ab0880f714e53d7672b08df0fa62f2843416e1ea096106b781611ca2565b6106bf611b94565b6000838152600360205260409020600581015460ff166106f15760405162461bcd60e51b8152600401610515906122da565b600281015461070a90600160a01b900460ff1684611bba565b61074b5760405162461bcd60e51b815260206004820152601260248201527124b73b30b634b2103a3930b739b4ba34b7b760711b6044820152606401610515565b60028101805484919060ff60a01b1916600160a01b83600481111561077257610772611f84565b0217905550836000805160206126158339815191528460405161079591906122fd565b60405180910390a250505050565b6000828152602081905260409020600101546107be81611ca2565b6107c88383611cac565b50505050565b6107d6611d3e565b6107de611b94565b6000818152600360205260409020600581015460ff166108105760405162461bcd60e51b8152600401610515906122da565b60028101546001600160a01b031633146108585760405162461bcd60e51b81526020600482015260096024820152682737ba1037bbb732b960b91b6044820152606401610515565b60016002820154600160a01b900460ff16600481111561087a5761087a611f84565b146108c05760405162461bcd60e51b8152602060048201526016602482015275141c9bd91d58dd081b9bdd081a5b881d1c985b9cda5d60521b6044820152606401610515565b6002818101805460ff60a01b1916600160a01b830217905550600460008381526020019081526020016000206040518060a00160405280336001600160a01b03168152602001336001600160a01b031681526020014281526020016040518060600160405280602581526020016125d060259139815260200184334260405160200161094e9392919061230b565b60408051808303601f190181529181528151602092830120909252835460018082018655600095865294829020845160059092020180546001600160a01b03199081166001600160a01b03938416178255928501519581018054909316959091169490941790558101516002830155606081015190919060038201906109d490826123d1565b50608082015181600401555050816000805160206126158339815191526002604051610a0091906122fd565b60405180910390a250610a1260018055565b50565b6001600160a01b0381163314610a3e5760405163334bd91960e11b815260040160405180910390fd5b610a488282611d68565b505050565b6040805160e08101825260008082526020820181905291810182905260608082018390526080820183905260a082015260c0810191909152600082815260036020908152604091829020825160e0810184528154815260018201546001600160a01b0390811693820193909352600282015492831693810193909352906060830190600160a01b900460ff166004811115610aea57610aea611f84565b6004811115610afb57610afb611f84565b815260200160038201548152602001600482018054610b1990612349565b80601f0160208091040260200160405190810160405280929190818152602001828054610b4590612349565b8015610b925780601f10610b6757610100808354040283529160200191610b92565b820191906000526020600020905b815481529060010190602001808311610b7557829003601f168201915b50505091835250506005919091015460ff16151560209091015292915050565b6000805160206125f5833981519152610bca81611ca2565b610a12611dd3565b610bda611b94565b6000838152600360205260409020600581015460ff16610c0c5760405162461bcd60e51b8152600401610515906122da565b60018101546001600160a01b0316331480610c3a5750610c3a6000805160206125f583398151915233611471565b610c755760405162461bcd60e51b815260206004820152600c60248201526b155b985d5d1a1bdc9a5e995960a21b6044820152606401610515565b81610cae5760405162461bcd60e51b8152602060048201526009602482015268456d7074792055524960b81b6044820152606401610515565b60048101610cbd838583612491565b50837fe36c73fd13989812054eaa73a813bdd65752bda9044a9bdac079e4143c6ab7bd8484604051610795929190612551565b6000600080516020612635833981519152610d0a81611ca2565b610d12611b94565b82610d545760405162461bcd60e51b8152602060048201526012602482015271456d707479206d657461646174612055524960701b6044820152606401610515565b600033858542604051602001610d6d9493929190612580565b60408051601f1981840301815291815281516020928301206000818152600390935291206005015490915060ff1615610de15760405162461bcd60e51b815260206004820152601660248201527550726f6475637420616c72656164792065786973747360501b6044820152606401610515565b6040805160e081018252828152336020820181905291810191909152606081016000815260200142815260200186868080601f016020809104026020016040519081016040528093929190818152602001838380828437600092018290525093855250506001602093840181905285835260038452604092839020855181559385015190840180546001600160a01b039283166001600160a01b0319918216179091559285015160028501805491909216938116841782556060860151939192506001600160a81b03191617600160a01b836004811115610ec457610ec4611f84565b02179055506080820151600382015560a08201516004820190610ee790826123d1565b5060c091909101516005909101805460ff19169115159190911790556000818152600460209081526040808320815160a08101835293845233848401819052428584018190528351808501855260168152754d616e75666163747572696e6720466163696c69747960501b81870152606087015292519194936080850193610f72938893920161230b565b60408051808303601f190181529181528151602092830120909252835460018082018655600095865294829020845160059092020180546001600160a01b03199081166001600160a01b0393841617825592850151958101805490931695909116949094179055810151600283015560608101519091906003820190610ff890826123d1565b50608082015181600401555050336001600160a01b0316817f7ecc8a52aabc9622bf5ed8adde3458cdb35d6940c59bf1052230a49390821c528787604051611041929190612551565b60405180910390a3949350505050565b60036020819052600091825260409091208054600182015460028301549383015460048401805493956001600160a01b039384169593811694600160a01b90910460ff169391906110a190612349565b80601f01602080910402602001604051908101604052809291908181526020018280546110cd90612349565b801561111a5780601f106110ef5761010080835404028352916020019161111a565b820191906000526020600020905b8154815290600101906020018083116110fd57829003601f168201915b5050506005909301549192505060ff1687565b611135611d3e565b61113d611b94565b6000828152600360205260409020600581015460ff166111935760405162461bcd60e51b8152602060048201526011602482015270141c9bd91d58dd081b9bdd08199bdd5b99607a1b6044820152606401610515565b60028101546001600160a01b031633146111e35760405162461bcd60e51b81526020600482015260116024820152702737ba10383937b23ab1ba1037bbb732b960791b6044820152606401610515565b600280820154600160a01b900460ff16600481111561120457611204611f84565b146112515760405162461bcd60e51b815260206004820152601b60248201527f50726f64756374206d7573742062652061742072657461696c657200000000006044820152606401610515565b6001600160a01b0382166112a75760405162461bcd60e51b815260206004820152601860248201527f496e76616c696420637573746f6d6572206164647265737300000000000000006044820152606401610515565b6002810180546001600160a01b0384166001600160a81b03199091168117600360a01b17909155600084815260046020908152604091829020825160a081018452338152808301949094524284840181905283518085018552601081526f29b7b632103a379021bab9ba37b6b2b960811b8185015260608601529251909392608084019261133b928992899290910161230b565b60408051808303601f190181529181528151602092830120909252835460018082018655600095865294829020845160059092020180546001600160a01b03199081166001600160a01b03938416178255928501519581018054909316959091169490941790558101516002830155606081015190919060038201906113c190826123d1565b50608082015181600401555050816001600160a01b0316336001600160a01b0316847fa21877001fef61186647f5d821094a656ae01e8f0c8565c9b4d567d119dc19bb4260405161141491815260200190565b60405180910390a482600080516020612615833981519152600360405161143b91906122fd565b60405180910390a25061144d60018055565b5050565b6000805160206125f583398151915261146981611ca2565b610a12611e25565b6000918252602082815260408084206001600160a01b0393909316845291905290205460ff1690565b6114a2611d3e565b6114aa611b94565b6000858152600360205260409020600581015460ff166114dc5760405162461bcd60e51b8152600401610515906122da565b60028101546001600160a01b031633146115245760405162461bcd60e51b81526020600482015260096024820152682737ba1037bbb732b960b91b6044820152606401610515565b6001600160a01b03851661156c5760405162461bcd60e51b815260206004820152600f60248201526e496e76616c6964206164647265737360881b6044820152606401610515565b600061158660008051602061263583398151915287611471565b80156115a1575060018201546001600160a01b038781169116145b600183015460405163916730cd60e01b81526001600160a01b03918216600482015288821660248201529192506000917f00000000000000000000000000000000000000000000000000000000000000009091169063916730cd90604401602060405180830381865afa15801561161c573d6000803e3d6000fd5b505050506040513d601f19601f8201168201806040525081019061164091906125ad565b9050808061164b5750815b61168f5760405162461bcd60e51b81526020600482015260156024820152742ab730baba3437b934bd32b2103932ba30b4b632b960591b6044820152606401610515565b6002830180546001600160a01b0389166001600160a81b03199091168117600160a01b17909155600089815260046020908152604091829020825160a0810184523381528083019490945242848401528251601f8a01839004830281018301909352888352929160608301918a908a90819084018382808284376000920182905250938552505050602091820188905283546001808201865594825290829020835160059092020180546001600160a01b03199081166001600160a01b0393841617825592840151948101805490931694909116939093179055604081015160028301556060810151909190600382019061178a90826123d1565b50608082015181600401555050866001600160a01b0316336001600160a01b0316897fa21877001fef61186647f5d821094a656ae01e8f0c8565c9b4d567d119dc19bb426040516117dd91815260200190565b60405180910390a487600080516020612615833981519152600160405161180491906122fd565b60405180910390a250505061181860018055565b5050505050565b611827611b94565b6000838152600360205260409020600581015460ff166118595760405162461bcd60e51b8152600401610515906122da565b60018101546001600160a01b03163314610cae5760405162461bcd60e51b815260206004820152601060248201526f2737ba1036b0b73ab330b1ba3ab932b960811b6044820152606401610515565b7f0ce23c3e399818cfee81a7ab0880f714e53d7672b08df0fa62f2843416e1ea096118d281611ca2565b60008381526003602052604090206005015460ff166119205760405162461bcd60e51b815260206004820152600a602482015269125b9d985b1a5908125160b21b6044820152606401610515565b6000838152600460209081526040808320815160a08101835260038085528386206002908101546001600160a01b039081168085528388528488019081524285880190815287518089019098526011885270566572696669636174696f6e204e6f646560781b888a015260608601978852608086018c9052865460018181018955978b5298909920855160059099020180549883166001600160a01b0319998a1617815590519581018054969092169590971694909417909355945191840191909155905190928201906119f490826123d1565b50608082015181600401555050827fa887cd7f9068cb4861e8e421adf1211d0db59502478571f0e1ceb1d596d8aa3e8360405161062d91815260200190565b600082815260208190526040902060010154611a4e81611ca2565b6107c88383611d68565b606060046000838152602001908152602001600020805480602002602001604051908101604052809291908181526020016000905b82821015611b895760008481526020908190206040805160a0810182526005860290920180546001600160a01b03908116845260018201541693830193909352600283015490820152600382018054919291606084019190611aee90612349565b80601f0160208091040260200160405190810160405280929190818152602001828054611b1a90612349565b8015611b675780601f10611b3c57610100808354040283529160200191611b67565b820191906000526020600020905b815481529060010190602001808311611b4a57829003601f168201915b5050505050815260200160048201548152505081526020019060010190611a8d565b505050509050919050565b60025460ff1615611bb85760405163d93c066560e01b815260040160405180910390fd5b565b600080836004811115611bcf57611bcf611f84565b148015611bed57506001826004811115611beb57611beb611f84565b145b15611bfa575060016104d5565b6001836004811115611c0e57611c0e611f84565b148015611c2c57506002826004811115611c2a57611c2a611f84565b145b15611c39575060016104d5565b6002836004811115611c4d57611c4d611f84565b148015611c6b57506003826004811115611c6957611c69611f84565b145b15611c78575060016104d5565b6004826004811115611c8c57611c8c611f84565b03611c99575060016104d5565b50600092915050565b610a128133611e62565b6000611cb88383611471565b611d36576000838152602081815260408083206001600160a01b03861684529091529020805460ff19166001179055611cee3390565b6001600160a01b0316826001600160a01b0316847f2f8788117e7eff1d82e926ec794901d17c78024a50270940304540a733656f0d60405160405180910390a45060016104d5565b5060006104d5565b600260015403611d6157604051633ee5aeb560e01b815260040160405180910390fd5b6002600155565b6000611d748383611471565b15611d36576000838152602081815260408083206001600160a01b0386168085529252808320805460ff1916905551339286917ff6391f5c32d9c69d2a47ea670b442974b53935d1edc7fd64eb21e047a839171b9190a45060016104d5565b611ddb611e9b565b6002805460ff191690557f5db9ee0a495bf2e6ff9c91a7834c1ba4fdd244a5e8aa4e537bd38aeae4b073aa335b6040516001600160a01b03909116815260200160405180910390a1565b611e2d611b94565b6002805460ff191660011790557f62e78cea01bee320cd4e420270b5ea74000d11b0c9f74754ebdbfc544b05a258611e083390565b611e6c8282611471565b61144d5760405163e2517d3f60e01b81526001600160a01b038216600482015260248101839052604401610515565b60025460ff16611bb857604051638dfc202b60e01b815260040160405180910390fd5b600060208284031215611ed057600080fd5b81356001600160e01b031981168114611ee857600080fd5b9392505050565b60008060408385031215611f0257600080fd5b82359150602083013560058110611f1857600080fd5b809150509250929050565b600060208284031215611f3557600080fd5b5035919050565b80356001600160a01b0381168114611f5357600080fd5b919050565b60008060408385031215611f6b57600080fd5b82359150611f7b60208401611f3c565b90509250929050565b634e487b7160e01b600052602160045260246000fd5b60058110611fb857634e487b7160e01b600052602160045260246000fd5b9052565b6000815180845260005b81811015611fe257602081850181015186830182015201611fc6565b506000602082860101526020601f19601f83011685010191505092915050565b60208152815160208201526000602083015160018060a01b038082166040850152806040860151166060850152505060608301516120436080840182611f9a565b50608083015160a083015260a083015160e060c0840152612068610100840182611fbc565b905060c0840151151560e08401528091505092915050565b60008083601f84011261209257600080fd5b50813567ffffffffffffffff8111156120aa57600080fd5b6020830191508360208285010111156120c257600080fd5b9250929050565b6000806000604084860312156120de57600080fd5b83359250602084013567ffffffffffffffff8111156120fc57600080fd5b61210886828701612080565b9497909650939450505050565b6000806020838503121561212857600080fd5b823567ffffffffffffffff81111561213f57600080fd5b61214b85828601612080565b90969095509350505050565b8781526001600160a01b0387811660208301528616604082015260006121806060830187611f9a565b84608083015260e060a083015261219a60e0830185611fbc565b905082151560c083015298975050505050505050565b6000806000806000608086880312156121c857600080fd5b853594506121d860208701611f3c565b9350604086013567ffffffffffffffff8111156121f457600080fd5b61220088828901612080565b96999598509660600135949350505050565b6000806040838503121561222557600080fd5b50508035926020909101359150565b60006020808301818452808551808352604092508286019150828160051b87010184880160005b838110156122cc57888303603f19018552815180516001600160a01b039081168552888201511688850152868101518785015260608082015160a082870181905291906122aa83880182611fbc565b608094850151979094019690965250509487019492509086019060010161225b565b509098975050505050505050565b602080825260099082015268139bdd08199bdd5b9960ba1b604082015260600190565b602081016104d58284611f9a565b92835260609190911b6bffffffffffffffffffffffff19166020830152603482015260540190565b634e487b7160e01b600052604160045260246000fd5b600181811c9082168061235d57607f821691505b60208210810361237d57634e487b7160e01b600052602260045260246000fd5b50919050565b601f821115610a4857600081815260208120601f850160051c810160208610156123aa5750805b601f850160051c820191505b818110156123c9578281556001016123b6565b505050505050565b815167ffffffffffffffff8111156123eb576123eb612333565b6123ff816123f98454612349565b84612383565b602080601f831160018114612434576000841561241c5750858301515b600019600386901b1c1916600185901b1785556123c9565b600085815260208120601f198616915b8281101561246357888601518255948401946001909101908401612444565b50858210156124815787850151600019600388901b60f8161c191681555b5050505050600190811b01905550565b67ffffffffffffffff8311156124a9576124a9612333565b6124bd836124b78354612349565b83612383565b6000601f8411600181146124f157600085156124d95750838201355b600019600387901b1c1916600186901b178355611818565b600083815260209020601f19861690835b828110156125225786850135825560209485019460019092019101612502565b508682101561253f5760001960f88860031b161c19848701351681555b505060018560011b0183555050505050565b60208152816020820152818360408301376000818301604090810191909152601f909201601f19160101919050565b6bffffffffffffffffffffffff198560601b16815282846014830137601492019182015260340192915050565b6000602082840312156125bf57600080fd5b81518015158114611ee857600080fdfe52657461696c6572204c6f636174696f6e202d205265636569707420436f6e6669726d6564bb28eb1a0cfabcecf96003fab466159bc2e051e49d79baf049890044e9072440d8e74e9ef57fde612d6ddfbaafef1bdc114dd9dce66f41b932d19adcff9c3c9ceefb95e842a3287179d933b4460be539a1d5af11aa8b325bb45c5c8dc92de4eda2646970667358221220d220b0636e56da7bae8ceb88ec51780dad931f6edd9f84c44942ccf69cc1a19464736f6c63430008140033",
  "linkReferences": {},
  "deployedLinkReferences": {}
}