{
  "_format": "hh-sol-artifact-1",
  "contractName": "RetailerRegistry",
  "sourceName": "contracts/RetailerRegistry.sol",
  "abi": [
    {
      "inputs": [],
      "stateMutability": "nonpayable",
      "type": "constructor"
    },
    {
      "inputs": [],
      "name": "AccessControlBadConfirmation",
      "type": "error"
    },
    {
      "inputs": [
        {
          "internalType": "address",
          "name": "account",
          "type": "address"
        },
        {
          "internalType": "bytes32",
          "name": "neededRole",
          "type": "bytes32"
        }
      ],
      "name": "AccessControlUnauthorizedAccount",
      "type": "error"
    },
    {
      "inputs": [],
      "name": "EnforcedPause",
      "type": "error"
    },
    {
      "inputs": [],
      "name": "ExpectedPause",
      "type": "error"
    },
    {
      "anonymous": false,
      "inputs": [
        {
          "indexed": true,
          "internalType": "address",
          "name": "retailer",
          "type": "address"
        },
        {
          "indexed": false,
          "internalType": "bool",
          "name": "retailerWon",
          "type": "bool"
        }
      ],
      "name": "DisputeRecorded",
      "type": "event"
    },
    {
      "anonymous": false,
      "inputs": [
        {
          "indexed": false,
          "internalType": "address",
          "name": "account",
          "type": "address"
        }
      ],
      "name": "Paused",
      "type": "event"
    },
    {
      "anonymous": false,
      "inputs": [
        {
          "indexed": true,
          "internalType": "bytes32",
          "name": "productId",
          "type": "bytes32"
        },
        {
          "indexed": true,
          "internalType": "address",
          "name": "retailer",
          "type": "address"
        }
      ],
      "name": "ProductHandled",
      "type": "event"
    },
    {
      "anonymous": false,
      "inputs": [
        {
          "indexed": true,
          "internalType": "address",
          "name": "retailer",
          "type": "address"
        },
        {
          "indexed": false,
          "internalType": "uint256",
          "name": "newScore",
          "type": "uint256"
        },
        {
          "indexed": false,
          "internalType": "string",
          "name": "updateReason",
          "type": "string"
        }
      ],
      "name": "ReputationUpdated",
      "type": "event"
    },
    {
      "anonymous": false,
      "inputs": [
        {
          "components": [
            {
              "internalType": "uint16",
              "name": "successRateWeight",
              "type": "uint16"
            },
            {
              "internalType": "uint16",
              "name": "volumeWeight",
              "type": "uint16"
            },
            {
              "internalType": "uint16",
              "name": "tenureWeight",
              "type": "uint16"
            },
            {
              "internalType": "uint16",
              "name": "responseTimeWeight",
              "type": "uint16"
            },
            {
              "internalType": "uint16",
              "name": "disputeWeight",
              "type": "uint16"
            },
            {
              "internalType": "uint16",
              "name": "consistencyWeight",
              "type": "uint16"
            }
          ],
          "indexed": false,
          "internalType": "struct RetailerRegistry.ReputationWeights",
          "name": "newWeights",
          "type": "tuple"
        }
      ],
      "name": "ReputationWeightsUpdated",
      "type": "event"
    },
    {
      "anonymous": false,
      "inputs": [
        {
          "indexed": true,
          "internalType": "address",
          "name": "retailer",
          "type": "address"
        },
        {
          "indexed": false,
          "internalType": "uint256",
          "name": "responseTime",
          "type": "uint256"
        }
      ],
      "name": "ResponseTimeRecorded",
      "type": "event"
    },
    {
      "anonymous": false,
      "inputs": [
        {
          "indexed": true,
          "internalType": "address",
          "name": "brand",
          "type": "address"
        },
        {
          "indexed": true,
          "internalType": "address",
          "name": "retailer",
          "type": "address"
        }
      ],
      "name": "RetailerAuthorized",
      "type": "event"
    },
    {
      "anonymous": false,
      "inputs": [
        {
          "indexed": true,
          "internalType": "address",
          "name": "brand",
          "type": "address"
        },
        {
          "indexed": true,
          "internalType": "address",
          "name": "retailer",
          "type": "address"
        }
      ],
      "name": "RetailerDeauthorized",
      "type": "event"
    },
    {
      "anonymous": false,
      "inputs": [
        {
          "indexed": true,
          "internalType": "address",
          "name": "retailer",
          "type": "address"
        },
        {
          "indexed": false,
          "internalType": "string",
          "name": "name",
          "type": "string"
        }
      ],
      "name": "RetailerRegistered",
      "type": "event"
    },
    {
      "anonymous": false,
      "inputs": [
        {
          "indexed": true,
          "internalType": "bytes32",
          "name": "role",
          "type": "bytes32"
        },
        {
          "indexed": true,
          "internalType": "bytes32",
          "name": "previousAdminRole",
          "type": "bytes32"
        },
        {
          "indexed": true,
          "internalType": "bytes32",
          "name": "newAdminRole",
          "type": "bytes32"
        }
      ],
      "name": "RoleAdminChanged",
      "type": "event"
    },
    {
      "anonymous": false,
      "inputs": [
        {
          "indexed": true,
          "internalType": "bytes32",
          "name": "role",
          "type": "bytes32"
        },
        {
          "indexed": true,
          "internalType": "address",
          "name": "account",
          "type": "address"
        },
        {
          "indexed": true,
          "internalType": "address",
          "name": "sender",
          "type": "address"
        }
      ],
      "name": "RoleGranted",
      "type": "event"
    },
    {
      "anonymous": false,
      "inputs": [
        {
          "indexed": true,
          "internalType": "bytes32",
          "name": "role",
          "type": "bytes32"
        },
        {
          "indexed": true,
          "internalType": "address",
          "name": "account",
          "type": "address"
        },
        {
          "indexed": true,
          "internalType": "address",
          "name": "sender",
          "type": "address"
        }
      ],
      "name": "RoleRevoked",
      "type": "event"
    },
    {
      "anonymous": false,
      "inputs": [
        {
          "indexed": false,
          "internalType": "address",
          "name": "account",
          "type": "address"
        }
      ],
      "name": "Unpaused",
      "type": "event"
    },
    {
      "anonymous": false,
      "inputs": [
        {
          "indexed": true,
          "internalType": "bytes32",
          "name": "verificationId",
          "type": "bytes32"
        },
        {
          "indexed": true,
          "internalType": "address",
          "name": "retailer",
          "type": "address"
        },
        {
          "indexed": false,
          "internalType": "bool",
          "name": "success",
          "type": "bool"
        }
      ],
      "name": "VerificationProcessed",
      "type": "event"
    },
    {
      "anonymous": false,
      "inputs": [
        {
          "indexed": true,
          "internalType": "address",
          "name": "retailer",
          "type": "address"
        },
        {
          "indexed": false,
          "internalType": "uint256",
          "name": "newTotalProducts",
          "type": "uint256"
        }
      ],
      "name": "VolumeIncreased",
      "type": "event"
    },
    {
      "inputs": [],
      "name": "BRAND_MANAGER_ROLE",
      "outputs": [
        {
          "internalType": "bytes32",
          "name": "",
          "type": "bytes32"
        }
      ],
      "stateMutability": "view",
      "type": "function"
    },
    {
      "inputs": [],
      "name": "DEFAULT_ADMIN_ROLE",
      "outputs": [
        {
          "internalType": "bytes32",
          "name": "",
          "type": "bytes32"
        }
      ],
      "stateMutability": "view",
      "type": "function"
    },
    {
      "inputs": [],
      "name": "MAX_REPUTATION_SCORE",
      "outputs": [
        {
          "internalType": "uint256",
          "name": "",
          "type": "uint256"
        }
      ],
      "stateMutability": "view",
      "type": "function"
    },
    {
      "inputs": [],
      "name": "MIN_UPDATE_INTERVAL",
      "outputs": [
        {
          "internalType": "uint256",
          "name": "",
          "type": "uint256"
        }
      ],
      "stateMutability": "view",
      "type": "function"
    },
    {
      "inputs": [],
      "name": "PRODUCT_REGISTRY_ROLE",
      "outputs": [
        {
          "internalType": "bytes32",
          "name": "",
          "type": "bytes32"
        }
      ],
      "stateMutability": "view",
      "type": "function"
    },
    {
      "inputs": [],
      "name": "VERIFICATION_MANAGER_ROLE",
      "outputs": [
        {
          "internalType": "bytes32",
          "name": "",
          "type": "bytes32"
        }
      ],
      "stateMutability": "view",
      "type": "function"
    },
    {
      "inputs": [
        {
          "internalType": "address",
          "name": "brand",
          "type": "address"
        },
        {
          "internalType": "address",
          "name": "retailer",
          "type": "address"
        }
      ],
      "name": "authorizeRetailerForBrand",
      "outputs": [],
      "stateMutability": "nonpayable",
      "type": "function"
    },
    {
      "inputs": [
        {
          "internalType": "address",
          "name": "",
          "type": "address"
        },
        {
          "internalType": "address",
          "name": "",
          "type": "address"
        }
      ],
      "name": "brandAuthorizations",
      "outputs": [
        {
          "internalType": "bool",
          "name": "",
          "type": "bool"
        }
      ],
      "stateMutability": "view",
      "type": "function"
    },
    {
      "inputs": [],
      "name": "consistencyThreshold",
      "outputs": [
        {
          "internalType": "uint256",
          "name": "",
          "type": "uint256"
        }
      ],
      "stateMutability": "view",
      "type": "function"
    },
    {
      "inputs": [
        {
          "internalType": "address",
          "name": "brand",
          "type": "address"
        },
        {
          "internalType": "address",
          "name": "retailer",
          "type": "address"
        }
      ],
      "name": "deauthorizeRetailerForBrand",
      "outputs": [],
      "stateMutability": "nonpayable",
      "type": "function"
    },
    {
      "inputs": [],
      "name": "decayRatePercent",
      "outputs": [
        {
          "internalType": "uint256",
          "name": "",
          "type": "uint256"
        }
      ],
      "stateMutability": "view",
      "type": "function"
    },
    {
      "inputs": [
        {
          "internalType": "address",
          "name": "retailer",
          "type": "address"
        }
      ],
      "name": "getReputationBreakdown",
      "outputs": [
        {
          "internalType": "uint256",
          "name": "successScore",
          "type": "uint256"
        },
        {
          "internalType": "uint256",
          "name": "volumeScore",
          "type": "uint256"
        },
        {
          "internalType": "uint256",
          "name": "tenureScore",
          "type": "uint256"
        },
        {
          "internalType": "uint256",
          "name": "responseScore",
          "type": "uint256"
        },
        {
          "internalType": "uint256",
          "name": "disputeScore",
          "type": "uint256"
        },
        {
          "internalType": "uint256",
          "name": "consistencyScore",
          "type": "uint256"
        },
        {
          "internalType": "uint256",
          "name": "decayMultiplier",
          "type": "uint256"
        },
        {
          "internalType": "uint256",
          "name": "compositeScore",
          "type": "uint256"
        }
      ],
      "stateMutability": "view",
      "type": "function"
    },
    {
      "inputs": [
        {
          "internalType": "bytes32",
          "name": "role",
          "type": "bytes32"
        }
      ],
      "name": "getRoleAdmin",
      "outputs": [
        {
          "internalType": "bytes32",
          "name": "",
          "type": "bytes32"
        }
      ],
      "stateMutability": "view",
      "type": "function"
    },
    {
      "inputs": [
        {
          "internalType": "bytes32",
          "name": "role",
          "type": "bytes32"
        },
        {
          "internalType": "address",
          "name": "account",
          "type": "address"
        }
      ],
      "name": "grantRole",
      "outputs": [],
      "stateMutability": "nonpayable",
      "type": "function"
    },
    {
      "inputs": [
        {
          "internalType": "bytes32",
          "name": "role",
          "type": "bytes32"
        },
        {
          "internalType": "address",
          "name": "account",
          "type": "address"
        }
      ],
      "name": "hasRole",
      "outputs": [
        {
          "internalType": "bool",
          "name": "",
          "type": "bool"
        }
      ],
      "stateMutability": "view",
      "type": "function"
    },
    {
      "inputs": [
        {
          "internalType": "address",
          "name": "brand",
          "type": "address"
        },
        {
          "internalType": "address",
          "name": "retailer",
          "type": "address"
        }
      ],
      "name": "isAuthorizedRetailer",
      "outputs": [
        {
          "internalType": "bool",
          "name": "",
          "type": "bool"
        }
      ],
      "stateMutability": "view",
      "type": "function"
    },
    {
      "inputs": [
        {
          "internalType": "address",
          "name": "",
          "type": "address"
        }
      ],
      "name": "lastReputationUpdate",
      "outputs": [
        {
          "internalType": "uint256",
          "name": "",
          "type": "uint256"
        }
      ],
      "stateMutability": "view",
      "type": "function"
    },
    {
      "inputs": [],
      "name": "maxReputationChangePerUpdate",
      "outputs": [
        {
          "internalType": "uint256",
          "name": "",
          "type": "uint256"
        }
      ],
      "stateMutability": "view",
      "type": "function"
    },
    {
      "inputs": [],
      "name": "optimalResponseTime",
      "outputs": [
        {
          "internalType": "uint256",
          "name": "",
          "type": "uint256"
        }
      ],
      "stateMutability": "view",
      "type": "function"
    },
    {
      "inputs": [],
      "name": "pause",
      "outputs": [],
      "stateMutability": "nonpayable",
      "type": "function"
    },
    {
      "inputs": [],
      "name": "paused",
      "outputs": [
        {
          "internalType": "bool",
          "name": "",
          "type": "bool"
        }
      ],
      "stateMutability": "view",
      "type": "function"
    },
    {
      "inputs": [
        {
          "internalType": "bytes32",
          "name": "verificationId",
          "type": "bytes32"
        },
        {
          "internalType": "bytes32",
          "name": "productId",
          "type": "bytes32"
        },
        {
          "internalType": "address",
          "name": "retailer",
          "type": "address"
        },
        {
          "internalType": "bool",
          "name": "success",
          "type": "bool"
        }
      ],
      "name": "processVerificationResult",
      "outputs": [],
      "stateMutability": "nonpayable",
      "type": "function"
    },
    {
      "inputs": [
        {
          "internalType": "bytes32",
          "name": "",
          "type": "bytes32"
        }
      ],
      "name": "productHandled",
      "outputs": [
        {
          "internalType": "bool",
          "name": "",
          "type": "bool"
        }
      ],
      "stateMutability": "view",
      "type": "function"
    },
    {
      "inputs": [
        {
          "internalType": "address",
          "name": "retailer",
          "type": "address"
        },
        {
          "internalType": "bool",
          "name": "retailerWon",
          "type": "bool"
        }
      ],
      "name": "recordDispute",
      "outputs": [],
      "stateMutability": "nonpayable",
      "type": "function"
    },
    {
      "inputs": [
        {
          "internalType": "bytes32",
          "name": "productId",
          "type": "bytes32"
        },
        {
          "internalType": "address",
          "name": "retailer",
          "type": "address"
        }
      ],
      "name": "recordProductHandling",
      "outputs": [],
      "stateMutability": "nonpayable",
      "type": "function"
    },
    {
      "inputs": [
        {
          "internalType": "address",
          "name": "retailer",
          "type": "address"
        },
        {
          "internalType": "uint256",
          "name": "responseTime",
          "type": "uint256"
        }
      ],
      "name": "recordResponseTime",
      "outputs": [],
      "stateMutability": "nonpayable",
      "type": "function"
    },
    {
      "inputs": [
        {
          "internalType": "address",
          "name": "retailer",
          "type": "address"
        },
        {
          "internalType": "uint256",
          "name": "revenueAmount",
          "type": "uint256"
        }
      ],
      "name": "recordRevenue",
      "outputs": [],
      "stateMutability": "nonpayable",
      "type": "function"
    },
    {
      "inputs": [
        {
          "internalType": "address",
          "name": "retailerAddress",
          "type": "address"
        },
        {
          "internalType": "string",
          "name": "name",
          "type": "string"
        }
      ],
      "name": "registerRetailer",
      "outputs": [],
      "stateMutability": "nonpayable",
      "type": "function"
    },
    {
      "inputs": [
        {
          "internalType": "bytes32",
          "name": "role",
          "type": "bytes32"
        },
        {
          "internalType": "address",
          "name": "callerConfirmation",
          "type": "address"
        }
      ],
      "name": "renounceRole",
      "outputs": [],
      "stateMutability": "nonpayable",
      "type": "function"
    },
    {
      "inputs": [],
      "name": "reputationDecayPeriod",
      "outputs": [
        {
          "internalType": "uint256",
          "name": "",
          "type": "uint256"
        }
      ],
      "stateMutability": "view",
      "type": "function"
    },
    {
      "inputs": [],
      "name": "reputationWeights",
      "outputs": [
        {
          "internalType": "uint16",
          "name": "successRateWeight",
          "type": "uint16"
        },
        {
          "internalType": "uint16",
          "name": "volumeWeight",
          "type": "uint16"
        },
        {
          "internalType": "uint16",
          "name": "tenureWeight",
          "type": "uint16"
        },
        {
          "internalType": "uint16",
          "name": "responseTimeWeight",
          "type": "uint16"
        },
        {
          "internalType": "uint16",
          "name": "disputeWeight",
          "type": "uint16"
        },
        {
          "internalType": "uint16",
          "name": "consistencyWeight",
          "type": "uint16"
        }
      ],
      "stateMutability": "view",
      "type": "function"
    },
    {
      "inputs": [],
      "name": "requireProductLink",
      "outputs": [
        {
          "internalType": "bool",
          "name": "",
          "type": "bool"
        }
      ],
      "stateMutability": "view",
      "type": "function"
    },
    {
      "inputs": [
        {
          "internalType": "address",
          "name": "",
          "type": "address"
        }
      ],
      "name": "retailers",
      "outputs": [
        {
          "internalType": "bool",
          "name": "isAuthorized",
          "type": "bool"
        },
        {
          "internalType": "address",
          "name": "retailerAddress",
          "type": "address"
        },
        {
          "internalType": "string",
          "name": "name",
          "type": "string"
        },
        {
          "internalType": "uint256",
          "name": "reputationScore",
          "type": "uint256"
        },
        {
          "internalType": "uint256",
          "name": "totalVerifications",
          "type": "uint256"
        },
        {
          "internalType": "uint256",
          "name": "failedVerifications",
          "type": "uint256"
        },
        {
          "internalType": "uint256",
          "name": "registeredAt",
          "type": "uint256"
        },
        {
          "internalType": "uint256",
          "name": "totalProductsHandled",
          "type": "uint256"
        },
        {
          "internalType": "uint256",
          "name": "totalDisputesReceived",
          "type": "uint256"
        },
        {
          "internalType": "uint256",
          "name": "totalDisputesLost",
          "type": "uint256"
        },
        {
          "internalType": "uint256",
          "name": "averageResponseTime",
          "type": "uint256"
        },
        {
          "internalType": "uint256",
          "name": "lastActivityTimestamp",
          "type": "uint256"
        },
        {
          "internalType": "uint256",
          "name": "consecutiveSuccesses",
          "type": "uint256"
        },
        {
          "internalType": "uint256",
          "name": "lifetimeRevenueGenerated",
          "type": "uint256"
        }
      ],
      "stateMutability": "view",
      "type": "function"
    },
    {
      "inputs": [
        {
          "internalType": "bytes32",
          "name": "role",
          "type": "bytes32"
        },
        {
          "internalType": "address",
          "name": "account",
          "type": "address"
        }
      ],
      "name": "revokeRole",
      "outputs": [],
      "stateMutability": "nonpayable",
      "type": "function"
    },
    {
      "inputs": [
        {
          "internalType": "uint256",
          "name": "newThreshold",
          "type": "uint256"
        }
      ],
      "name": "setConsistencyThreshold",
      "outputs": [],
      "stateMutability": "nonpayable",
      "type": "function"
    },
    {
      "inputs": [
        {
          "internalType": "uint256",
          "name": "newPeriod",
          "type": "uint256"
        },
        {
          "internalType": "uint256",
          "name": "newRate",
          "type": "uint256"
        }
      ],
      "name": "setDecayParameters",
      "outputs": [],
      "stateMutability": "nonpayable",
      "type": "function"
    },
    {
      "inputs": [
        {
          "internalType": "uint256",
          "name": "newMax",
          "type": "uint256"
        }
      ],
      "name": "setMaxReputationChangePerUpdate",
      "outputs": [],
      "stateMutability": "nonpayable",
      "type": "function"
    },
    {
      "inputs": [
        {
          "internalType": "uint256",
          "name": "newTime",
          "type": "uint256"
        }
      ],
      "name": "setOptimalResponseTime",
      "outputs": [],
      "stateMutability": "nonpayable",
      "type": "function"
    },
    {
      "inputs": [
        {
          "internalType": "bool",
          "name": "required",
          "type": "bool"
        }
      ],
      "name": "setRequireProductLink",
      "outputs": [],
      "stateMutability": "nonpayable",
      "type": "function"
    },
    {
      "inputs": [
        {
          "internalType": "uint256",
          "name": "newThreshold",
          "type": "uint256"
        }
      ],
      "name": "setTenureTierThreshold",
      "outputs": [],
      "stateMutability": "nonpayable",
      "type": "function"
    },
    {
      "inputs": [
        {
          "internalType": "uint256",
          "name": "newThreshold",
          "type": "uint256"
        }
      ],
      "name": "setVolumeTierThreshold",
      "outputs": [],
      "stateMutability": "nonpayable",
      "type": "function"
    },
    {
      "inputs": [
        {
          "internalType": "bytes4",
          "name": "interfaceId",
          "type": "bytes4"
        }
      ],
      "name": "supportsInterface",
      "outputs": [
        {
          "internalType": "bool",
          "name": "",
          "type": "bool"
        }
      ],
      "stateMutability": "view",
      "type": "function"
    },
    {
      "inputs": [],
      "name": "tenureTierThreshold",
      "outputs": [
        {
          "internalType": "uint256",
          "name": "",
          "type": "uint256"
        }
      ],
      "stateMutability": "view",
      "type": "function"
    },
    {
      "inputs": [],
      "name": "unpause",
      "outputs": [],
      "stateMutability": "nonpayable",
      "type": "function"
    },
    {
      "inputs": [
        {
          "internalType": "address",
          "name": "retailer",
          "type": "address"
        },
        {
          "internalType": "bool",
          "name": "success",
          "type": "bool"
        }
      ],
      "name": "updateReputation",
      "outputs": [],
      "stateMutability": "view",
      "type": "function"
    },
    {
      "inputs": [
        {
          "components": [
            {
              "internalType": "uint16",
              "name": "successRateWeight",
              "type": "uint16"
            },
            {
              "internalType": "uint16",
              "name": "volumeWeight",
              "type": "uint16"
            },
            {
              "internalType": "uint16",
              "name": "tenureWeight",
              "type": "uint16"
            },
            {
              "internalType": "uint16",
              "name": "responseTimeWeight",
              "type": "uint16"
            },
            {
              "internalType": "uint16",
              "name": "disputeWeight",
              "type": "uint16"
            },
            {
              "internalType": "uint16",
              "name": "consistencyWeight",
              "type": "uint16"
            }
          ],
          "internalType": "struct RetailerRegistry.ReputationWeights",
          "name": "newWeights",
          "type": "tuple"
        }
      ],
      "name": "updateReputationWeights",
      "outputs": [],
      "stateMutability": "nonpayable",
      "type": "function"
    },
    {
      "inputs": [
        {
          "internalType": "bytes32",
          "name": "",
          "type": "bytes32"
        }
      ],
      "name": "verificationRecords",
      "outputs": [
        {
          "internalType": "bytes32",
          "name": "productId",
          "type": "bytes32"
        },
        {
          "internalType": "bytes32",
          "name": "verificationId",
          "type": "bytes32"
        },
        {
          "internalType": "address",
          "name": "retailer",
          "type": "address"
        },
        {
          "internalType": "bool",
          "name": "success",
          "type": "bool"
        },
        {
          "internalType": "uint256",
          "name": "timestamp",
          "type": "uint256"
        },
        {
          "internalType": "bool",
          "name": "processed",
          "type": "bool"
        }
      ],
      "stateMutability": "view",
      "type": "function"
    },
    {
      "inputs": [],
      "name": "volumeTierThreshold",
      "outputs": [
        {
          "internalType": "uint256",
          "name": "",
          "type": "uint256"
        }
      ],
      "stateMutability": "view",
      "type": "function"
    }
  ],
  "bytecode": "0x610140604052610fa06080526105dc60a08190526103e860c081905260e08190526101009190915261012052600280546001600160601b0319166b03e805dc03e803e805dc0fa0179055606460038190556301e13380600455620151806005908155600a6006556276a700600755600855600e55600f805460ff191660011790553480156200008d57600080fd5b506200009b600033620000cf565b50620000c87f47f77047616880e37bcbbdd9286c33c9168e9c2e1a65e8473c916ac5028b83ba33620000cf565b506200017e565b6000828152602081815260408083206001600160a01b038516845290915281205460ff1662000174576000838152602081815260408083206001600160a01b03861684529091529020805460ff191660011790556200012b3390565b6001600160a01b0316826001600160a01b0316847f2f8788117e7eff1d82e926ec794901d17c78024a50270940304540a733656f0d60405160405180910390a450600162000178565b5060005b92915050565b612a77806200018e6000396000f3fe608060405234801561001057600080fd5b50600436106102a05760003560e01c806391d1485411610167578063be3177f1116100ce578063e2c13e3211610087578063e2c13e321461070b578063ee1419981461071e578063ee6d7b7014610731578063f5b6c0c71461073a578063f9afc6531461074d578063ff1f9c421461077457600080fd5b8063be3177f1146106a1578063c26ccab9146106aa578063c378bb95146106bd578063c5aadb9e146106d0578063d547741f146106e3578063da561f45146106f657600080fd5b8063a860b6b311610120578063a860b6b31461062f578063acc0bcdb14610642578063b3727d5214610655578063b3dbe71e1461067c578063bc2e480114610685578063bd3be27c1461069857600080fd5b806391d148541461056c578063986e6cf81461057f5780639a268f351461059f5780639b7ebc5b146105cc5780639d9b80d31461061a578063a217fddf1461062757600080fd5b806358d3b6dc1161020b5780637f857c6d116101c45780637f857c6d1461042057806381d9d23d146104335780638456cb59146104c7578063847a0d64146104cf57806385bb9e5e14610550578063916730cd1461055957600080fd5b806358d3b6dc146103c05780635c975abb146103d35780635d32ff31146103de5780635f479f6a146103f157806360d465b214610404578063780ccb901461041757600080fd5b806336568abe1161025d57806336568abe146103525780633e8fbb45146103655780633f4ba83a14610393578063451135481461039b57806345ea9e52146103a45780635206f7ca146103b757600080fd5b806301ffc9a7146102a5578063070ccf93146102cd578063112027bf146102e2578063248a9ca3146102f95780632f2ff15d1461031c57806332e65ef21461032f575b600080fd5b6102b86102b3366004612297565b610787565b60405190151581526020015b60405180910390f35b6102e06102db3660046122dd565b6107be565b005b6102eb60055481565b6040519081526020016102c4565b6102eb610307366004612307565b60009081526020819052604090206001015490565b6102e061032a366004612320565b6108f7565b6102b861033d366004612307565b600b6020526000908152604090205460ff1681565b6102e0610360366004612320565b610922565b6102b861037336600461234c565b600d60209081526000928352604080842090915290825290205460ff1681565b6102e061095a565b6102eb6103e881565b6102e06103b2366004612376565b610970565b6102eb60045481565b6102e06103ce366004612409565b610c3a565b60015460ff166102b8565b6102e06103ec366004612433565b610d7a565b6102e06103ff366004612307565b610e13565b6102e0610412366004612307565b610e77565b6102eb60035481565b6102e061042e366004612455565b610ea8565b610488610441366004612307565b600a6020526000908152604090208054600182015460028301546003840154600490940154929391926001600160a01b0382169260ff600160a01b90930483169290911686565b6040805196875260208701959095526001600160a01b0390931693850193909352151560608401526080830191909152151560a082015260c0016102c4565b6102e0610ff5565b6002546105139061ffff80821691620100008104821691640100000000820481169166010000000000008104821691600160401b8204811691600160501b90041686565b6040805161ffff978816815295871660208701529386169385019390935290841660608401528316608083015290911660a082015260c0016102c4565b6102eb600e5481565b6102b861056736600461234c565b611008565b6102b861057a366004612320565b61105c565b6102eb61058d36600461246d565b60096020526000908152604090205481565b6105b26105ad36600461246d565b611085565b6040516102c49e9d9c9b9a999897969594939291906124ce565b6105df6105da36600461246d565b611180565b604080519889526020890197909752958701949094526060860192909252608085015260a084015260c083015260e0820152610100016102c4565b600f546102b89060ff1681565b6102eb600081565b6102e061063d366004612553565b61124e565b6102e0610650366004612307565b61126d565b6102eb7f459df1eeea594b2016a2467446a31053d30371c97e7b56d271b5e1d84e76672581565b6102eb60075481565b6102e061069336600461234c565b6112bd565b6102eb610e1081565b6102eb60085481565b6102e06106b8366004612307565b611338565b6102e06106cb366004612307565b611369565b6102e06106de36600461234c565b61139a565b6102e06106f1366004612320565b61149b565b6102eb600080516020612a0283398151915281565b6102e0610719366004612409565b6114c0565b6102e061072c36600461256e565b611539565b6102eb60065481565b6102e0610748366004612320565b61195a565b6102eb7f6f865443d0c0b78e4d55059d3c0c047611b9792a365db9b5562107c5cec4bf6681565b6102e06107823660046122dd565b611b4c565b60006001600160e01b03198216637965db0b60e01b14806107b857506301ffc9a760e01b6001600160e01b03198316145b92915050565b600080516020612a028339815191526107d681611cfe565b6107de611d08565b6001600160a01b0383166000908152600c60205260409020805460ff166108205760405162461bcd60e51b8152600401610817906125b4565b60405180910390fd5b600083116108625760405162461bcd60e51b815260206004820152600f60248201526e496e76616c696420726576656e756560881b6044820152606401610817565b8281600c0160008282546108769190612601565b909155505042600a820155600061088c85611d2e565b9050808260020181905550846001600160a01b0316600080516020612a22833981519152826040516108e89181526040602082018190526010908201526f14995d995b9d59481c9958dbdc99195960821b606082015260800190565b60405180910390a25050505050565b60008281526020819052604090206001015461091281611cfe565b61091c8383611ed4565b50505050565b6001600160a01b038116331461094b5760405163334bd91960e11b815260040160405180910390fd5b6109558282611f66565b505050565b600061096581611cfe565b61096d611fd1565b50565b600080516020612a0283398151915261098881611cfe565b610990611d08565b6001600160a01b0384166000908152600c602052604090205460ff16156109ee5760405162461bcd60e51b8152602060048201526012602482015271105b1c9958591e481c9959da5cdd195c995960721b6044820152606401610817565b6001600160a01b038416610a335760405162461bcd60e51b815260206004820152600c60248201526b5a65726f206164647265737360a01b6044820152606401610817565b81610a6d5760405162461bcd60e51b815260206004820152600a602482015269456d707479206e616d6560b01b6044820152606401610817565b604051806101c00160405280600115158152602001856001600160a01b0316815260200184848080601f016020809104026020016040519081016040528093929190818152602001838380828437600092018290525093855250506101f4602080850191909152604080850184905260608501849052426080860181905260a0860185905260c0860185905260e0860185905261010080870186905261012087019190915261014086018590526101609095018490526001600160a01b038a81168552600c83529381902086518154938801516001600160a81b0319909416901515610100600160a81b031916179290941690940217825550908201516001820190610b7990826126ac565b50606082015181600201556080820151816003015560a0820151816004015560c0820151816005015560e0820151816006015561010082015181600701556101208201518160080155610140820151816009015561016082015181600a015561018082015181600b01556101a082015181600c0155905050836001600160a01b03167fc6b3a3cb893680baef98e6f2f73e2f33a36a14eaea0ba521451d6547ba362b628484604051610c2c92919061276c565b60405180910390a250505050565b600080516020612a02833981519152610c5281611cfe565b610c5a611d08565b6001600160a01b0383166000908152600c60205260409020805460ff16610c935760405162461bcd60e51b8152600401610817906125b4565b600781018054906000610ca58361279b565b919050555082610cce57600881018054906000610cc18361279b565b90915550506000600b8201555b42600a82015560405183151581526001600160a01b038516907ed8ca6270a334ee5388ec816cae052b09de3dc70ba557a8dfa6c4d157a7604f9060200160405180910390a26000610d1e85611d2e565b9050808260020181905550846001600160a01b0316600080516020612a22833981519152826040516108e89181526040602082018190526010908201526f111a5cdc1d5d19481c9958dbdc99195960821b606082015260800190565b6000610d8581611cfe565b60008311610dc65760405162461bcd60e51b815260206004820152600e60248201526d125b9d985b1a59081c195c9a5bd960921b6044820152606401610817565b6064821115610e075760405162461bcd60e51b815260206004820152600d60248201526c0a4c2e8ca40e8dede40d0d2ced609b1b6044820152606401610817565b50600791909155600855565b6000610e1e81611cfe565b600082118015610e3057506101f48211155b610e715760405162461bcd60e51b8152602060048201526012602482015271496e76616c6964206d6178206368616e676560701b6044820152606401610817565b50600e55565b6000610e8281611cfe565b60008211610ea25760405162461bcd60e51b8152600401610817906127b4565b50600455565b6000610eb381611cfe565b610ec360c0830160a084016127ef565b61ffff16610ed760a08401608085016127ef565b61ffff16610eeb60808501606086016127ef565b61ffff16610eff60608601604087016127ef565b61ffff16610f1360408701602088016127ef565b61ffff16610f2460208801886127ef565b61ffff16610f329190612601565b610f3c9190612601565b610f469190612601565b610f509190612601565b610f5a9190612601565b61271014610faa5760405162461bcd60e51b815260206004820152601960248201527f57656967687473206d7573742073756d20746f203130303030000000000000006044820152606401610817565b816002610fb78282612819565b9050507fe1b52b6ceeea7597bdc9485959d171343baa12090d0d42c412683124fbecedd382604051610fe99190612923565b60405180910390a15050565b600061100081611cfe565b61096d612023565b6001600160a01b0381166000908152600c602052604081205460ff16801561105557506001600160a01b038084166000908152600d602090815260408083209386168352929052205460ff165b9392505050565b6000918252602082815260408084206001600160a01b0393909316845291905290205460ff1690565b600c602052600090815260409020805460018201805460ff8316936101009093046001600160a01b03169291906110bb9061262a565b80601f01602080910402602001604051908101604052809291908181526020018280546110e79061262a565b80156111345780601f1061110957610100808354040283529160200191611134565b820191906000526020600020905b81548152906001019060200180831161111757829003601f168201915b50505050509080600201549080600301549080600401549080600501549080600601549080600701549080600801549080600901549080600a01549080600b01549080600c015490508e565b6001600160a01b0381166000908152600c60205260408120805482918291829182918291829182919060ff166111c85760405162461bcd60e51b8152600401610817906125b4565b6111d581600a015461205e565b92506111e9816003015482600401546120c5565b98506111f8816006015461210f565b9750611207816005015461213c565b96506112168160090154612177565b955061122a81600701548260080154612200565b945061123981600b0154612213565b93508060020154915050919395975091939597565b600061125981611cfe565b50600f805460ff1916911515919091179055565b600061127881611cfe565b600082116112b75760405162461bcd60e51b815260206004820152600c60248201526b496e76616c69642074696d6560a01b6044820152606401610817565b50600555565b600080516020612a028339815191526112d581611cfe565b6112dd611d08565b6001600160a01b038084166000818152600d6020908152604080832094871680845294909152808220805460ff19169055517f806c49243cd9a89d3b9caaddb327c11e069cb51b62f4e618a552669ec345a4229190a3505050565b600061134381611cfe565b600082116113635760405162461bcd60e51b8152600401610817906127b4565b50600655565b600061137481611cfe565b600082116113945760405162461bcd60e51b8152600401610817906127b4565b50600355565b600080516020612a028339815191526113b281611cfe565b6113ba611d08565b6001600160a01b0382166000908152600c602052604090205460ff166113f25760405162461bcd60e51b8152600401610817906125b4565b6001600160a01b03831661143d5760405162461bcd60e51b81526020600482015260126024820152715a65726f206272616e64206164647265737360701b6044820152606401610817565b6001600160a01b038084166000818152600d6020908152604080832094871680845294909152808220805460ff19166001179055517f9b02f1dc91a03090b40e0c41a180160119a4710162a2c80a9f0c9289c4508cf39190a3505050565b6000828152602081905260409020600101546114b681611cfe565b61091c8383611f66565b600080516020612a028339815191526114d881611cfe565b600f5460ff16156109555760405162461bcd60e51b815260206004820152602560248201527f5573652070726f63657373566572696669636174696f6e526573756c7420696e6044820152641cdd19585960da1b6064820152608401610817565b7f459df1eeea594b2016a2467446a31053d30371c97e7b56d271b5e1d84e76672561156381611cfe565b61156b611d08565b6001600160a01b0383166000908152600c602052604090205460ff166115a35760405162461bcd60e51b8152600401610817906125b4565b846115f05760405162461bcd60e51b815260206004820152601760248201527f496e76616c696420766572696669636174696f6e2049440000000000000000006044820152606401610817565b6000858152600a602052604090206004015460ff16156116465760405162461bcd60e51b8152602060048201526011602482015270105b1c9958591e481c1c9bd8d95cdcd959607a1b6044820152606401610817565b6001600160a01b03831660009081526009602052604090205461166c90610e1090612601565b4210156116aa5760405162461bcd60e51b815260206004820152600c60248201526b14985d19481b1a5b5a5d195960a21b6044820152606401610817565b6040518060c00160405280858152602001868152602001846001600160a01b03168152602001831515815260200142815260200160011515815250600a6000878152602001908152602001600020600082015181600001556020820151816001015560408201518160020160006101000a8154816001600160a01b0302191690836001600160a01b0316021790555060608201518160020160146101000a81548160ff0219169083151502179055506080820151816003015560a08201518160040160006101000a81548160ff0219169083151502179055509050504260096000856001600160a01b03166001600160a01b03168152602001908152602001600020819055506000600c6000856001600160a01b03166001600160a01b0316815260200190815260200160002090508060030160008154809291906117ee9061279b565b909155505042600a82015582611821576004810180549060006118108361279b565b90915550506000600b820155611839565b600b810180549060006118338361279b565b91905055505b6002810154600061184986611d2e565b90508181111561188157600061185f83836129b5565b9050600e5481111561187b57600e546118789084612601565b91505b506118ab565b600061188d82846129b5565b9050600e548111156118a957600e546118a690846129b5565b91505b505b6002830181905560405185151581526001600160a01b0387169089907fd80aa3309f0de737380047d55f1b4dfe93af08fd616449b5e9071c34d7af4fd69060200160405180910390a3856001600160a01b0316600080516020612a22833981519152826040516119489181526040602082018190526013908201527215995c9a599a58d85d1a5bdb881c995cdd5b1d606a1b606082015260800190565b60405180910390a25050505050505050565b7f6f865443d0c0b78e4d55059d3c0c047611b9792a365db9b5562107c5cec4bf6661198481611cfe565b61198c611d08565b6001600160a01b0382166000908152600c602052604090205460ff166119c45760405162461bcd60e51b8152600401610817906125b4565b82611a065760405162461bcd60e51b8152602060048201526012602482015271125b9d985b1a59081c1c9bd91d58dd08125160721b6044820152606401610817565b6000838152600b602052604090205460ff1615611a655760405162461bcd60e51b815260206004820152601760248201527f50726f6475637420616c726561647920636f756e7465640000000000000000006044820152606401610817565b6000838152600b60209081526040808320805460ff191660011790556001600160a01b0385168352600c90915281206006810180549192611aa58361279b565b909155505042600a8201556040516001600160a01b0384169085907f7eb13c15bb882815fcb993e0d600d3e382702ddf42a62ad11535affe97206a9e90600090a36000611af184611d2e565b9050808260020181905550836001600160a01b0316600080516020612a22833981519152826040516108e8918152604060208201819052600f908201526e141c9bd91d58dd081a185b991b1959608a1b606082015260800190565b7f459df1eeea594b2016a2467446a31053d30371c97e7b56d271b5e1d84e766725611b7681611cfe565b611b7e611d08565b6001600160a01b0383166000908152600c60205260409020805460ff16611bb75760405162461bcd60e51b8152600401610817906125b4565b60008311611bff5760405162461bcd60e51b8152602060048201526015602482015274496e76616c696420726573706f6e73652074696d6560581b6044820152606401610817565b8060090154600003611c175760098101839055611c4e565b600a611c248460036129c8565b6009830154611c349060076129c8565b611c3e9190612601565b611c4891906129df565b60098201555b42600a8201556040518381526001600160a01b038516907f0bffd5511648e4d279c617930cd0d97a2f85ce0592db6d21144baa27fea8c7b39060200160405180910390a26000611c9d85611d2e565b9050808260020181905550846001600160a01b0316600080516020612a22833981519152826040516108e89181526040602082018190526015908201527414995cdc1bdb9cd9481d1a5b59481d5c19185d1959605a1b606082015260800190565b61096d8133612237565b60015460ff1615611d2c5760405163d93c066560e01b815260040160405180910390fd5b565b6001600160a01b0381166000908152600c60205260408120600a8101548290611d569061205e565b90506000611d6c836003015484600401546120c5565b90506000611d7d846006015461210f565b90506000611d8e856005015461213c565b90506000611d9f8660090154612177565b90506000611db587600701548860080154612200565b90506000611dc688600b0154612213565b60025490915060009061271090611de890600160501b900461ffff16846129c8565b600254611e0090600160401b900461ffff16866129c8565b600254611e1b906601000000000000900461ffff16886129c8565b600254611e3490640100000000900461ffff168a6129c8565b600254611e4b9062010000900461ffff168c6129c8565b600254611e5c9061ffff168e6129c8565b611e669190612601565b611e709190612601565b611e7a9190612601565b611e849190612601565b611e8e9190612601565b611e9891906129df565b90506064611ea689836129c8565b611eb091906129df565b90506103e88111611ec15780611ec5565b6103e85b9b9a5050505050505050505050565b6000611ee0838361105c565b611f5e576000838152602081815260408083206001600160a01b03861684529091529020805460ff19166001179055611f163390565b6001600160a01b0316826001600160a01b0316847f2f8788117e7eff1d82e926ec794901d17c78024a50270940304540a733656f0d60405160405180910390a45060016107b8565b5060006107b8565b6000611f72838361105c565b15611f5e576000838152602081815260408083206001600160a01b0386168085529252808320805460ff1916905551339286917ff6391f5c32d9c69d2a47ea670b442974b53935d1edc7fd64eb21e047a839171b9190a45060016107b8565b611fd9612274565b6001805460ff191690557f5db9ee0a495bf2e6ff9c91a7834c1ba4fdd244a5e8aa4e537bd38aeae4b073aa335b6040516001600160a01b03909116815260200160405180910390a1565b61202b611d08565b6001805460ff1916811790557f62e78cea01bee320cd4e420270b5ea74000d11b0c9f74754ebdbfc544b05a25833612006565b60008061206b83426129b5565b90506007548110156120805750606492915050565b60006007548261209091906129df565b90506000600854826120a291906129c8565b905060328111156120b1575060325b6120bc8160646129b5565b95945050505050565b6000826000036120d857506101f46107b8565b6000836120e584826129b5565b6120f09060646129c8565b6120fa91906129df565b905061210781600a6129c8565b949350505050565b6000600354821061212357506103e8919050565b600354612132836103e86129c8565b6107b891906129df565b60008061214983426129b5565b9050600454811061215e57506103e892915050565b60045461216d826103e86129c8565b61105591906129df565b60008160000361218a57506101f4919050565b600554821161219c57506103e8919050565b6005546121aa9060036129c8565b82106121b857506000919050565b6000600554836121c891906129b5565b9050600060055460026121db91906129c8565b9050806121ea836103e86129c8565b6121f491906129df565b612107906103e86129b5565b6000826000036120d857506103e86107b8565b600060065482101561222e57600654612132836103e86129c8565b506103e8919050565b612241828261105c565b6122705760405163e2517d3f60e01b81526001600160a01b038216600482015260248101839052604401610817565b5050565b60015460ff16611d2c57604051638dfc202b60e01b815260040160405180910390fd5b6000602082840312156122a957600080fd5b81356001600160e01b03198116811461105557600080fd5b80356001600160a01b03811681146122d857600080fd5b919050565b600080604083850312156122f057600080fd5b6122f9836122c1565b946020939093013593505050565b60006020828403121561231957600080fd5b5035919050565b6000806040838503121561233357600080fd5b82359150612343602084016122c1565b90509250929050565b6000806040838503121561235f57600080fd5b612368836122c1565b9150612343602084016122c1565b60008060006040848603121561238b57600080fd5b612394846122c1565b9250602084013567ffffffffffffffff808211156123b157600080fd5b818601915086601f8301126123c557600080fd5b8135818111156123d457600080fd5b8760208285010111156123e657600080fd5b6020830194508093505050509250925092565b803580151581146122d857600080fd5b6000806040838503121561241c57600080fd5b612425836122c1565b9150612343602084016123f9565b6000806040838503121561244657600080fd5b50508035926020909101359150565b600060c0828403121561246757600080fd5b50919050565b60006020828403121561247f57600080fd5b611055826122c1565b6000815180845260005b818110156124ae57602081850181015186830182015201612492565b506000602082860101526020601f19601f83011685010191505092915050565b8e151581526001600160a01b038e1660208201526101c0604082018190526000906124fb9083018f612488565b606083019d909d5250608081019a909a5260a08a019890985260c089019690965260e08801949094526101008701929092526101208601526101408501526101608401526101808301526101a0909101529392505050565b60006020828403121561256557600080fd5b611055826123f9565b6000806000806080858703121561258457600080fd5b843593506020850135925061259b604086016122c1565b91506125a9606086016123f9565b905092959194509250565b60208082526017908201527f52657461696c6572206e6f742072656769737465726564000000000000000000604082015260600190565b634e487b7160e01b600052601160045260246000fd5b808201808211156107b8576107b86125eb565b634e487b7160e01b600052604160045260246000fd5b600181811c9082168061263e57607f821691505b60208210810361246757634e487b7160e01b600052602260045260246000fd5b601f82111561095557600081815260208120601f850160051c810160208610156126855750805b601f850160051c820191505b818110156126a457828155600101612691565b505050505050565b815167ffffffffffffffff8111156126c6576126c6612614565b6126da816126d4845461262a565b8461265e565b602080601f83116001811461270f57600084156126f75750858301515b600019600386901b1c1916600185901b1785556126a4565b600085815260208120601f198616915b8281101561273e5788860151825594840194600190910190840161271f565b508582101561275c5787850151600019600388901b60f8161c191681555b5050505050600190811b01905550565b60208152816020820152818360408301376000818301604090810191909152601f909201601f19160101919050565b6000600182016127ad576127ad6125eb565b5060010190565b602080825260119082015270125b9d985b1a59081d1a1c995cda1bdb19607a1b604082015260600190565b61ffff8116811461096d57600080fd5b60006020828403121561280157600080fd5b8135611055816127df565b600081356107b8816127df565b8135612824816127df565b61ffff8116905081548161ffff1982161783556020840135612845816127df565b63ffff00008160101b169050808363ffffffff19841617178455604085013561286d816127df565b65ffff000000008160201b168465ffffffffffff198516178317178555505050506128bf61289d6060840161280c565b825467ffff000000000000191660309190911b67ffff00000000000016178255565b6128f46128ce6080840161280c565b825469ffff0000000000000000191660409190911b69ffff000000000000000016178255565b61227061290360a0840161280c565b82805461ffff60501b191660509290921b61ffff60501b16919091179055565b60c081018235612932816127df565b61ffff9081168352602084013590612949826127df565b9081166020840152604084013590612960826127df565b9081166040840152606084013590612977826127df565b908116606084015260808401359061298e826127df565b908116608084015260a0840135906129a5826127df565b80821660a0850152505092915050565b818103818111156107b8576107b86125eb565b80820281158282048414176107b8576107b86125eb565b6000826129fc57634e487b7160e01b600052601260045260246000fd5b50049056fe47f77047616880e37bcbbdd9286c33c9168e9c2e1a65e8473c916ac5028b83bac17e77081800e4bec45161da763d23d62f41146fb2629ee32a8fea0765743a12a2646970667358221220aec55f9c1a50d58feaa0bdc413b707f71e3ae9e1e88da113db32b320e2da5ab364736f6c63430008140033",
  "linkReferences": {},
  "deployedLinkReferences": {}
}