{
  "_format": "hh-sol-artifact-1",
  "contractName": "VerificationManager",
  "sourceName": "contracts/VerificationManager.sol",
  "abi": [
    {
      "inputs": [
        {
          "internalType": "address",
          "name": "_authToken",
          "type": "address"
        },
        {
          "internalType": "address",
          "name": "_productRegistry",
          "type": "address"
        },
        {
          "internalType": "address",
          "name": "_feeDistributor",
          "type": "address"
        }
      ],
      "stateMutability": "nonpayable",
      "type": "constructor"
    },
    {
      "inputs": [],
      "name": "AccessControlBadConfirmation",
      "type": "error"
    },
    {
      "inputs": [
        {
          "internalType": "address",
          "name": "account",
          "type": "address"
        },
        {
          "internalType": "bytes32",
          "name": "neededRole",
          "type": "bytes32"
        }
      ],
      "name": "AccessControlUnauthorizedAccount",
      "type": "error"
    },
    {
      "inputs": [],
      "name": "EnforcedPause",
      "type": "error"
    },
    {
      "inputs": [],
      "name": "ExpectedPause",
      "type": "error"
    },
    {
      "inputs": [],
      "name": "ReentrancyGuardReentrantCall",
      "type": "error"
    },
    {
      "anonymous": false,
      "inputs": [
        {
          "indexed": true,
          "internalType": "address",
          "name": "verifier",
          "type": "address"
        },
        {
          "indexed": false,
          "internalType": "uint256",
          "name": "amount",
          "type": "uint256"
        }
      ],
      "name": "FeeDistributed",
      "type": "event"
    },
    {
      "anonymous": false,
      "inputs": [
        {
          "indexed": false,
          "internalType": "address",
          "name": "account",
          "type": "address"
        }
      ],
      "name": "Paused",
      "type": "event"
    },
    {
      "anonymous": false,
      "inputs": [
        {
          "indexed": true,
          "internalType": "bytes32",
          "name": "role",
          "type": "bytes32"
        },
        {
          "indexed": true,
          "internalType": "bytes32",
          "name": "previousAdminRole",
          "type": "bytes32"
        },
        {
          "indexed": true,
          "internalType": "bytes32",
          "name": "newAdminRole",
          "type": "bytes32"
        }
      ],
      "name": "RoleAdminChanged",
      "type": "event"
    },
    {
      "anonymous": false,
      "inputs": [
        {
          "indexed": true,
          "internalType": "bytes32",
          "name": "role",
          "type": "bytes32"
        },
        {
          "indexed": true,
          "internalType": "address",
          "name": "account",
          "type": "address"
        },
        {
          "indexed": true,
          "internalType": "address",
          "name": "sender",
          "type": "address"
        }
      ],
      "name": "RoleGranted",
      "type": "event"
    },
    {
      "anonymous": false,
      "inputs": [
        {
          "indexed": true,
          "internalType": "bytes32",
          "name": "role",
          "type": "bytes32"
        },
        {
          "indexed": true,
          "internalType": "address",
          "name": "account",
          "type": "address"
        },
        {
          "indexed": true,
          "internalType": "address",
          "name": "sender",
          "type": "address"
        }
      ],
      "name": "RoleRevoked",
      "type": "event"
    },
    {
      "anonymous": false,
      "inputs": [
        {
          "indexed": true,
          "internalType": "address",
          "name": "verifier",
          "type": "address"
        },
        {
          "indexed": false,
          "internalType": "uint256",
          "name": "amount",
          "type": "uint256"
        }
      ],
      "name": "StakeWithdrawn",
      "type": "event"
    },
    {
      "anonymous": false,
      "inputs": [
        {
          "indexed": false,
          "internalType": "address",
          "name": "account",
          "type": "address"
        }
      ],
      "name": "Unpaused",
      "type": "event"
    },
    {
      "anonymous": false,
      "inputs": [
        {
          "indexed": true,
          "internalType": "bytes32",
          "name": "requestId",
          "type": "bytes32"
        },
        {
          "indexed": true,
          "internalType": "address",
          "name": "verifier",
          "type": "address"
        }
      ],
      "name": "VerificationAssigned",
      "type": "event"
    },
    {
      "anonymous": false,
      "inputs": [
        {
          "indexed": true,
          "internalType": "bytes32",
          "name": "requestId",
          "type": "bytes32"
        },
        {
          "indexed": false,
          "internalType": "bool",
          "name": "result",
          "type": "bool"
        },
        {
          "indexed": false,
          "internalType": "address",
          "name": "verifier",
          "type": "address"
        }
      ],
      "name": "VerificationCompleted",
      "type": "event"
    },
    {
      "anonymous": false,
      "inputs": [
        {
          "indexed": true,
          "internalType": "bytes32",
          "name": "requestId",
          "type": "bytes32"
        },
        {
          "indexed": true,
          "internalType": "bytes32",
          "name": "productId",
          "type": "bytes32"
        },
        {
          "indexed": false,
          "internalType": "address",
          "name": "requester",
          "type": "address"
        },
        {
          "indexed": false,
          "internalType": "uint256",
          "name": "fee",
          "type": "uint256"
        }
      ],
      "name": "VerificationRequested",
      "type": "event"
    },
    {
      "anonymous": false,
      "inputs": [
        {
          "indexed": true,
          "internalType": "address",
          "name": "verifier",
          "type": "address"
        },
        {
          "indexed": false,
          "internalType": "uint256",
          "name": "stake",
          "type": "uint256"
        }
      ],
      "name": "VerifierRegistered",
      "type": "event"
    },
    {
      "anonymous": false,
      "inputs": [
        {
          "indexed": true,
          "internalType": "address",
          "name": "verifier",
          "type": "address"
        },
        {
          "indexed": false,
          "internalType": "uint256",
          "name": "penalty",
          "type": "uint256"
        }
      ],
      "name": "VerifierSlashed",
      "type": "event"
    },
    {
      "inputs": [],
      "name": "DEFAULT_ADMIN_ROLE",
      "outputs": [
        {
          "internalType": "bytes32",
          "name": "",
          "type": "bytes32"
        }
      ],
      "stateMutability": "view",
      "type": "function"
    },
    {
      "inputs": [],
      "name": "SLASHER_ROLE",
      "outputs": [
        {
          "internalType": "bytes32",
          "name": "",
          "type": "bytes32"
        }
      ],
      "stateMutability": "view",
      "type": "function"
    },
    {
      "inputs": [],
      "name": "VERIFIER_ROLE",
      "outputs": [
        {
          "internalType": "bytes32",
          "name": "",
          "type": "bytes32"
        }
      ],
      "stateMutability": "view",
      "type": "function"
    },
    {
      "inputs": [
        {
          "internalType": "address",
          "name": "verifier",
          "type": "address"
        },
        {
          "internalType": "uint256",
          "name": "penalty",
          "type": "uint256"
        }
      ],
      "name": "adminSlashVerifier",
      "outputs": [],
      "stateMutability": "nonpayable",
      "type": "function"
    },
    {
      "inputs": [
        {
          "internalType": "bytes32",
          "name": "requestId",
          "type": "bytes32"
        },
        {
          "internalType": "address",
          "name": "verifier",
          "type": "address"
        }
      ],
      "name": "assignVerifier",
      "outputs": [],
      "stateMutability": "nonpayable",
      "type": "function"
    },
    {
      "inputs": [],
      "name": "authToken",
      "outputs": [
        {
          "internalType": "contract AuthToken",
          "name": "",
          "type": "address"
        }
      ],
      "stateMutability": "view",
      "type": "function"
    },
    {
      "inputs": [
        {
          "internalType": "uint256",
          "name": "productValue",
          "type": "uint256"
        }
      ],
      "name": "calculateVerificationFee",
      "outputs": [
        {
          "internalType": "uint256",
          "name": "",
          "type": "uint256"
        }
      ],
      "stateMutability": "view",
      "type": "function"
    },
    {
      "inputs": [
        {
          "internalType": "bytes32",
          "name": "requestId",
          "type": "bytes32"
        },
        {
          "internalType": "bool",
          "name": "result",
          "type": "bool"
        },
        {
          "internalType": "string",
          "name": "evidenceURI",
          "type": "string"
        }
      ],
      "name": "completeVerification",
      "outputs": [],
      "stateMutability": "nonpayable",
      "type": "function"
    },
    {
      "inputs": [],
      "name": "feeDistributor",
      "outputs": [
        {
          "internalType": "contract FeeDistributor",
          "name": "",
          "type": "address"
        }
      ],
      "stateMutability": "view",
      "type": "function"
    },
    {
      "inputs": [
        {
          "internalType": "bytes32",
          "name": "role",
          "type": "bytes32"
        }
      ],
      "name": "getRoleAdmin",
      "outputs": [
        {
          "internalType": "bytes32",
          "name": "",
          "type": "bytes32"
        }
      ],
      "stateMutability": "view",
      "type": "function"
    },
    {
      "inputs": [
        {
          "internalType": "bytes32",
          "name": "role",
          "type": "bytes32"
        },
        {
          "internalType": "address",
          "name": "account",
          "type": "address"
        }
      ],
      "name": "grantRole",
      "outputs": [],
      "stateMutability": "nonpayable",
      "type": "function"
    },
    {
      "inputs": [
        {
          "internalType": "bytes32",
          "name": "requestId",
          "type": "bytes32"
        }
      ],
      "name": "handleTimeout",
      "outputs": [],
      "stateMutability": "nonpayable",
      "type": "function"
    },
    {
      "inputs": [
        {
          "internalType": "bytes32",
          "name": "role",
          "type": "bytes32"
        },
        {
          "internalType": "address",
          "name": "account",
          "type": "address"
        }
      ],
      "name": "hasRole",
      "outputs": [
        {
          "internalType": "bool",
          "name": "",
          "type": "bool"
        }
      ],
      "stateMutability": "view",
      "type": "function"
    },
    {
      "inputs": [],
      "name": "maxVerificationFee",
      "outputs": [
        {
          "internalType": "uint256",
          "name": "",
          "type": "uint256"
        }
      ],
      "stateMutability": "view",
      "type": "function"
    },
    {
      "inputs": [],
      "name": "minStakeAmount",
      "outputs": [
        {
          "internalType": "uint256",
          "name": "",
          "type": "uint256"
        }
      ],
      "stateMutability": "view",
      "type": "function"
    },
    {
      "inputs": [],
      "name": "minVerificationFee",
      "outputs": [
        {
          "internalType": "uint256",
          "name": "",
          "type": "uint256"
        }
      ],
      "stateMutability": "view",
      "type": "function"
    },
    {
      "inputs": [],
      "name": "pause",
      "outputs": [],
      "stateMutability": "nonpayable",
      "type": "function"
    },
    {
      "inputs": [],
      "name": "paused",
      "outputs": [
        {
          "internalType": "bool",
          "name": "",
          "type": "bool"
        }
      ],
      "stateMutability": "view",
      "type": "function"
    },
    {
      "inputs": [],
      "name": "productRegistry",
      "outputs": [
        {
          "internalType": "contract ProductRegistry",
          "name": "",
          "type": "address"
        }
      ],
      "stateMutability": "view",
      "type": "function"
    },
    {
      "inputs": [
        {
          "internalType": "uint256",
          "name": "stakeAmount",
          "type": "uint256"
        }
      ],
      "name": "registerVerifier",
      "outputs": [],
      "stateMutability": "nonpayable",
      "type": "function"
    },
    {
      "inputs": [
        {
          "internalType": "bytes32",
          "name": "role",
          "type": "bytes32"
        },
        {
          "internalType": "address",
          "name": "callerConfirmation",
          "type": "address"
        }
      ],
      "name": "renounceRole",
      "outputs": [],
      "stateMutability": "nonpayable",
      "type": "function"
    },
    {
      "inputs": [
        {
          "internalType": "bytes32",
          "name": "productId",
          "type": "bytes32"
        },
        {
          "internalType": "uint256",
          "name": "productValue",
          "type": "uint256"
        }
      ],
      "name": "requestVerification",
      "outputs": [],
      "stateMutability": "nonpayable",
      "type": "function"
    },
    {
      "inputs": [
        {
          "internalType": "bytes32",
          "name": "",
          "type": "bytes32"
        }
      ],
      "name": "requests",
      "outputs": [
        {
          "internalType": "bytes32",
          "name": "requestId",
          "type": "bytes32"
        },
        {
          "internalType": "bytes32",
          "name": "productId",
          "type": "bytes32"
        },
        {
          "internalType": "address",
          "name": "requester",
          "type": "address"
        },
        {
          "internalType": "address",
          "name": "assignedVerifier",
          "type": "address"
        },
        {
          "internalType": "uint256",
          "name": "fee",
          "type": "uint256"
        },
        {
          "internalType": "uint256",
          "name": "createdAt",
          "type": "uint256"
        },
        {
          "internalType": "bool",
          "name": "completed",
          "type": "bool"
        },
        {
          "internalType": "bool",
          "name": "result",
          "type": "bool"
        }
      ],
      "stateMutability": "view",
      "type": "function"
    },
    {
      "inputs": [
        {
          "internalType": "bytes32",
          "name": "role",
          "type": "bytes32"
        },
        {
          "internalType": "address",
          "name": "account",
          "type": "address"
        }
      ],
      "name": "revokeRole",
      "outputs": [],
      "stateMutability": "nonpayable",
      "type": "function"
    },
    {
      "inputs": [
        {
          "internalType": "uint256",
          "name": "_minStake",
          "type": "uint256"
        }
      ],
      "name": "setMinStakeAmount",
      "outputs": [],
      "stateMutability": "nonpayable",
      "type": "function"
    },
    {
      "inputs": [
        {
          "internalType": "uint256",
          "name": "_minFee",
          "type": "uint256"
        },
        {
          "internalType": "uint256",
          "name": "_maxFee",
          "type": "uint256"
        }
      ],
      "name": "setVerificationFees",
      "outputs": [],
      "stateMutability": "nonpayable",
      "type": "function"
    },
    {
      "inputs": [
        {
          "internalType": "uint256",
          "name": "_timeout",
          "type": "uint256"
        }
      ],
      "name": "setVerificationTimeout",
      "outputs": [],
      "stateMutability": "nonpayable",
      "type": "function"
    },
    {
      "inputs": [
        {
          "internalType": "address",
          "name": "verifier",
          "type": "address"
        },
        {
          "internalType": "uint256",
          "name": "penalty",
          "type": "uint256"
        }
      ],
      "name": "slashVerifierFromDispute",
      "outputs": [],
      "stateMutability": "nonpayable",
      "type": "function"
    },
    {
      "inputs": [
        {
          "internalType": "bytes4",
          "name": "interfaceId",
          "type": "bytes4"
        }
      ],
      "name": "supportsInterface",
      "outputs": [
        {
          "internalType": "bool",
          "name": "",
          "type": "bool"
        }
      ],
      "stateMutability": "view",
      "type": "function"
    },
    {
      "inputs": [],
      "name": "unpause",
      "outputs": [],
      "stateMutability": "nonpayable",
      "type": "function"
    },
    {
      "inputs": [],
      "name": "verificationTimeout",
      "outputs": [
        {
          "internalType": "uint256",
          "name": "",
          "type": "uint256"
        }
      ],
      "stateMutability": "view",
      "type": "function"
    },
    {
      "inputs": [
        {
          "internalType": "address",
          "name": "",
          "type": "address"
        }
      ],
      "name": "verifiers",
      "outputs": [
        {
          "internalType": "uint256",
          "name": "stakedAmount",
          "type": "uint256"
        },
        {
          "internalType": "uint256",
          "name": "totalVerifications",
          "type": "uint256"
        },
        {
          "internalType": "uint256",
          "name": "successfulVerifications",
          "type": "uint256"
        },
        {
          "internalType": "bool",
          "name": "isActive",
          "type": "bool"
        }
      ],
      "stateMutability": "view",
      "type": "function"
    },
    {
      "inputs": [],
      "name": "withdrawStake",
      "outputs": [],
      "stateMutability": "nonpayable",
      "type": "function"
    }
  ],
  "bytecode": "0x60c060405267016345785d8a0000600355670de0b6b3a7640000600455683635c9adc5dea000006005556203f4806006553480156200003d57600080fd5b5060405162001cf738038062001cf78339810160408190526200006091620001d5565b600180556001600160a01b038316158015906200008557506001600160a01b03821615155b620000c55760405162461bcd60e51b815260206004820152600c60248201526b5a65726f206164647265737360a01b604482015260640160405180910390fd5b620000d260003362000109565b506001600160a01b0392831660805290821660a052600280549190921661010002610100600160a81b03199091161790556200021f565b6000828152602081815260408083206001600160a01b038516845290915281205460ff16620001ae576000838152602081815260408083206001600160a01b03861684529091529020805460ff19166001179055620001653390565b6001600160a01b0316826001600160a01b0316847f2f8788117e7eff1d82e926ec794901d17c78024a50270940304540a733656f0d60405160405180910390a4506001620001b2565b5060005b92915050565b80516001600160a01b0381168114620001d057600080fd5b919050565b600080600060608486031215620001eb57600080fd5b620001f684620001b8565b92506200020660208501620001b8565b91506200021660408501620001b8565b90509250925092565b60805160a051611a816200027660003960008181610567015281816106570152610f9201526000818161050f0152818161073a01528181610c2201528181610ef40152818161135f015261154b0152611a816000f3fe608060405234801561001057600080fd5b50600436106101fb5760003560e01c80635c975abb1161011a578063afc1d8cc116100ad578063e4a091fc1161007c578063e4a091fc1461050a578063e7705db614610531578063eb4af04514610546578063f188768414610559578063fff218c31461056257600080fd5b8063afc1d8cc146104dd578063bed9d861146104e6578063c8a53a4c146104ee578063d547741f146104f757600080fd5b806391d14854116100e957806391d14854146104015780639d598770146104145780639d86698514610427578063a217fddf146104d557600080fd5b80635c975abb146103815780636c8244871461038c578063780c7fb7146103e65780638456cb59146103f957600080fd5b80632f2ff15d116101925780634393cde5116101615780634393cde5146103215780634e463704146103345780634e9e7c68146103475780635095af641461035a57600080fd5b80632f2ff15d146102e057806336568abe146102f35780633c7192c1146103065780633f4ba83a1461031957600080fd5b8063194614df116101ce578063194614df1461028057806324188f2d14610297578063248a9ca3146102aa5780632de89e6c146102cd57600080fd5b806301ffc9a7146102005780630d43e8ad146102285780630f90286d1461025857806318433a7e1461026d575b600080fd5b61021361020e3660046117e9565b610589565b60405190151581526020015b60405180910390f35b6002546102409061010090046001600160a01b031681565b6040516001600160a01b03909116815260200161021f565b61026b61026636600461181a565b6105c0565b005b61026b61027b36600461183c565b610620565b61028960035481565b60405190815260200161021f565b61026b6102a536600461181a565b610631565b6102896102b836600461183c565b60009081526020819052604090206001015490565b61026b6102db36600461186a565b610901565b61026b6102ee366004611896565b61091b565b61026b610301366004611896565b610946565b61026b61031436600461183c565b610979565b61026b610ad8565b61026b61032f36600461186a565b610aee565b61028961034236600461183c565b610b18565b61026b61035536600461183c565b610b51565b6102897f12b42e8a160f6064dc959c6f251e3af0750ad213dbecf573b4710d67d6c28e3981565b60025460ff16610213565b6103c461039a3660046118c6565b60076020526000908152604090208054600182015460028301546003909301549192909160ff1684565b604080519485526020850193909352918301521515606082015260800161021f565b61026b6103f43660046118f1565b610d4d565b61026b6110ce565b61021361040f366004611896565b6110e1565b61026b610422366004611896565b61110a565b61048a61043536600461183c565b6008602052600090815260409020805460018201546002830154600384015460048501546005860154600690960154949593946001600160a01b03938416949390921692909160ff8082169161010090041688565b6040805198895260208901979097526001600160a01b0395861696880196909652939092166060860152608085015260a0840152151560c0830152151560e08201526101000161021f565b610289600081565b61028960065481565b61026b611287565b61028960045481565b61026b610505366004611896565b611417565b6102407f000000000000000000000000000000000000000000000000000000000000000081565b610289600080516020611a2c83398151915281565b61026b61055436600461183c565b61143c565b61028960055481565b6102407f000000000000000000000000000000000000000000000000000000000000000081565b60006001600160e01b03198216637965db0b60e01b14806105ba57506301ffc9a760e01b6001600160e01b03198316145b92915050565b60006105cb8161144d565b818311156106145760405162461bcd60e51b8152602060048201526011602482015270496e76616c6964206665652072616e676560781b60448201526064015b60405180910390fd5b50600391909155600455565b600061062b8161144d565b50600655565b610639611457565b610641611481565b604051631392c59160e11b8152600481018390527f00000000000000000000000000000000000000000000000000000000000000006001600160a01b0316906327258b2290602401602060405180830381865afa1580156106a6573d6000803e3d6000fd5b505050506040513d601f19601f820116820180604052508101906106ca919061197a565b61070a5760405162461bcd60e51b8152602060048201526011602482015270141c9bd91d58dd081b9bdd08199bdd5b99607a1b604482015260640161060b565b600061071582610b18565b6040516323b872dd60e01b8152336004820152306024820152604481018290529091507f00000000000000000000000000000000000000000000000000000000000000006001600160a01b0316906323b872dd906064016020604051808303816000875af115801561078b573d6000803e3d6000fd5b505050506040513d601f19601f820116820180604052508101906107af919061197a565b5060408051602081018590526bffffffffffffffffffffffff193360601b169181019190915242605482015260009060740160408051808303601f19018152828252805160209182012061010080850184528185528285018981523386860181815260006060890181815260808a018c81524260a08c0190815260c08c0184815260e08d018581528a865260088c52948c90209c518d55965160018d0155935160028c0180546001600160a01b03199081166001600160a01b0393841617909155925160038d0180549094169116179091555160048a015590516005890155915160069097018054925161ffff1990931697151561ff001916979097179115159092021790945582519384529083018590529250859183917fbbfc5fb60d2ed6161aac7265297c71b62fd58fea97bd4a1b6bb2847cf324fe02910160405180910390a350506108fd60018055565b5050565b600061090c8161144d565b61091683836114a5565b505050565b6000828152602081905260409020600101546109368161144d565b6109408383611601565b50505050565b6001600160a01b038116331461096f5760405163334bd91960e11b815260040160405180910390fd5b6109168282611693565b6000818152600860205260409020600681015460ff16156109d05760405162461bcd60e51b8152602060048201526011602482015270105b1c9958591e4818dbdb5c1b195d1959607a1b604482015260640161060b565b60065481600501546109e291906119ad565b421015610a215760405162461bcd60e51b815260206004820152600d60248201526c139bdd081d1a5b5959081bdd5d609a1b604482015260640161060b565b60038101546001600160a01b031615610a7a5760038101546001600160a01b0316600090815260076020526040812054610a5d90600a906119c0565b6003830154909150610a78906001600160a01b0316826114a5565b505b60068101805461ffff19166001179055600381015460408051600081526001600160a01b03909216602083015283917f472b66db47a1994b230aebb63a051ba7d145c7b9963b0127b46623a3c5fe8b13910160405180910390a25050565b6000610ae38161144d565b610aeb6116fe565b50565b7f12b42e8a160f6064dc959c6f251e3af0750ad213dbecf573b4710d67d6c28e3961090c8161144d565b600080610b276103e8846119c0565b9050600354811015610b3d575050600354919050565b6004548111156105ba575050600454919050565b610b59611457565b610b61611481565b600554811015610ba85760405162461bcd60e51b8152602060048201526012602482015271496e73756666696369656e74207374616b6560701b604482015260640161060b565b3360009081526007602052604090206003015460ff1615610c005760405162461bcd60e51b8152602060048201526012602482015271105b1c9958591e481c9959da5cdd195c995960721b604482015260640161060b565b6040516323b872dd60e01b8152336004820152306024820152604481018290527f00000000000000000000000000000000000000000000000000000000000000006001600160a01b0316906323b872dd906064016020604051808303816000875af1158015610c73573d6000803e3d6000fd5b505050506040513d601f19601f82011682018060405250810190610c97919061197a565b50604080516080810182528281526000602080830182815283850183815260016060860181815233808752600790955296909420945185559051928401929092559051600283015591516003909101805460ff1916911515919091179055610d0e90600080516020611a2c83398151915290611601565b5060405181815233907f983b8264b64c9863a439320eb632213f6e5ca279753b012988656784757d97759060200160405180910390a2610aeb60018055565b600080516020611a2c833981519152610d658161144d565b610d6d611457565b6000858152600860205260409020600681015460ff1615610dc45760405162461bcd60e51b8152602060048201526011602482015270105b1c9958591e4818dbdb5c1b195d1959607a1b604482015260640161060b565b60038101546001600160a01b03163314610e0f5760405162461bcd60e51b815260206004820152600c60248201526b139bdd08185cdcda59db995960a21b604482015260640161060b565b6006548160050154610e2191906119ad565b421115610e625760405162461bcd60e51b815260206004820152600f60248201526e14995c5d595cdd08195e1c1a5c9959608a1b604482015260640161060b565b600681018054600161ffff1990911661010088151502178117909155336000908152600760205260408120918201805491610e9c836119e2565b91905055508515610ebf57600281018054906000610eb9836119e2565b91905055505b60025460048381015460405163a9059cbb60e01b81526101009093046001600160a01b039081169284019290925260248301527f0000000000000000000000000000000000000000000000000000000000000000169063a9059cbb906044016020604051808303816000875af1158015610f3d573d6000803e3d6000fd5b505050506040513d601f19601f82011682018060405250810190610f61919061197a565b506002546001830154604051634d9f7f9360e01b81526001600160a01b03610100909304831692634fa0b4839233927f000000000000000000000000000000000000000000000000000000000000000090921691634d9f7f9391610fcb9160040190815260200190565b602060405180830381865afa158015610fe8573d6000803e3d6000fd5b505050506040513d601f19601f8201168201806040525081019061100c91906119fb565b85600401546040518463ffffffff1660e01b815260040161104e939291906001600160a01b039384168152919092166020820152604081019190915260600190565b600060405180830381600087803b15801561106857600080fd5b505af115801561107c573d6000803e3d6000fd5b50506040805189151581523360208201528a93507f472b66db47a1994b230aebb63a051ba7d145c7b9963b0127b46623a3c5fe8b1392500160405180910390a250506110c760018055565b5050505050565b60006110d98161144d565b610aeb611750565b6000918252602082815260408084206001600160a01b0393909316845291905290205460ff1690565b60006111158161144d565b61112d600080516020611a2c833981519152836110e1565b61116a5760405162461bcd60e51b815260206004820152600e60248201526d2737ba1030903b32b934b334b2b960911b604482015260640161060b565b6005546001600160a01b03831660009081526007602052604090205410156111ca5760405162461bcd60e51b81526020600482015260136024820152725665726966696572206e6f742061637469766560681b604482015260640161060b565b6000838152600860205260409020600681015460ff161580156111f8575060038101546001600160a01b0316155b6112365760405162461bcd60e51b815260206004820152600f60248201526e125b9d985b1a59081c995c5d595cdd608a1b604482015260640161060b565b6003810180546001600160a01b0319166001600160a01b03851690811790915560405185907f5ba438fb58c57a2272bc1eadf2e5f32c90d52faacc2fd170993f2e723025a0df90600090a350505050565b61128f611457565b336000908152600760205260409020600381015460ff166112df5760405162461bcd60e51b815260206004820152600a6024820152694e6f742061637469766560b01b604482015260640161060b565b80546113185760405162461bcd60e51b81526020600482015260086024820152674e6f207374616b6560c01b604482015260640161060b565b805460038201805460ff1916905560008255611342600080516020611a2c83398151915233611693565b5060405163a9059cbb60e01b8152336004820152602481018290527f00000000000000000000000000000000000000000000000000000000000000006001600160a01b03169063a9059cbb906044016020604051808303816000875af11580156113b0573d6000803e3d6000fd5b505050506040513d601f19601f820116820180604052508101906113d4919061197a565b5060405181815233907f8108595eb6bad3acefa9da467d90cc2217686d5c5ac85460f8b7849c840645fc9060200160405180910390a2505061141560018055565b565b6000828152602081905260409020600101546114328161144d565b6109408383611693565b60006114478161144d565b50600555565b610aeb813361178d565b60026001540361147a57604051633ee5aeb560e01b815260040160405180910390fd5b6002600155565b60025460ff16156114155760405163d93c066560e01b815260040160405180910390fd5b6001600160a01b038216600090815260076020526040902080548211156115035760405162461bcd60e51b8152602060048201526012602482015271496e73756666696369656e74207374616b6560701b604482015260640161060b565b818160000160008282546115179190611a18565b909155505060025460405163a9059cbb60e01b81526101009091046001600160a01b039081166004830152602482018490527f0000000000000000000000000000000000000000000000000000000000000000169063a9059cbb906044016020604051808303816000875af1158015611594573d6000803e3d6000fd5b505050506040513d601f19601f820116820180604052508101906115b8919061197a565b50826001600160a01b03167fffe674e558f6c7c4bfdcacc92d3f4ea8036515ec3a89fefa503d19178cc02be6836040516115f491815260200190565b60405180910390a2505050565b600061160d83836110e1565b61168b576000838152602081815260408083206001600160a01b03861684529091529020805460ff191660011790556116433390565b6001600160a01b0316826001600160a01b0316847f2f8788117e7eff1d82e926ec794901d17c78024a50270940304540a733656f0d60405160405180910390a45060016105ba565b5060006105ba565b600061169f83836110e1565b1561168b576000838152602081815260408083206001600160a01b0386168085529252808320805460ff1916905551339286917ff6391f5c32d9c69d2a47ea670b442974b53935d1edc7fd64eb21e047a839171b9190a45060016105ba565b6117066117c6565b6002805460ff191690557f5db9ee0a495bf2e6ff9c91a7834c1ba4fdd244a5e8aa4e537bd38aeae4b073aa335b6040516001600160a01b03909116815260200160405180910390a1565b611758611481565b6002805460ff191660011790557f62e78cea01bee320cd4e420270b5ea74000d11b0c9f74754ebdbfc544b05a2586117333390565b61179782826110e1565b6108fd5760405163e2517d3f60e01b81526001600160a01b03821660048201526024810183905260440161060b565b60025460ff1661141557604051638dfc202b60e01b815260040160405180910390fd5b6000602082840312156117fb57600080fd5b81356001600160e01b03198116811461181357600080fd5b9392505050565b6000806040838503121561182d57600080fd5b50508035926020909101359150565b60006020828403121561184e57600080fd5b5035919050565b6001600160a01b0381168114610aeb57600080fd5b6000806040838503121561187d57600080fd5b823561188881611855565b946020939093013593505050565b600080604083850312156118a957600080fd5b8235915060208301356118bb81611855565b809150509250929050565b6000602082840312156118d857600080fd5b813561181381611855565b8015158114610aeb57600080fd5b6000806000806060858703121561190757600080fd5b843593506020850135611919816118e3565b9250604085013567ffffffffffffffff8082111561193657600080fd5b818701915087601f83011261194a57600080fd5b81358181111561195957600080fd5b88602082850101111561196b57600080fd5b95989497505060200194505050565b60006020828403121561198c57600080fd5b8151611813816118e3565b634e487b7160e01b600052601160045260246000fd5b808201808211156105ba576105ba611997565b6000826119dd57634e487b7160e01b600052601260045260246000fd5b500490565b6000600182016119f4576119f4611997565b5060010190565b600060208284031215611a0d57600080fd5b815161181381611855565b818103818111156105ba576105ba61199756fe0ce23c3e399818cfee81a7ab0880f714e53d7672b08df0fa62f2843416e1ea09a2646970667358221220473e40a222fc0b4f4606457101026c4c344e47bbcf57b3359fc6fcdf41765d7064736f6c63430008140033",
  "linkReferences": {},
  "deployedLinkReferences": {}
}